:100000000C9480010C94C4010C94C4010C94C401A0
:100010000C94C4010C94C4010C94C4010C94C4014C
:100020000C94C4010C94C4010C94E50B0C94B70C13
:100030000C94CC190C94C4010C94C4010C94C4010C
:100040000C94C4010C94C4010C94C4010C94C4011C
:100050000C94C4010C94341A0C94C4010C94C40183
:100060000C94C4010C94860E0C94C4010C94C4012D
:100070000C94C4010C94C4010C94C4010C94C401EC
:100080000C94C4010C94C4010C94C4010C94C401DC
:100090000C94C4010C94C4010C94C4010C94C401CC
:1000A0000C94C4010C94C4010C94C401240D4B0D98
:1000B0003D0E4B0D3D0E970DBA0D3D0E100E1F0E51
:1000C0004811481177117711B611D6112C132C1342
:1000D000E1112C1391129112F81201132C13261313
:1000E0009E129E129E129E129E129E129E129E1290
:1000F0009E129E129E129E129E129E129E129E1280
:10010000AE12BC12C312CA12D412290014001A0073
:100110000800150017001C0018000C001200130046
:1001200034002A002B0004001600070009000A0012
:100130000B000D000E000F00330028000000E1004E
:100140001D001B00060019000500110010003600FC
:1001500037003800E50000004800E000E2004C00F5
:100160002C0000004C0000005000520051004F00D5
:1001700000000A034A004400340035000000120366
:100180006700650065006B006800610063006B003C
:1001900000000403090409027400040100A0FA0924
:1001A00004000001030101000921110100012240A6
:1001B000000705810308000A090401000103010288
:1001C00000092111010001224D00070582030800EA
:1001D0000A090402000103000000092111010001C5
:1001E0002236000705830308000A090403000203FE
:1001F00000000009211101000122200007058403ED
:100200002000010705040320000112011001000075
:100210000008EDFE60600100010200010631FF09E7
:1002200074A1010975150025FF9520750881020943
:1002300076150025FF952075089102C005010980FB
:10024000A101850216010026B7001A01002AB70095
:10025000751095018100C0050C0901A101850316E7
:100260000100269C021A01002A9C0275109501814A
:1002700000C005010902A1010901A1000509190138
:100280002905150025019505750181029501750364
:1002900081010501093009311581257F9502750815
:1002A000810609381581257F950175088106050CA1
:1002B0000A38021581257F950175088106C0C005A1
:1002C000010906A101050719E029E7150025019597
:1002D0000875018102950175088101050819012938
:1002E00005950575019102950175039101050719A1
:1002F0000029FF150026FF00950675088100C00043
:1003000011241FBECFEFDAE0DEBFCDBF04B603FE7F
:1003100024C08091EC029091ED02A091EE02B09188
:10032000EF028730904BA740B04BB9F41092EC022B
:100330001092ED021092EE021092EF0214BE84B7FA
:10034000877F84BF88E10FB6F89480936000109295
:1003500060000FBEE0E0F8E3099511E0A0E0B1E035
:10036000EAE3F5E402C005900D92A434B107D9F791
:1003700012E0A4E4B1E001C01D92AC3EB107E1F788
:100380000E9454090C949B220C940000279A2F98E9
:100390008FEF9FEF90938700809386008AE0809391
:1003A000800089E1809381000C947220282F8111B4
:1003B0000BC080918000877F8093800010928D0019
:1003C00010928C002F9808952F988091800088605B
:1003D00080938000233019F48FEF9FEF0FC083E0EC
:1003E00090E0821B9109880F991F2FEF3FEFA90121
:1003F00002C0569547958A95E2F7CA0190938D0001
:1004000080938C000895089508950E94C60183E0AA
:1004100092E0892B11F00C940302089584E092E09D
:10042000892B11F00C940402089581E0089581E075
:1004300008950C94170208950F931F93CF93DF93A1
:100440008C01FC01C081D181CE010E949018BE01B7
:100450000E94CC02EC01B8010E941902882309F421
:100460008DC0F8018281882309F44AC080914F0130
:1004700081111FC0C431F0E5DF0709F051C00E94AF
:100480001B0281E080934F010E94FE1990934E0160
:1004900080934D011092460110924801109247013D
:1004A00010924A011092490110924C0110924B0196
:1004B00065C080914D0190914E010E940A1A883CBE
:1004C000910570F480914601E82FF0E0EE0FFF1FD8
:1004D000E95BFE4FD183C0838F5F809346014EC09E
:1004E000C43880E5D80721F0C538D04501F13AC0BD
:1004F000F8018281882341F01092440182E01EC0FD
:10050000C438E0E5DE0759F580914401811106C049
:1005100086E20E94EC0F86E20E94B41082E01CC0CA
:10052000C438F0E5DF0741F3C538D045D9F4F80108
:100530008281882331F01092450180E20E940311EC
:100540001DC080914501811106C087E20E94EC0F19
:1005500087E20E94B41080E20E940A110FC0C538E1
:10056000D04529F381E08093440180934501C8017F
:10057000DF91CF911F910F910C94150280E0DF91D4
:10058000CF911F910F9108950C9405020C940E02C7
:1005900080E090E0089508959DE0799FF001112496
:1005A00094E3899FE00DF11D1124E60FF11DEE0F7C
:1005B000FF1FE65FFE4F859194910895880F991F64
:1005C000FC01E657F040859194910895880F991F9A
:1005D000FC01E65FFE4F8591949108950F931F9360
:1005E000CF93DF93EC01811521E39207A0F5C115AC
:1005F00080E3D80708F0D7C0C83ED105D8F4C03E84
:10060000D10508F003C2C83AD10578F4C53AD1053E
:1006100008F06AC0C130D10509F463C008F4F3C121
:10062000C430D10508F0F2C1EEC1CB3BD10508F4CE
:1006300066C0E9C1C11590E2D90708F0AFC0C11585
:1006400021E0D20708F0E2C1C03FD10508F4DBC1C8
:100650008E0110651BC2C03880E5D80700F5C03791
:1006600090E5D90708F0A3C0C11520E5D20709F429
:10067000ACC050F4CE01905480319F4008F0C3C10B
:10068000DF708E01106A02C2C13080E5D80709F41C
:10069000AAC0C43190E5D90708F4ABC0B4C1C338CF
:1006A00020E5D20709F48EC050F4C13890E5D9078F
:1006B00009F482C008F083C000E011EDE7C1C03149
:1006C00081E5D80708F49FC1C11597E5D90708F45B
:1006D00032C1CE0190578115904108F094C1DF706E
:1006E0008FC101E010E0D2C1C53AD10509F490C133
:1006F000C63AD10509F08FC102E810E4C7C1C83A73
:10070000D10509F48BC1C93AD10509F48AC1CA3AA5
:10071000D10509F489C1CB3AD10509F488C1CC3A95
:10072000D10509F487C1CD3AD10509F486C1C03B92
:10073000D10509F485C1CE3AD10509F484C1CF3A77
:10074000D10509F483C1C13BD10509F482C1C23B83
:10075000D10509F481C1C33BD10509F480C1C43B73
:10076000D10509F47FC1C53BD10509F47EC1C63B63
:10077000D10509F47DC1C73BD10509F47CC1C83B53
:10078000D10509F47BC1C93BD10509F47AC1CA3B43
:10079000D10509F479C100E014E478C1CE019F705D
:1007A0000E94E60274C1DD278E01106C6FC1CF700C
:1007B000DD278E01146D6AC100E010ED67C100E015
:1007C00012ED64C100E013ED61C10E9497138FEF39
:1007D00094E32CE0815090402040E1F700C00000FD
:1007E0000E94591A53C18091CC0281608093CC023F
:1007F0004DC10E94041C811102C00E94E51B0E9491
:10080000211C90E09093EB028093EA02C23080E5D5
:10081000D80721F48091EA02816086C0C43090E557
:10082000D90721F48091EA0282607EC0C63020E5BB
:10083000D20721F48091EA02846076C0C83080E556
:10084000D80719F48091EA0227C0CA3090E5D90789
:1008500021F48091EA02806167C0CC3020E5D207A4
:1008600021F48091EA0280625FC0CE3080E5D80733
:1008700021F48091EA02806457C0C03190E5D90725
:1008800021F48091EA0280684FC0C23120E5D2078E
:1008900029F48091EA028460886046C0C33080E514
:1008A000D80721F48091EA028E7F3EC0C53090E5E2
:1008B000D90721F48091EA028D7F36C0C73020E548
:1008C000D20721F48091EA028B7F2EC0C93080E5E7
:1008D000D80719F48091EA0226C0CB3090E5D907F9
:1008E00021F48091EA028F7E1FC0CD3020E5D2072F
:1008F00021F48091EA028F7D17C0CF3080E5D807C0
:1009000021F48091EA028F7B0FC0C13190E5D907B5
:1009100021F48091EA028F7707C0C331D04531F4CA
:100920008091EA028B7F877F8093EA028091EA02BE
:100930000E94251CABC08D2F99278F70992781307D
:100940009105D9F49E012370332702C0880F991FA7
:100950002A95E2F79C688E0144E0000F111F4A952A
:10096000E1F700271370802B912B53E0CC0FDD1F94
:100970005A95E1F7C076DD272FC08230910531F41A
:10098000DC2FCC278E01016F106A80C08330910567
:1009900069F4CE018370992701E010E002C0000FD6
:1009A000111F8A95E2F7C8019C680FC08430910539
:1009B000B9F4CE018370992701E010E002C0000F66
:1009C000111F8A95E2F7C8019A6823E0CC0FDD1F5A
:1009D0002A95E1F7C07ED7708C010C2B1D2B56C0D9
:1009E0008530910531F4DC2FCC278E01046F106A1D
:1009F0004DC0069709F04AC0CF71DD27DC2FCC2708
:100A00008E01106243C000E010E040C08E013EC085
:100A100001E810E43BC003E810E438C002EE14E43F
:100A200035C009EE14E432C00AEE14E42FC005EB21
:100A300014E42CC006EB14E429C007EB14E426C030
:100A40000CEC14E423C00DEC14E420C003E815E41E
:100A50001DC00AE815E41AC002E915E417C004E94C
:100A600015E414C001E216E411C003E216E40EC05E
:100A700004E216E40BC005E216E408C006E216E440
:100A800005C007E216E402C00AE216E4C801DF91DD
:100A9000CF911F910F9108959DE0799FF00111244E
:100AA00094E3899FE00DF11D1124E60FF11DEE0F77
:100AB000FF1FE65FFE4F85919491803E9105E0F423
:100AC000803C910558F58133910509F46FC048F4D5
:100AD0008932910509F463C08A32910509F46DC029
:100AE00072C089339105E9F082389105D1F08533E0
:100AF000910509F44DC067C0833E910581F138F43A
:100B0000803E9105B9F0823E9105D9F05CC0863EE9
:100B1000910561F1873E9105A1F155C00E94DE0269
:100B200008952091EA0220FD02C021FF4CC080EE12
:100B300090E049C08091EA0280FFF9CF89E390E01C
:100B400042C08091EA0282FF0EC08091EA0284FFD7
:100B500003C080E090E037C083EE90E034C0809125
:100B6000EA0282FFF2CF82EE90E02DC08091EA028D
:100B700083FF0BC08091EA0284FDEBCF87EE90E00B
:100B800022C08091EA0283FFF5CF86EE90E01BC081
:100B90008091EA0285FF07C089E290E014C080914D
:100BA000EA0285FFF9CF85E390E00DC08091EA026B
:100BB00086FF07C08AE290E006C08091EA0286FFC5
:100BC000F9CF81E390E00E94EE02089508950C941D
:100BD000E605E82FF0E0EF5DFE4F8081E82FEF7033
:100BE000F0E082958F7021E030E0A90102C0440F4F
:100BF000551F8A95E2F740A308950F931F93CF9353
:100C0000DF9385B7806885BF85B7806885BFC3E0FF
:100C1000D0E001E010E0FE01EF5DFE4F8081E82FA3
:100C2000EF70F0E021A182958F70A80102C0440FFF
:100C3000551F8A95E2F7CA01822B81A38C2F0E944F
:100C4000E905219740F78CE090E061E070E0FC015D
:100C5000EC5EFE4F2081E22FEF70F0E042A1229582
:100C60002F70DB0102C0AA0FBB1F2A95E2F79D017E
:100C7000242B22A3019758F7DF91CF911F910F9159
:100C80000C94C402EF92FF920F931F93CF93DF93C4
:100C900008E511E0C3E0EE24E394F12CD5E08C2FBD
:100CA0000E94E9058CE090E040E050E0FC01EC5E41
:100CB000FE4F6081E62FEF70F0E020A130E06295FA
:100CC0006F7002C0359527956A95E2F720FD09C03F
:100CD0009701082E02C0220F331F0A94E2F7422B1D
:100CE000532B019718F7F801929182918F01841785
:100CF000950721F051834083D09300018C2F0E94EF
:100D0000E905C15060F68091000187FD2CC081503B
:100D1000809300018F3F39F08FE99FE00197F1F751
:100D200000C0000020C0809156019091570190931F
:100D30005F0180935E0180915401909155019093E1
:100D40005D0180935C0180915201909153019093D9
:100D50005B0180935A0180915001909151019093D1
:100D60005901809358010E94C60281E0DF91CF9122
:100D70001F910F91FF90EF900895E82FF0E0EE0F94
:100D8000FF1FE85AFE4F8081918108950895809158
:100D90006C0108950F931F93CF93DF9300D000D081
:100DA0001F92CDB7DEB79C018091610190916201E5
:100DB0002817390709F493C0309362012093610129
:100DC000223E3105F1F1293E310559F12A3E310526
:100DD00059F1253B310559F1263B310551F1273BAE
:100DE000310551F12C3C310561F12D3C310531F1DA
:100DF000233881E0380729F12A3891E0390709F1D1
:100E0000223981E03807E9F0243991E03907C9F047
:100E1000213282E03807B9F0233292E0390789F4B1
:100E200015C090E040E114C090E040E211C092E0B3
:100E300001C094E040E00CC090E1FCCF90E040E4C1
:100E400007C090E0F7CF90E044E002C090E041E0BE
:100E500089018DEF4C839D830E94700E80E00E947B
:100E6000700E82E00E94700E4C81842F0E94700EE2
:100E70009D81892F0E94700E80E00E94700E80E09C
:100E80000E94700E80E00E94700E80E00E94700E42
:100E90008091E102843019F583E089831B830A8302
:100EA0008093E9008FEF9091E800815095FD06C096
:100EB00095ED9A95F1F700008111F5CF8091E8004A
:100EC00085FF0DC040E050E063E070E0CE01019688
:100ED0000E94D5098091E8008E778093E8000F90FA
:100EE0000F900F900F900F90DF91CF911F910F9166
:100EF0000895CF93DF9300D01F92CDB7DEB7209136
:100F0000E102243021F522E029839B838A8383E058
:100F10008093E9008FEF9091E800815095FD06C025
:100F200095ED9A95F1F700008111F5CF8091E800D9
:100F300085FF0DC040E050E063E070E0CE01019617
:100F40000E94D5098091E8008E778093E8000F9089
:100F50000F900F90DF91CF910895CF93DF93EC0125
:100F60008DEF0E94700E80E00E94700E83E00E9460
:100F7000700E88810E94700E89810E94700E8A8195
:100F80000E94700E8B810E94700E8C810E94700EE8
:100F900080E00E94700E8091E1028430F9F482E0DA
:100FA0008093E9008FEF9091E800815095FD06C095
:100FB00095ED9A95F1F700008111F5CF8091E80049
:100FC00085FF0CC040E050E065E070E0CE010E947B
:100FD000D5098091E8008E778093E800DF91CF916A
:100FE0000895EF92FF920F931F93CF93DF93EC013D
:100FF0008DEF0E94700E8E017E0188E0E80EF11CDC
:10100000F80181918F010E94700E0E151F05C1F726
:101010008091E102843039F581E08093E9008FEF1F
:101020009091E800815095FD06C0F5EDFA95F1F735
:1010300000008111F5CF8091E80085FF14C040E0E9
:1010400050E068E070E0CE010E94D5098091E80090
:101050008E778093E80088E0FE01A4E6B1E001907D
:101060000D928A95E1F7DF91CF911F910F91FF903B
:10107000EF9008958091E002811109C00E946A0BEF
:101080000E94C70B8091E20084608093E200089583
:101090001092E0020895089508950C94C1192091CA
:1010A00060012F5F822F62E30E942B22992319F0A7
:1010B000209360010895109260018091630188235C
:1010C00071F18091E102843041F58091E9008F70E7
:1010D0002091EC00922F917020FD90E8892B94E0F4
:1010E0009093E9009091EB0090FF14C09091EE0076
:1010F00097FF10C09091E80095FF03C01092F10097
:10110000F9CF9091E80090FF05C09091E8009E779C
:101110009093E8008F708093E90010926301089526
:1011200042E061EC81E00E94E40A42E061EC82E08E
:101130000E94E40A42E061EC83E00E94E40A42E299
:1011400061EC84E00C94E40A8091E302833009F4BA
:1011500053C030F4813071F0823009F48CC00895AE
:101160008A3009F478C08B3009F45EC0893009F008
:101170009AC020C08091E202813A09F094C0809127
:10118000E800877F8093E8008091E6029091E70273
:10119000892B21F468E084E691E003C060E080E000
:1011A00090E070E00E94200A8091E8008B778093A5
:1011B000E80008958091E202813209F074C08091C4
:1011C000E6029091E702892B09F06DC08091E8005A
:1011D000877F8093E8008091E80082FD05C08091C0
:1011E000E1028111F8CF5FC08091F10080936C0122
:1011F0008091E8008B7753C08091E202813A09F038
:1012000052C08091E6029091E702892B09F04BC011
:101210008091E800877F8093E8008091E80080FF5C
:10122000FCCF80910B0136C08091E2028132D9F56A
:101230008091E6029091E702892BA9F58091E80060
:10124000877F8093E8000E94190B8091E4028093CD
:101250000B010C9497138091E202813221F5809169
:10126000E800877F8093E8000E94190B8091E502D7
:1012700080936D0108958091E202813AA1F48091FA
:10128000E800877F8093E8008091E80080FFFCCF32
:1012900080916D018093F1008091E8008E778093BA
:1012A000E8000C94190B089584B7877F84BF88E108
:1012B0000FB6F89480936000109260000FBE80E833
:1012C00080936100109261000E94040F0E946A0BDB
:1012D0000E94C70B8091E20084608093E2007894C2
:1012E0000E94720E0E94550E0E94060F81E091E04E
:1012F0000E94B00E0E940E0FFDCF292F33272330FE
:101300003105C9F064F42130310581F02230310516
:1013100009F043C084E790E026E931E042C0213281
:101320003105F1F02232310541F137C082E190E020
:101330002AE032E036C099278130910541F08230B1
:10134000910541F0892B49F5E2E9F1E005C0EEE7AE
:10135000F1E002C0E2E7F1E0849190E09F0121C05A
:1013600064307105D0F4660F771FFB01EF5CFE4F10
:101370002081318189E090E014C06430710568F407
:10138000FB01EE0FFF1FE75DFE4F20813181FB0166
:10139000EB5DFE4F808190E004C080E090E020E0B3
:1013A00030E0FA01318320830895CF92DF92EF92EB
:1013B000FF920F931F93CF93DF93EC018B016A0190
:1013C0000E94380B811133C0C114D10439F0F601E9
:1013D00080819181081B190BC80FD91FE12CF12CBA
:1013E0000115110519F18091E80085FD16C0809165
:1013F000E8008E778093E800C114D10449F0F6012B
:1014000080819181E80EF91EF182E08285E00FC0B3
:101410000E94380B882321F30AC089918093F10040
:1014200001501109FFEFEF1AFF0ADACF80E0DF91D8
:10143000CF911F910F91FF90EF90DF90CF90089583
:101440002091E8023091E9022617370748F061152C
:10145000710539F42091E8002E772093E80001C04F
:10146000B90140E061157105A9F12091E102222343
:1014700009F443C0253009F442C02091E80023FD5F
:1014800040C02091E80022FD32C02091E80020FFFA
:10149000E9CF4091F3002091F20030E0342BFC01C1
:1014A000CF016115710559F02830310540F4819163
:1014B0008093F100615071092F5F3F4FF1CF41E000
:1014C0002830310509F040E02091E8002E77209384
:1014D000E800C8CF4111C9CF0AC08091E10288233A
:1014E00061F0853061F08091E80083FD0AC0809151
:1014F000E80082FFF2CF80E0089582E0089583E063
:10150000089581E008952091E8023091E9022617BC
:10151000370748F06115710539F42091E8002E77FE
:101520002093E80001C0B901FC0120E061157105BC
:1015300091F18091E102882309F440C0853009F4DB
:101540003FC08091E80083FD3DC08091E80082FDAE
:101550002FC08091E80080FFE9CF2091F3008091B7
:10156000F20090E0922B6115710559F088309105D9
:1015700040F424912093F100319661507109019655
:10158000F2CF21E0089709F020E08091E8008E7703
:101590008093E800CBCF2111CCCF0AC08091E1022B
:1015A000882361F0853061F08091E80083FD0AC0F6
:1015B0008091E80082FFF2CF80E0089582E00895F4
:1015C00083E0089581E00895982F973058F590931F
:1015D000E900981739F07091EC002091ED005091DE
:1015E000F00003C0242F762F50E021FF19C0309166
:1015F000EB003E7F3093EB003091ED003D7F309368
:10160000ED003091EB0031603093EB007093EC0013
:101610002093ED005093F0002091EE0027FF07C0CB
:101620009F5FD3CF8F708093E90081E0089580E0C1
:1016300008958091E20287FF11C08091E80082FD49
:1016400005C08091E1028111F8CF11C08091E800BE
:101650008B770BC08091E102882349F08091E800EC
:1016600080FFF8CF8091E8008E778093E80008959E
:101670002091E4003091E50095E64091EC00842F44
:10168000817040FF22C08091E80080FD1CC08091E5
:10169000E102882391F0853091F08091EB0085FD87
:1016A00010C04091E4005091E5004217530729F320
:1016B0009A01915011F784E0089582E0089583E043
:1016C000089581E0089580E008954091E80042FF88
:1016D000DECF08950E94D80B0E94E00BE0EEF0E010
:1016E000808181608083E8EDF0E080818F77808366
:1016F00019BCA7EDB0E08C918E7F8C9380818F7E9A
:1017000080831092E00208950F931F93CF93DF938D
:101710000E94D80B0E94E00BC8EDD0E088818F7743
:10172000888388818068888388818F7D888319BCBD
:101730001092E1021092DD021092DF021092DE029E
:1017400000EE10E0F80180818B7F808388818160CA
:10175000888342E060E080E00E94E40AE1EEF0E08D
:1017600080818E7F8083E2EEF0E0808181608083E3
:10177000808188608083F80180818E7F808388816A
:1017800080618883DF91CF911F910F910895E8EDDB
:10179000F0E080818F7E8083E7EDF0E080818160E2
:1017A000808384E082BF81E08093E0020C94840B0C
:1017B000E8EDF0E080818E7F80831092E200089552
:1017C0001092DA001092E10008951F920F920FB666
:1017D0000F9211242F933F934F935F936F937F93B7
:1017E0008F939F93AF93BF93EF93FF938091E1000B
:1017F00082FF0BC08091E20082FF07C08091E10070
:101800008B7F8093E1000E944F088091DA0080FF77
:101810001FC08091D80080FF1BC08091DA008E7FAE
:101820008093DA008091D90080FF0DC080E189BDEE
:1018300082E189BD09B400FEFDCF81E08093E10221
:101840000E943A0805C019BC1092E1020E944808A3
:101850008091E10080FF19C08091E20080FF15C0F7
:101860008091E2008E7F8093E2008091E2008061AF
:101870008093E2008091D80080628093D80019BCE8
:1018800085E08093E1020E944C088091E10084FF92
:1018900030C08091E20084FF2CC080E189BD82E1EC
:1018A00089BD09B400FEFDCF8091D8008F7D809363
:1018B000D8008091E1008F7E8093E1008091E2006A
:1018C0008F7E8093E2008091E20081608093E2004D
:1018D0008091DD02882311F084E007C08091E3004D
:1018E00087FD02C081E001C083E08093E1020E9495
:1018F0004D088091E10083FF29C08091E20083FFC1
:1019000025C08091E100877F8093E10082E0809391
:10191000E1021092DD028091E1008E7F8093E10070
:101920008091E2008E7F8093E2008091E2008061EE
:101930008093E20042E060E080E00E94E40A80914F
:10194000F00088608093F0000E944B08FF91EF91B7
:10195000BF91AF919F918F917F916F915F914F91C7
:101960003F912F910F900FBE0F901F9018951F92CF
:101970000F920FB60F9211242F933F934F935F93C3
:101980006F937F938F939F93AF93BF93CF93DF9387
:10199000EF93FF93C091E900CF708091EC00D82FB6
:1019A000D17080FDD0E81092E9008091F000877F2F
:1019B0008093F00078940E94FB0C1092E9008091D3
:1019C000F00088608093F000CD2BCF70C093E900C9
:1019D000FF91EF91DF91CF91BF91AF919F918F9147
:1019E0007F916F915F914F913F912F910F900FBE1B
:1019F0000F901F9018951F93CF93DF93CDB7DEB74D
:101A0000AA970FB6F894DEBF0FBECDBFE2EEF2E0AC
:101A100088E08E0F9091F10091938E13FBCF0E947E
:101A2000A4088091E80083FF28C18091E202909190
:101A3000E302492F50E04A30510508F01EC1FA0177
:101A4000EA5AFF4F0C944B22803821F0823809F07B
:101A500014C108C08091DE029091DF02992389F0C1
:101A600082600FC08091E6028F70873008F005C158
:101A70008093E9008091EB0085FB882780F9109224
:101A8000E9009091E800977F9093E8008093F1003F
:101A90001092F100D0C0282F2D7F09F0EEC08823CE
:101AA00019F0823061F0E9C08091E402813009F0E0
:101AB000E4C0933009F080E08093DF022EC0809173
:101AC000E40281112AC08091E6028F702FEF280F67
:101AD000263008F0D2C08093E9002091EB0020FF6F
:101AE0001CC0933021F48091EB00806214C090916F
:101AF000EB0090619093EB0021E030E0A90102C07F
:101B0000440F551F8A95E2F74093EA001092EA00CD
:101B10008091EB0088608093EB001092E900809147
:101B2000E800877F8093E8000E94190BA6C081110E
:101B3000A4C01091E4021F778091E3008078812B8C
:101B40008093E3008091E800877F8093E8000E9403
:101B5000190B8091E80080FFFCCF8091E300806842
:101B60008093E300111102C082E001C083E0809302
:101B7000E10283C08058823008F07FC08091E40287
:101B80009091E5028C3D53E0950779F583E08A83D7
:101B90008AE289834FB7F894DE01139620E03EE095
:101BA00051E2E32FF0E050935700E49120FF03C08F
:101BB000E295EF703F5FEF708E2F90E0EA3010F00B
:101BC000C79601C0C0968D939D932F5F243149F72E
:101BD0004FBF8091E800877F8093E8006AE270E061
:101BE000CE0101960E94200A15C06091E602709114
:101BF000E702AE014F5F5F4F0E947D09BC01009775
:101C0000E1F19091E800977F9093E80089819A81B3
:101C10000E94830A8091E8008B778093E8002DC0B2
:101C2000803859F58091E800877F8093E8008091A3
:101C3000DD028093F1008091E8008E7773CF8111EF
:101C40001CC09091E4029230C0F48091E800877F3C
:101C50008093E8009093DD020E94190B8091DD02D1
:101C6000811106C08091E30087FD02C081E001C0C0
:101C700084E08093E1020E9490088091E80083FF55
:101C80000AC08091E800877F8093E8008091EB0094
:101C900080628093EB00AA960FB6F894DEBF0FBE69
:101CA000CDBFDF91CF911F910895CF938091E10235
:101CB0008823A1F0C091E900CF709091EC00892FAA
:101CC000817090FD80E8C82B1092E9008091E800B7
:101CD00083FD0E94FB0CCF70C093E900CF91089563
:101CE0000C947F0E87E68093CC001092CD0088E0A4
:101CF0008093C90086E08093CA00789408959091FB
:101D0000C80095FFFCCF8093CE0008951F920F92DC
:101D10000FB60F9211242F933F934F938F939F935E
:101D2000EF93FF9380916F0190E09C012F5F3F4FF5
:101D300040916E01421741F03091CE00FC01E05914
:101D4000FE4F308320936F01FF91EF919F918F9110
:101D50004F913F912F910F900FBE0F901F901895AC
:101D600090937502809374020895E0917402F0914B
:101D70007502309721F00190F081E02D099480E008
:101D80000895E0917402F0917502309721F002807D
:101D9000F381E02D09940895E0917402F0917502A9
:101DA000309721F00480F581E02D09940895209169
:101DB0007202309173028217930771F0909373024D
:101DC00080937202E0917402F0917502309721F0D5
:101DD0000680F781E02D09940895209170023091DA
:101DE00071028217930771F09093710280937002D1
:101DF000E0917402F0917502309721F00084F18532
:101E0000E02D0994089508950C94030F0E94F5198C
:101E10000E94FD050E94BF1A0C9472205F926F927F
:101E20007F928F929F92AF92BF92CF92DF92EF926A
:101E3000FF920F931F93CF93DF9300D000D01F9298
:101E4000CDB7DEB70E9442069FE7C92E92E0D92E99
:101E500003E010E0AA24A394B12C502E802F0E94FE
:101E6000BD064C01F601729062906F0168267926DA
:101E700061147104A1F40150110978F78FEF89837F
:101E80008A831B820E94FE198160782F9D838C8338
:101E900049815A816B818D810E94BE0F38C080912B
:101EA000CC0281FD0E94C6062CE030E07501022EB6
:101EB00002C0EE0CFF1C0A94E2F7C70186219721AD
:101EC000892B09F129835A828E209F2091E089284D
:101ED00009F490E09B830E94FE198160782F9D8316
:101EE0008C8349815A816B818D810E94BE0F000FC6
:101EF000111FF801E958FD4F80819181E826F926EC
:101F0000F182E08204C02150310980F6B4CF0E94F2
:101F1000AD1D109176020E94B50E1817D1F00E94E7
:101F2000B50E809376020F900F900F900F900F9048
:101F3000DF91CF911F910F91FF90EF90DF90CF90A5
:101F4000BF90AF909F908F907F906F905F900C9418
:101F5000E7050F900F900F900F900F90DF91CF91AA
:101F60001F910F91FF90EF90DF90CF90BF90AF90B7
:101F70009F908F907F906F905F900895CF93DF93A5
:101F8000CDB7DEB72B970FB6F894DEBF0FBECDBF2F
:101F90004F83588769877A878B87DE01119686E0A1
:101FA000FD0111928A95E9F785E0FE0137960190CF
:101FB0000D928A95E1F749815A816B817C818D81EF
:101FC0009E810E9435162B960FB6F894DEBF0FBE89
:101FD000CDBFDF91CF910895CF93882309F4C2C07C
:101FE000C82F823859F40E94B50E81FDBBC089E329
:101FF0000E940F190E94921989E30CC0833879F46A
:102000000E94B50E80FDAEC083E50E940F190E94AC
:10201000921983E50E942C19CF910C94921984385F
:1020200059F40E94B50E82FD9DC087E40E940F19ED
:102030000E94921987E4EECF8CEF8C0F813A48F41E
:102040008C2F0E94DA1F81118DC08C2F0E940F19D6
:10205000E3CF80E28C0F883048F4C77081E001C084
:10206000880FCA95EAF70E944B19D6CF8BE58C0FE3
:10207000833078F4C53A29F0C63A31F083E890E02D
:1020800005C081E890E002C082E890E0CF910C9416
:10209000D70E88E58C0F833108F064C0C83A39F157
:1020A000C93A41F1CA3A49F1CB3A51F1CC3A59F126
:1020B000CD3A61F1C03B69F1CE3A71F1CF3A79F195
:1020C000C13B81F1C23B89F1C33B91F1C43B99F122
:1020D000C53BA1F1C63BA9F1C73BB1F1C83BB9F182
:1020E000C93BC1F1CA3BC9F180E090E038C082EE43
:1020F00090E035C089EE90E032C08AEE90E02FC0CB
:1021000085EB90E02CC086EB90E029C087EB90E057
:1021100026C08CEC90E023C08DEC90E020C083E8DA
:1021200091E01DC08AE891E01AC082E991E017C0F1
:1021300084E991E014C081E292E011C083E292E070
:102140000EC084E292E00BC085E292E008C086E215
:1021500092E005C087E292E002C08AE292E0CF916D
:102160000C94ED0ECF910895882309F44BC082386A
:1021700059F40E94B50E81FF45C089E30E940F19F2
:102180000E94921989E30CC0833871F40E94B50E45
:1021900080FF38C083E50E940F190E94921983E5E1
:1021A0000E942C190C949219843859F40E94B50E8F
:1021B00082FF28C087E40E940F190E94921987E4C9
:1021C000EFCF9CEF980F913A58F390E2980F983028
:1021D00050F4877091E001C0990F8A95EAF7892F32
:1021E0000E945119DFCF9BE5980F933020F480E0D7
:1021F00090E00C94D70E885A833120F480E090E070
:102200000C94ED0E0895882321F00E944B190C9434
:1022100092190895882321F00E9451190C94921963
:1022200008957F928F929F92AF92BF92CF92DF924A
:10223000EF92FF920F931F93CF93DF931F92CDB72F
:10224000DEB77C01C62E772EFC01058102950F704A
:10225000128111110E9468190E940819882379F0CF
:10226000112369F080E28C0D883048F082E00E94F2
:10227000F1180E94081991E0D82ED92601C0D12C5E
:10228000E72DE295EF70F0E0E05AFF4F0C944B22FF
:10229000872D807F072D0F70882311F00295007F16
:1022A000112389F0002309F499C180E28C0D883054
:1022B00020F4802F0E944B1903C0802F0E945B19CD
:1022C0000E9492198BC18C2D0E94B410002309F436
:1022D000C3C180E28C0D883020F4802F0E945119F8
:1022E00003C0802F0E9461190E949219B5C1872DE9
:1022F000807F972D9F70803211F4892F03C0892F22
:102300008295807FCC2021F0F1E0CF16A1F01DC096
:10231000112339F0002319F1013009F50E947B19CE
:102320009BC1002319F0013009F496C189830E94F2
:102330007E19898110C1112321F0063008F08CC16B
:102340000EC0053008F088C106C1112359F00023E2
:1023500031F0F701958190FF41C19F7095830E94F4
:1023600003117AC1002309F4F6C03EC1872D86957A
:102370008695837090E0009719F0019761F06CC129
:10238000112321F08C2D972D937002C080E090E0F6
:102390000E94D70E61C1112321F08C2D972D9370CF
:1023A00002C080E090E00E94ED0E56C18C2D1123FA
:1023B00019F00E94B51C02C00E941D1D0E94A21DA2
:1023C0004BC1872D837009F052C0111145C18C2D6E
:1023D000829586958770880F880F9C2D9F70892E17
:1023E000912CA12CB12C082E04C0880C991CAA1C7D
:1023F000BB1C0A94D2F7C4FE14C00FE010E020E02A
:1024000030E0B901A80104C0440F551F661F771FB3
:102410008A95D2F7CB01BA01609570958095909519
:1024200003C060E070E0CB01272D26952695237030
:1024300030E02230310569F02330310589F0682918
:1024400079298A299B292130310571F00E947D1755
:1024500003C1682979298A299B290E949917FCC000
:102460000E947D17C501B4010E946117F5C01123B8
:1024700019F0872D817001C08695882309F4ECC07E
:102480008C2D829586958770880F880F9C2D9F7064
:10249000892E912CA12CB12C082E04C0880C991CDB
:1024A000AA1CBB1C0A94D2F7C4FE14C00FE010E0B3
:1024B00020E030E0B901A80104C0440F551F661F99
:1024C000771F8A95D2F7CB01BA01609570958095F8
:1024D000909503C060E070E0CB01272D26952695EE
:1024E0002370422F50E04230510569F043305105CE
:1024F00089F0682979298A299B294130510571F091
:102500000E945718A9C0682979298A299B290E9405
:102510007318A2C00E945718C501B4010E943B184D
:102520009BC08C2D90E0FC01E05EF109E531F105E6
:1025300008F050C0E059FF4F0C944B220C2D0F7047
:10254000872D8F71112321F00E94D417802F07CF80
:102550000E94F517802F0E940A117EC0112341F0BE
:10256000053008F079C0872D8F710E941A1874C049
:10257000063008F071C0F7CF112339F0872D8F7125
:102580000E94D41769C01123C9F3872D8F710E944F
:10259000F51762C0112329F0872D8F710E94BF1794
:1025A0005BC00E94B51758C0112351F0172D1F7141
:1025B000812F0E94D41763E0812F0E94E8184CC03D
:1025C00081E00E94F118023008F446C082E00E94C7
:1025D000F11842C0112331F0002381F28C2D0E94AA
:1025E000EC0F3AC0002389F28C2D0E94B41034C045
:1025F000472D4F706C2DC7010E94C8020E94D9164A
:102600002BC0111129C0472D4F7050E042305105A9
:10261000B9F04CF44115510581F041305105E1F418
:102620000E949A2019C04330510569F04430510589
:1026300099F48C2D0E94EC200FC00E9483200CC0C6
:102640000E94B62009C00E94C92006C0472D4F70C5
:102650006C2DC7010E94CB02DD20F9F00E94E41826
:1026600080FD1BC0F70112820E94DE180E94D41761
:10267000C7010E945C130E94DE180F90DF91CF917A
:102680001F910F91FF90EF90DF90CF90BF90AF9090
:102690009F908F907F900C94F5170F90DF91CF91C2
:1026A0001F910F91FF90EF90DF90CF90BF90AF9070
:1026B0009F908F907F9008950F931F93CF93DF93F8
:1026C000EC01888199812B813C81232BB9F09F3FBC
:1026D00011F48F3F99F0CE010E941C02882371F003
:1026E000688179818A810E94DA188C010E948F1892
:1026F0000E945617B801CE010E941111DF91CF91AF
:102700001F910F9108950E9468190E9478190E94E4
:102710003D190E9492190E94531E0E94A21D80E042
:1027200090E00E94D70E80E090E00C94ED0E0E94A5
:1027300058190C9483130E94CF18292F22952F70BB
:1027400030E02C3031054CF42A3031056CF4225045
:10275000310922303105A8F407C02C30310569F069
:102760002F30310551F00DC0803F69F018F4803EE4
:1027700040F409C0843F29F406C093FB882780F900
:10278000089580E0089581E00895CF93DF9300D00D
:1027900000D01F92CDB7DEB70F900F900F900F9023
:1027A0000F90DF91CF910895CF93DF9300D000D0A9
:1027B00000D0CDB7DEB726960FB6F894DEBF0FBEB9
:1027C000CDBFDF91CF9108951F93CF93DF93C09139
:1027D0007F0216E080918002C81799F0D0E01C9F1C
:1027E000F0011D9FF00D1124EF57FD4F40815181E5
:1027F00062817381848195810E94D4132196C77070
:10280000E9CFDF91CF911F9108954091B10250918E
:10281000B2026091B3027091B4028091B5029091BE
:10282000B6020C94D4138091B60282958F7009F091
:1028300054C08091B302882309F44FC080917F0275
:10284000A09180026091B1027091B2024091B402F5
:102850005091B502B6E08A1709F43FC090E04115E7
:102860005105C1F17F3F11F46F3FA1F1B89FF00115
:10287000B99FF00D1124EF57FD4F218172132AC02B
:102880002081621327C02281211124C02381348139
:102890002417350710F421503109241B350B283C2F
:1028A0003105C0F42091B6022F7020612093B6024A
:1028B00026E0289FF001299FF00D1124EA57FD4FD3
:1028C00080818F708061808381EB92E00E945C1335
:1028D0000C94E41301968770BECF0895CF92DF92D7
:1028E000EF92FF920F931F93CF93DF93CDB7DEB795
:1028F00062970FB6F894DEBF0FBECDBF8C0185E0A6
:10290000F801DE011D9601900D928A95E1F7D8013C
:102910004C9111965C91119712966C9112971396A7
:10292000CD90DC9014973091B1027091B2028091F9
:10293000B4029091B502009709F46BC17F3F19F47E
:102940003F3F09F466C1E090B302EE2009F4C0C035
:102950002091B602C816D90628F0F601E81BF90B3B
:10296000CF0104C0809590958C0D9D1DFF24F3949C
:10297000883C910578F0F12C207F09F0C6C07C2DB1
:10298000D98AC88A89890E94C51381EB92E00E9486
:102990005C13B1C0822F807F09F046C0751314C04C
:1029A000341312C0611110C02F7020612093B60241
:1029B0000E94051481EB92E00E945C138091B602A4
:1029C000D80115968C932EC0CD2819F15F3F11F4D4
:1029D0004F3FF9F0F62E61111CC080917F022091CB
:1029E000800236E0821709F45AC090E0389FF00167
:1029F000399FF00D1124EF57FD4F7181571306C019
:102A00007081471303C07281711103C001968770F2
:102A1000E9CFF62E662309F418C18091B6028160D1
:102A20008093B602F12C11C1751308C0341306C08F
:102A3000611104C08091B602D801C3C04D875E8782
:102A40008D859E856A8B0E949B136A898823E1F19C
:102A50006623D1F12091B602822F82958F7090E08B
:102A6000029774F08091B1029091B20298878F839F
:102A70001986DB86CA862C87CE0107960E945C13D6
:102A800086E0F801A1EBB2E001900D928A95E1F7A2
:102A90000E9413140E940514FF24F394D6C04D879E
:102AA0005E878D859E850E94CF18292F22952F70D5
:102AB00030E0223031050CF0BCC09F7009F0B6C088
:102AC000805E883008F4C1C0C8010E945C13E4CF66
:102AD000C816D90608F453C0F601E81BF90BCF015C
:102AE000883C910508F450C0F12C7C2DD98AC88A05
:102AF00089890E94C513E1EBF2E086E0DF011D92B7
:102B00008A95E9F70E940514A0C0751314C0341308
:102B100012C0611110C08091B602F8018583C8010E
:102B20000E945C1386E0E1EBF2E0DF011D928A95E2
:102B3000E9F7FE2C8AC04D875E878D859E856A8B5E
:102B40000E949B136A89882309F4BECF662309F487
:102B5000BBCF2091B602822F82958F7090E00297B2
:102B60000CF48ECF8091B1029091B2029A83898346
:102B70001B82DD82CC822E83CE0101967FCF809591
:102B800090958C0D9D1DACCFF62E662309F49CCF3D
:102B900075132EC034132CC02091B60220FD1FC027
:102BA000822F82958F70D9F0D80115962C931597A6
:102BB0008F3049F08F5F982F9295907F822F8F7082
:102BC000892B15968C93C8010E945C1386E0F8014E
:102BD000A1EBB2E001900D928A95E1F793CF86E0E8
:102BE000F801A1EBB2E001900D928A95E1F72DC0BA
:102BF0004D875E878D859E850E949B13811140CFF6
:102C00008091B60281608093B602C8010E945C1375
:102C10001CC0662309F458CF4D875E878D859E853D
:102C20000E949B13882309F44FCF2ACF811148CFEC
:102C30000CC0243031050CF047CF9F7009F440CF11
:102C4000F8019581907F09F03BCF8F2D62960FB6EA
:102C5000F894DEBF0FBECDBFDF91CF911F910F91D2
:102C6000FF90EF90DF90CF9008951F93CF93DF9365
:102C7000CDB7DEB72C970FB6F894DEBF0FBECDBF31
:102C80004F83588769877A878B879C87CE01079601
:102C90000E946E14882369F08F8198852A853B8570
:102CA000232BF1F19F3F09F063C08F3F09F060C013
:102CB00037C086E0FE013796DE01119601900D9235
:102CC0008A95E1F76F817885EA85FB85309741F138
:102CD0007F3F11F46F3F21F12091800230E0C90164
:102CE00001968770992740917F0250E084179507DD
:102CF00009F447C069837A83FD83EC8396E0929F51
:102D0000D001939FB00D1124AF57BD4FFE013196F6
:102D100001900D929A95E1F7809380020E94E4134E
:102D200016E080917F02909180028917C1F1189F6F
:102D3000C00111248F579D4F0E946E14882379F192
:102D4000E0917F021E9FF0011124EF57FD4F40815B
:102D5000518162817381848195810E94D413809115
:102D60007F0290E001968770992780937F02D9CFE8
:102D70004F81588569857A858B859C850E94D413FF
:102D8000CFCF0E9497131092800210927F02E1EB46
:102D9000F2E086E0DF011D928A95E9F7C1CF2C961B
:102DA0000FB6F894DEBF0FBECDBFDF91CF911F915C
:102DB0000895EF92FF920F931F93CF93DF938C01AF
:102DC000009709F46CC0F12CEE24E394E8012196FD
:102DD000F8018491843740F4843008F051C0813088
:102DE00081F0823019F15BC0853709F444C0A8F145
:102DF0009CE7980F903708F052C08F770E94B4106C
:102E000041C00E5F1F4FFE01C49180E28C0F8830DD
:102E100048F4C7708E2D01C0880FCA95EAF70E944A
:102E20006B1914C08C2F0E94EC0F2DC00E5F1F4F2A
:102E3000FE01C49180E28C0F883058F4C7708E2D4B
:102E400001C0880FCA95EAF70E9471190E94921971
:102E50001AC08C2F0E94B41016C00E5F1F4FFE01C7
:102E6000C491CC2381F08FE99FE00197F1F700C076
:102E70000000C150F6CF0E5F1F4FFE01F49003C05B
:102E80000E94EC0F8E018F2D882309F49FCFEFE96C
:102E9000FFE03197F1F700C000008150F5CFDF91DE
:102EA000CF911F910F91FF90EF9008950895609337
:102EB000BB027093BC028093BD029093BE020C943F
:102EC00083130F931F930091BB021091BC022091BA
:102ED000BD023091BE02DC01CB01802B912BA22BD5
:102EE000B32B8093BB029093BC02A093BD02B0931E
:102EF000BE021F910F910C9483130F931F930091A7
:102F0000BB021091BC022091BD023091BE02DC01D7
:102F1000CB0180239123A223B3238093BB02909300
:102F2000BC02A093BD02B093BE021F910F910C94FE
:102F300083130F931F930091BB021091BC02209149
:102F4000BD023091BE02DC01CB0180279127A22770
:102F5000B3278093BB029093BC02A093BD02B093B1
:102F6000BE021F910F910C9483131092B70210921E
:102F7000B8021092B9021092BA020C94831341E085
:102F800050E060E070E004C0440F551F661F771FDB
:102F90008A95D2F74093B7025093B8026093B90272
:102FA0007093BA020C94831341E050E060E070E04B
:102FB00004C0440F551F661F771F8A95D2F7809172
:102FC000B7029091B802A091B902B091BA02482B11
:102FD000592B6A2B7B2B4093B7025093B802609316
:102FE000B9027093BA020C94831341E050E060E0A0
:102FF00070E004C0440F551F661F771F8A95D2F7F3
:1030000040955095609570958091B7029091B80267
:10301000A091B902B091BA02482359236A237B23B5
:103020004093B7025093B8026093B9027093BA020A
:103030000C94831341E050E060E070E004C0440F62
:10304000551F661F771F8A95D2F78091B70290911E
:10305000B802A091B902B091BA02482759276A274D
:103060007B274093B7025093B8026093B9027093E4
:10307000BA020C9483130F931F930091B70210911F
:10308000B8022091B9023091BA02DC01CB01802B49
:10309000912BA22BB32B8093B7029093B802A093ED
:1030A000B902B093BA021F910F910C9483130F933E
:1030B0001F930091B7021091B8022091B90230918C
:1030C000BA02DC01CB0180239123A223B323809396
:1030D000B7029093B802A093B902B093BA021F91BD
:1030E0000F910C9483130F931F930091B7021091CB
:1030F000B8022091B9023091BA02DC01CB018027DD
:103100009127A227B3278093B7029093B802A09388
:10311000B902B093BA021F910F910C9483130895D2
:10312000CF92DF92EF92FF920F931F93CF93DF9393
:103130008C01C090BB02D090BC02E090BD02F09028
:10314000BE028091B7029091B802A091B902B091ED
:10315000BA02C82AD92AEA2AFB2ACFE1D0E0D7014D
:10316000C6010C2E04C0B695A795979587950A942D
:10317000D2F780FF06C0B8018C2F0E944C05019742
:1031800021F4219760F780E001C08C2FDF91CF916F
:103190001F910F91FF90EF90DF90CF900895CF9304
:1031A000DF93EC010E949018BE010E944C05DF9154
:1031B000CF910895CB010E94CF1808958091BF024E
:1031C00085958595859508958091BF0287700895AE
:1031D00098E0899F90011124262B2093BF020C9424
:1031E000D4172091BF02809582238093BF02982F2D
:1031F000977069F430E0482F552747FD5095241704
:10320000350729F08595859585950C94F5170895D2
:103210009091BF02977081E009F480E008952091B9
:103220000C0130910D01F90132969FEF40E0519170
:10323000581789F09F3F19F4511101C0942F4F5F27
:103240004630A9F79F3F39F0F901E90FF11D97FDCD
:10325000FA9582830895089520910C0130910D0113
:10326000F9013296285F3F4F9081981301C0108278
:103270003196E217F307C1F7089581E090E0E091FD
:103280000C01F0910D01E80FF91F108201968830B2
:103290009105A9F708959091CB02892B8093CB02D9
:1032A000089580959091CB0289238093CB02089555
:1032B0001092CB0208959091CA02892B8093CA0282
:1032C000089580959091CA0289238093CA02089537
:1032D0001092CA0208959091C902892B8093C90265
:1032E000089580959091C90289238093C902089519
:1032F0001092C90208958093C00208951092C002EE
:10330000089580910C0190910D01FC0131969C0172
:10331000285F3F4F80E0919191118F5FE217F30793
:10332000D1F70895E0910C01F0910D018091CB024D
:103330008083E0910C01F0910D0190818091CA028F
:10334000892B8083E0910C01F0910D019081809197
:10335000C902892B80838091C002882361F0E091AB
:103360000C01F0910D019081892B80830E948119BD
:1033700081111092C00280910C0190910D010C946A
:10338000C10E0E94971380E00E94D6010E94722015
:103390000E94B50E0C94E7051F920F920FB60F9284
:1033A00011248F939F93AF93BF938091CD0281118E
:1033B00013C08091CE029091CF02A091D002B09123
:1033C000D1024196A11DB11D8093CE029093CF02F0
:1033D000A093D002B093D102BF91AF919F918F91F2
:1033E0000F900FBE0F901F90189582E084BD93E060
:1033F00095BD9AEF97BD80936E0008952FB7F8940E
:103400008091CE029091CF02A091D002B091D102D2
:103410002FBF0895CF92DF92EF92FF920F931F93E9
:103420002FB7F8944091CE025091CF026091D00214
:103430007091D1022FBF6A017B01EE24FF248C0121
:1034400020E030E0C016D106E206F30610F4415049
:1034500051099A01281B390BC9011F910F91FF9047
:10346000EF90DF90CF9008951F920F920FB60F92BA
:1034700011248F939F93AF93BF938091CE0290912D
:10348000CF02A091D002B091D1020196A11DB11D31
:103490008093CE029093CF02A093D002B093D1023A
:1034A000BF91AF919F918F910F900FBE0F901F9082
:1034B00018950E946A0BF8942FEF87EA91E6215045
:1034C00080409040E1F700C0000087E090EBDC0115
:1034D0008093EC029093ED02A093EE02B093EF0282
:1034E0009CE088E10FB6F894A895809360000FBE29
:1034F00090936000FFCFCF92DF92EF92FF920F93F5
:103500001F93CF93DF93D82FC3E0EE24E394F12CE5
:103510008C2F0E94BD066C010CE010E09701002E7C
:1035200002C0220F331F0A94E2F72C213D21232BE6
:1035300049F0602F7C2F80E00E94CC02D81302C09B
:1035400081E006C00150110948F7C15008F780E03A
:10355000DF91CF911F910F91FF90EF90DF90CF906F
:103560000895CF93C82F8CE20E947B1A882321F004
:103570008C2FCF910C947B1A80E0CF910895CF933C
:103580000E94041C811102C00E94E51BC5E6C150C7
:1035900049F00E9442068FE39CE90197F1F700C0D1
:1035A0000000F5CF89E20E94B11A81110CC18AE2B4
:1035B0000E94B11A81110E94E51B85E00E94B11A98
:1035C00081110E94591A0E940F1C8093CC0287E03F
:1035D0000E94B11A8823A9F18BE10E94B11A8823B5
:1035E00051F08091CC0281FB222720F991E09227B3
:1035F00090FB81F90EC08EE00E94B11A882361F021
:103600008091CC0282FB222720F991E0922790FB47
:1036100082F98093CC0215C080E10E94B11A90918A
:10362000CC02882341F093FB222720F981E08227F6
:1036300080FB93F904C0892F809580FB90F99093CB
:10364000CC028091CC020E94131C0E94211C80930A
:10365000EA0280EE0E94B11A882341F08091EA02CA
:10366000982F909590FB80F98093EA0289E30E945D
:10367000B11A882359F08091EA0281FB222720F9B0
:1036800091E0922790FB81F98093EA0282EE0E94FA
:10369000B11A882359F08091EA0282FB222720F98F
:1036A00091E0922790FB82F98093EA0286EE0E94D5
:1036B000B11A882359F08091EA0283FB222720F96E
:1036C00091E0922790FB83F98093EA0283EE0E94B7
:1036D000B11A882359F08091EA0284FB222720F94D
:1036E00091E0922790FB84F98093EA0285E30E949F
:1036F000B11A882359F08091EA0285FB222720F92C
:1037000091E0922790FB85F98093EA0281E30E9481
:10371000B11A882359F08091EA0286FB222720F90A
:1037200091E0922790FB86F98093EA0281E10E9462
:10373000B11A882359F08091EA0287FB222720F9E9
:1037400091E0922790FB87F98093EA028091EA0248
:103750000E94251C87E20E94B11AC82F8EE10E94A8
:10376000B11A8111C2608FE10E94B11A8111C46047
:1037700080E20E94B11A8111C86081E20E94B11AF0
:103780008111C06182E20E94B11A8111C06283E29C
:103790000E94B11A8111C06484E20E94B11A882388
:1037A00011F0C06802C0CC2329F08C2F0E941C1C91
:1037B0006C2F03C00E94181C682F70E080E090E01E
:1037C000CF910C945717CF9108956DEE7EEF80E066
:1037D00090E00E94852260E082E090E00E947322E7
:1037E00060E083E090E00E94732260E084E090E07B
:1037F0000E94732260E085E090E00E94732260E006
:1038000086E090E00C94732280E090E00E946D22AC
:1038100021E08D3E9E4F09F020E0822F089582E046
:1038200090E00C946522682F82E090E00C94732263
:1038300083E090E00C946522682F83E090E00C9484
:10384000732284E090E00C946522682F84E090E07D
:103850000C94732286E090E00C946522682F86E039
:1038600090E00C9473228091D40280FF0BC0609191
:10387000110185E0689FB0011124759567957595D4
:1038800067952BC081FF09C06091110185E0689F99
:10389000B00111247595679520C082FF07C0609123
:1038A000110185E0689FB001112417C09091D502E5
:1038B0009923D1F060911001961788F7209111019A
:1038C00085E0289F90011124929FA001939F500DA5
:1038D000112470E0CA010E9437226038710540F45B
:1038E0006115710539F002C065E070E0862F08951A
:1038F0008FE7089581E008958091D40280FF08C089
:1039000060910F0170E0759567957595679521C079
:1039100081FF06C060910F0170E07595679519C031
:1039200082FF04C060910F0170E010C09091D50239
:103930009923C1F060910E019617A0F780910F01B5
:10394000899FC001112470E00E9437226038710500
:1039500028F46115710521F0862F08958FE70895E9
:1039600081E0089561E070E0F4CF803F21F40E948F
:10397000331C819504C0813F29F40E94331C80933D
:10398000D8020895823F21F40E94331C819504C01F
:10399000833F29F40E94331C8093D7020895893F06
:1039A00019F40E947C1C05C08A3F31F40E947C1CE3
:1039B00081958093D90208958B3F21F40E947C1C4D
:1039C000819504C08C3F29F40E947C1C8093DA020C
:1039D0000895843F21F48091D602816017C0853F0D
:1039E00021F48091D602826011C0863F21F480913B
:1039F000D60284600BC0873F21F48091D602886094
:103A000005C0883F31F48091D60280618093D60250
:103A100008958D3F21F48091D40281600BC08E3FC8
:103A200021F48091D402826005C08F3F29F48091F7
:103A3000D40284608093D4020895803F39F4809149
:103A4000D80287FF6CC01092D80269C0813F29F468
:103A50008091D8021816BCF362C09091D702823FC1
:103A600029F497FF5CC01092D70259C0833F19F424
:103A70001916CCF354C0893F41F48091D90218162D
:103A80000CF04DC01092D9024AC08A3F29F48091AF
:103A9000D90287FF44C0F6CF8B3F39F48091DA0218
:103AA00087FF3DC01092DA023AC08C3F29F4809122
:103AB000DA021816BCF333C0843F21F48091D60299
:103AC0008E7F17C0853F21F48091D6028D7F11C073
:103AD000863F21F48091D6028B7F0BC0873F21F473
:103AE0008091D602877F05C0883F31F48091D6024D
:103AF0008F7E8093D60213C08D3F21F48091D40233
:103B00008E7F0BC08E3F21F48091D4028D7F05C043
:103B10008F3F29F48091D4028B7F8093D4028091CF
:103B2000D70281110EC08091D80281110AC0809104
:103B3000D902811106C08091DA02811102C010926F
:103B4000D502089586ED92E00E94CC0E0E94FE19E7
:103B50009093D3028093D20208951F93CF93DF9363
:103B60008091D2029091D3020E940A1AAC019091E6
:103B7000D502992321F02091120130E006C0209156
:103B800013018AE0289F900111244217530708F47B
:103B900086C08091D702C091D802D091D9021091ED
:103BA000DA02811107C0C11176C0D11174C01111A0
:103BB00072C075C09F3F19F09F5F9093D502181691
:103BC00024F40E94331C8093D7028091D70287FF90
:103BD00005C00E94331C81958093D7021C1624F4E3
:103BE0000E94331C8093D8028091D80287FF05C0C1
:103BF0000E94331C81958093D8026091D70266237E
:103C000039F1C091D802CC2319F1772767FD70955F
:103C1000872F972F0E943C2123E333E343E35FE3A5
:103C20000E94A0210E9409216093D7026C2F772760
:103C300067FD7095872F972F0E943C2123E333E384
:103C400043E35FE30E94A0210E9409216093D80210
:103C50001D1624F40E947C1C8093D9028091D90205
:103C600087FF05C00E947C1C81958093D9021116A4
:103C700024F40E947C1C8093DA028091DA0287FF90
:103C800005C00E947C1C81958093DA02DF91CF9160
:103C90001F910C94A21D9F3F09F08ECF96CFDF910C
:103CA000CF911F910895E6EDF2E085E0DF011D92CE
:103CB0008A95E9F71092D5021092D40208958330C4
:103CC00081F128F4813059F08230D1F008958530A7
:103CD00009F449C0B8F1863009F456C008958091BE
:103CE0001301262F30E0280F311D2F3F310524F41A
:103CF000680F6093130108958FEF80931301089567
:103D000080911201262F30E0280F311D2F3F310501
:103D100024F4680F6093120108958FEF80931201CD
:103D2000089580911101262F30E0280F311D2F3F7B
:103D3000310524F4680F6093110108958FEF80938B
:103D40001101089580911001262F30E0280F311DB8
:103D50002F3F310524F4680F6093100108958FEF11
:103D600080931001089580910F01262F30E0280FD5
:103D7000311D2F3F310524F4680F60930F01089522
:103D80008FEF80930F01089580910E01262F30E070
:103D9000280F311D2F3F310524F4680F60930E0169
:103DA00008958FEF80930E010895833011F128F468
:103DB000813049F0823091F00895853081F120F111
:103DC0008630C1F1089580911301681720F4861B95
:103DD00080931301089510921301089580911201A8
:103DE000681720F4861B8093120108951092120127
:103DF000089580911101681720F4861B80931101AA
:103E0000089510921101089580911001681720F40F
:103E1000861B8093100108951092100108958091DF
:103E20000F01681720F4861B80930F0108951092EC
:103E30000F01089580910E01681720F4861B80936E
:103E40000E01089510920E0108950F931F9387326B
:103E500008F040C08E3108F08AC08E3009F474C07A
:103E6000C0F4873009F45EC068F4863009F09AC067
:103E70008091CC02817F8E7F8093CC0281E0809301
:103E8000DC0291C0883009F486C08B3009F483C00D
:103E900089C0863109F47FC068F4803109F082C09E
:103EA0008091CC0283FB222720F991E0922790FB9E
:103EB00083F953C0893109F46EC08B3109F072C0A7
:103EC0008091CC0281FB222720F991E0922790FB80
:103ED00081F943C0883309F45EC050F4893209F493
:103EE0005CC0853309F459C0873209F456C05AC002
:103EF000833409F452C028F48A3308F453C0895338
:103F000037C0883409F04EC00E9497130FEF13EDAD
:103F100020E3015010402040E1F700C000000E9463
:103F2000591A39C09091CC02892F8095817080FBFD
:103F300090F929F0966098609093CC0234C0997FF4
:103F4000977F9093CC0227C08091CC0282FB2227DE
:103F500020F991E0922790FB82F98093CC0299237B
:103F6000D1F08091CC0281608093CC0214C08D513D
:103F700041E050E060E070E08A019B0104C0000F66
:103F8000111F221F331F8A95D2F7C901B8010E9461
:103F900057170E94971381E006C061E070E080E04F
:103FA00090E0F5CF80E01F910F91089580E0089593
:103FB00080E00895CF93C82F8091DC02813069F0B2
:103FC00018F08230C9F184C0E0910C01F0910D012C
:103FD0008081823209F07EC007C0E0910C01F0912F
:103FE0000D018081823261F48C2F0E94D61F8111D5
:103FF00004C08C2F0E94251F1DC081E090E01AC0D4
:104000008C2F0E94D81F811114C0C43179F048F45C
:10401000CB3079F0C03109F061C082E08093DC02DE
:1040200008C0C93219F0C83321F058C01092DC0220
:1040300055C081E0817054C0C93291F120F5C4317E
:1040400079F1B0F4C73009F047C08EE180931301D5
:1040500082E3809312018AE08093110184E18093CE
:10406000100188E080930F0188E280930E0134C034
:10407000CE51C63088F5EC2FF0E0E75CFE4F808132
:104080008093DB0229C0CE34E9F020F4CB3421F553
:104090006AE013C0C13579F0C235F1F461E00DC0BA
:1040A0008091DB02882319F01092DB0215C081E0B9
:1040B0008093DC0215C061E006C08091DB020E94A3
:1040C0005F1E0AC06AE08091DB020E94D51E04C018
:1040D0001092DC0280E004C081E002C080E0AACF40
:1040E000CF9108950E94041C811102C00E94E51B1B
:1040F0000E942A1C8093EB0280FF02C0869501C0BB
:1041000080E00C94D6018091EB02982F9695292F90
:1041100030E0233031054CF49F5F990F8170892B7B
:1041200081608093EB020E942E1C8091EB028695A9
:104130000C94D6018091EB02982F969591F09158AE
:10414000990F8170892B8093EB028E7F91E009F4A7
:1041500090E08091EB0290FB80F98093EB020E944B
:104160002E1C8091EB0286950C94D6018091EB0277
:10417000982F909590FB80F98093EB020E942E1C63
:104180008091EB0280FF02C0869501C080E00C9414
:10419000D6019091EB02892F86958F5F8F77917072
:1041A000843028F4880F892B8093EB0202C090930F
:1041B000EB028091EB028E7F91E009F490E0809118
:1041C000EB0290FB80F98093EB020E942E1C809101
:1041D000EB0286950C94D6012091EB02922F9695D6
:1041E0008927982F990F822F8170892B8093EB025A
:1041F0008E7F91E009F490E08091EB0290FB80F9D2
:104200008093EB020E942E1C8091EB0286950C9409
:10421000D60104D06894B1118DC0089570D088F093
:104220009F5790F0B92F9927B751A0F0D1F0660FA2
:10423000771F881F991F1AF0BA95C9F712C0B130BD
:1042400081F077D0B1E0089574C0672F782F882768
:10425000B85F39F0B93FCCF3869577956795B395FC
:10426000D9F73EF490958095709561957F4F8F4F6B
:104270009F4F0895E89409C097FB3EF49095809570
:10428000709561957F4F8F4F9F4F9923A9F0F92F1C
:1042900096E9BB279395F695879577956795B7959A
:1042A000F111F8CFFAF4BB0F11F460FF1BC06F5F80
:1042B0007F4F8F4F9F4F16C0882311F096E911C092
:1042C000772321F09EE8872F762F05C0662371F0B3
:1042D00096E8862F70E060E02AF09A95660F771FC7
:1042E000881FDAF7880F9695879597F9089557FDF7
:1042F0009058440F551F59F05F3F71F04795880F54
:1043000097FB991F61F09F3F79F0879508951216EA
:1043100013061406551FF2CF4695F1DF08C0161696
:1043200017061806991FF1CF869571056105089447
:104330000895E894BB2766277727CB0197F908955E
:104340000BD078C069D028F06ED018F0952309F012
:104350005AC05FC01124EECFCADFA0F3959FD1F3FE
:10436000950F50E0551F629FF001729FBB27F00D23
:10437000B11D639FAA27F00DB11DAA1F649F662778
:10438000B00DA11D661F829F2227B00DA11D621FC7
:10439000739FB00DA11D621F839FA00D611D221F81
:1043A000749F3327A00D611D231F849F600D211D65
:1043B000822F762F6A2F11249F5750408AF0E1F008
:1043C00088234AF0EE0FFF1FBB1F661F771F881F51
:1043D00091505040A9F79E3F510570F014C0AACFEC
:1043E0005F3FECF3983EDCF3869577956795B7953C
:1043F000F795E7959F5FC1F7FE2B880F911D969566
:10440000879597F9089597F99F6780E870E060E0D5
:1044100008959FEF80EC089500240A94161617065D
:1044200018060906089500240A94121613061406A5
:1044300005060895092E0394000C11F4882352F008
:10444000BB0F40F4BF2B11F460FF04C06F5F7F4FC0
:104450008F4F9F4F0895991B79E004C0991F9617BD
:1044600008F0961B881F7A95C9F78095089597FBE9
:10447000072E16F4009407D077FD09D00E94512230
:1044800007FC05D03EF4909581959F4F0895709557
:1044900061957F4F0895EE0FFF1F0590F491E02D79
:1044A0000994AA1BBB1B51E107C0AA1FBB1FA6177B
:1044B000B70710F0A61BB70B881F991F5A95A9F7CD
:1044C00080959095BC01CD010895F999FECF92BDDC
:1044D00081BDF89A992780B50895A8E1B0E042E03F
:1044E00050E00C948D22262FF999FECF92BD81BD0C
:1044F000F89A019700B4021639F01FBA20BD0FB622
:10450000F894FA9AF99A0FBE08950196272F0E94FF
:1045100074220C947322DC01CB01FC01F999FECFCB
:1045200006C0F2BDE1BDF89A319600B40D9241503B
:0A4530005040B8F70895F894FFCF4B
:10453A00FFC706F107AD077907CA0601C1022808B5
:10454A00140A321E4F795363667649695909192943
:10455A00030F1F5F43404D3620BF0272023C021C0C
:10456A0002A801C101DA01F30101020304050607E9
:04457A00080900002C
:00000001FF
