:100000000C941D050C9461050C9461050C9461051C
:100010000C9461050C9461050C9461050C946105C8
:100020000C9461050C9461050C94D2180C94A419DD
:100030000C940F270C9461050C9461050C946105D8
:100040000C9461050C94C2050C9461050C94610537
:100050000C9461050C9477270C9461050C94610550
:100060000C9461050C9461050C9461050C94610578
:100070000C9461050C9461050C9461050C94610568
:100080000C94B80E0C9461050C9461050C946105F8
:100090000C9461050C9461050C9461050C94610548
:1000A0000C9461050C9461050C9461052A063C06CC
:1000B0005006620671067B06CF06CF06CF06CF0636
:1000C000CF06CF068906B906CB06111A381A2A1BA5
:1000D000381A2A1B841AA71A2A1BFD1A0C1BF61D94
:1000E000F61D251E251E641E841EDA1FDA1F8F1EB4
:1000F000DA1F3F1F3F1FA61FAF1FDA1FD41F4C1F61
:100100004C1F4C1F4C1F4C1F4C1F4C1F4C1F4C1F97
:100110004C1F4C1F4C1F4C1F4C1F4C1F4C1F5C1F77
:100120006A1F711F781F821F07634236B79BD8A7CB
:100130001A39685618AEBAAB558C1D3CB7CC57630C
:10014000BD6DEDFD753EF6177231BF000000803FBA
:1001500008000000BE922449123EABAAAA2ABECDD6
:10016000CCCC4C3E00000080BEABAAAAAA3E000048
:100170000000BF000000803F000000000008417840
:10018000D3BB4387D1133D190E3CC3BD4282AD2B77
:100190003E68EC8276BED98FE1A93E4C80EFFFBE6F
:1001A00001C4FF7F3F0000000000000000000000CD
:1001B0000000000000010204060A0F17202C3A4A32
:1001C0005D71879DB3C7DAE9F5FCFFFCF5E9DAC795
:1001D000B39D87715D4A3A2C20170F0A060402016D
:1001E00000000000000000000000010801150109E6
:1001F00001190112010F0208021502090219021267
:10020000020F002B0014001A000800150017001C34
:100210000018000C00120013002A00290004001628
:1002200000070009000A000B000D000E000F00334C
:10023000003400E1001D001B00060019000500113C
:1002400000100036003700380028000530E000E2DA
:1002500000E30003302C002C000430500051005209
:10026000004F002B0014001A00090013000A000DB3
:10027000000F0018001C0033002A0029000400159C
:10028000001600170007000B00110008000C0012F8
:10029000003400E1001D001B000600190005000EDF
:1002A00000100036003700380028000530E000E27A
:1002B00000E30003302C002C0004305000510052A9
:1002C000004F002B0034003600370013001C0009DB
:1002D000000A00060015000F002A00290004001281
:1002E00000080018000C0007000B00170011001692
:1002F000003800E100330014000D000E001B000563
:100300000010001A0019001D0028000530E000E26E
:1003100000E30003302C002C000430500051005248
:10032000004F0035021E021F02200221022202237A
:100330000224022502260227022A004C003A003B32
:10034000003C003D003E003F002D022E022F0230F7
:1003500002310201004000410042004300440045D8
:1003600000320264020100010001000100010001ED
:100370000001000100010001000100AB00AA00A97A
:1003800000AE0035001E001F0020002100220023C7
:100390000024002500260027002A004C003A003BDC
:1003A000003C003D003E003F002D002E002F00309D
:1003B000003100010040004100420043004400457C
:1003C0000032006400010001000100010001000191
:1003D0000001000100010001000100AB00AA00A91A
:1003E00000AE001E001E001E001E001E001E001E8D
:1003F000001E001E001E001E001E00000014001A39
:10040000000800150017001C0018000C0012001353
:10041000002F000E3004001600070009000A000B30
:10042000000D000E000F00330034000D30000000FE
:10043000000600190000000000110010000000007C
:1004400000000000000000000000000000000000AC
:10045000000000000000000000000000000000009C
:10046000000000000000000000000000000000008C
:10047000000000000000000000000000000000007C
:100800000000000100005001000100010001000192
:100810000001000100010001004C00010001000185
:100820000020502150135012500030013002300C83
:100830003001000100275026502350245028502911
:100840005001000100010001000100010001000150
:100850000001000100010001000100010001000190
:100860000001002803540068006500200050006C5F
:100870000061006E0063006B0020004B0065007992
:100880000062006F0061007200640000002C034FE2
:10089000007200740068006F006C0069006E0065F3
:1008A000006100720020004B006500790062006F5B
:1008B0000061007200640073000000040309040971
:1008C000026D00040100A0FA090400000103010107
:1008D00000092111010001224000070581030800E1
:1008E0000A090401000103010200092111010001AC
:1008F000224D000705820308000A090402000103D3
:1009000000000009211101000122360007058303C0
:1009100008000A0904030001030000000921110175
:1009200000012239000705840310000112011001A3
:1009300000000008EDFE60600100010200010501F9
:100940000906A101050719E029E715002501950809
:1009500075018102050819012905950575019102A6
:1009600095017503910105071900297715002501E7
:10097000957875018102C005010980A101850216E3
:10098000010026B7001A01002AB7007510950181F1
:1009900000C0050C0901A1018503160100269C0277
:1009A0001A01002A9C02751095018100C0050109F9
:1009B00002A1010901A10005091901290515002558
:1009C00001950575018102950175038101050109F4
:1009D0003009311581257F95027508810609381582
:1009E00081257F950175088106050C0A380215815D
:1009F000257F950175088106C0C005010906A10182
:100A0000050719E029E71500250195087501810200
:100A100095017508810105081901290595057501DC
:100A200091029501750391010507190029FF150031
:100A300026FF00950675088100C011241FBECFEF68
:100A4000DAE0DEBFCDBF04B603FE24C080918E0481
:100A500090918F04A0919004B09191048730904BB5
:100A6000A740B04BB9F410928E0410928F041092EC
:100A700090041092910414BE84B7877F84BF88E1EC
:100A80000FB6F89480936000109260000FBEE0E013
:100A9000F8E3099513E0A0E0B1E0E2E8F2E602C075
:100AA00005900D92A033B107D9F714E0A0E3B3E0AD
:100AB00001C01D92AE38B107E1F70E941C160C94DC
:100AC0003F310C940000089581E0089508950C943E
:100AD00063050C9464050C9466050E94092D23E0BF
:100AE00030E0281B3109220F209334030895282F6A
:100AF0002F9880918000211108C0877F809380000B
:100B000010928D0010928C001BC088608093800032
:100B1000233019F48FEF9FEF0FC083E090E0821B2A
:100B20009109880F991F2FEF3FEFA90102C0569539
:100B300047958A95E2F7CA0190938D0080938C00C7
:100B40000C946D050E946D0584E080933303109230
:100B500030030895279A2F988FEF9FEF9093870087
:100B6000809386008AE08093800089E180938100F1
:100B70000E94722C0C94A2050E94AA056E9A769A85
:100B80000C94EF061F920F920FB60F9211242F9321
:100B90003F938F939F93EF93FF93E0913103F091F5
:100BA0003203CF010196909332038093310300907A
:100BB000330302C0F695E7950A94E2F7EF7380914C
:100BC0003003823019F4E03251F404C0813039F43A
:100BD000EF3329F480916F008D7F80936F00F0E0F8
:100BE000E655FE4FE49121E031E0E29FC001E39F32
:100BF000900D11240090340302C0969587950A94B5
:100C0000E2F790938D0080938C00FF91EF919F917C
:100C10008F913F912F910F900FBE0F901F901895BD
:100C2000CF93DF93EC010E941028BE0180E090E09A
:100C3000DF91CF910C9405240F931F93462F50E022
:100C40004F30510508F0ABC0DC01FA01EA5AFF4F02
:100C50000C94033112968C91882309F4A0C000E013
:100C600010E0980140E064E070E088E292E00E94C9
:100C7000361281E090E011C012968C91882309F41D
:100C80008EC000E010E0980140E066E070E088EB84
:100C900091E00E94361282E090E00E9410067FC030
:100CA00012968C91882309F47AC000E010E0980134
:100CB00040E068E070E088EE91E00E94361284E047
:100CC00090E0EBCF12968C91882311F083E00EC058
:100CD00083E00E94A32440E164E083E00E949B0C37
:100CE0005EC012968C91882321F084E00E948224B9
:100CF000F2CF84E0EECF12968C91882331F085EE0E
:100D00000E949A1C0E94C92C4AC085EE0E94621D56
:100D100046C012968C91882309F441C00E94EB0DC5
:100D200000E010E0980140E066E070E088E891E0C3
:100D30000E94361284E00E94A32483E00E94A32430
:100D400080E10E94A32485E00E9482240E94FD2766
:100D5000811102C00E94D9270E94152890E090932B
:100D60008D0480938C04806880938C040E941928E1
:100D700016C012968C91882391F000E010E0980143
:100D800040E066E070E088E591E00E94361285E080
:100D90000E94A32404C012968C91811103C080E0AC
:100DA00090E002C08AEE91E01F910F9108950F9399
:100DB0001F932FEF89EF90E0215080409040E1F7A2
:100DC00000C0000000E010E0980140E065E070E045
:100DD00088E492E00E9436121F910F9108950C94BE
:100DE000D7060F931F9300E010E0980140E063E006
:100DF00070E080E091E00E9436122FEF82E597E0EC
:100E0000215080409040E1F700C000001F910F91F9
:100E10000C94EB0D0F931F9300E010E0980140E05D
:100E200068E070E088E191E00E9436121F910F9116
:100E300008950C940A0781E008950C941B07089507
:100E40000C94BC0580918503882309F448C08091E7
:100E5000410390914203009779F40E9441279093B7
:100E60004203809341038091430390E0009771F423
:100E70008091440390E00AC00E944D2720917002A7
:100E8000309171022817390740F329C00197880F64
:100E9000991F880F991FFC01EB5BFC4F60817181EA
:100EA000828193810E941E0EE091430384E0E89FBB
:100EB000F0011124EB5BFC4F608171818281938191
:100EC0004FE050E00E94D6118091430390E00196DC
:100ED0006091440370E00E94EF30809343030C94D0
:100EE0006705109287030C94EB0D81E080938703D4
:100EF0000C94190708958F929F92AF92BF92EF9230
:100F0000FF920F931F93CF93DF93CDB7DEB7A397D5
:100F10000FB6F894DEBF0FBECDBF7C01FC0100818F
:100F20001181C8010E943E25B8010E947D098C01F3
:100F3000B7010E941D07882309F4CCC10032F0E5F7
:100F40001F0741F4F7018281882309F458C00E94E9
:100F5000CD12C0C10132F0E51F0741F4F7018281D3
:100F6000882309F44CC00E94D612B4C10232F0E5C5
:100F70001F0751F4F7018281882309F440C00E94C1
:100F8000C9128111F0CFE3CF0332F0E51F0739F426
:100F9000F7018281882399F10E9475079BC1043271
:100FA000F0E51F0739F4F7018281882341F10E949F
:100FB000710790C10532F0E51F0749F4F7018281FE
:100FC0008823E9F0809187038111F1CFE5CF0632C4
:100FD000F0E51F0739F4F7018281882381F00E9430
:100FE000DD120AC00732F0E51F0749F4F7018281DC
:100FF000882329F00E94E8120E940A076BC18091A1
:101000008703811105C0F70182818111CFC018C10A
:10101000003E110579F4F7018281882309F44DC05F
:101020000E94EB0D81E0809386031092850310925D
:10103000440350C1023E110559F4F701828188230F
:10104000E1F10E94EB0D109286031092850342C1DC
:10105000033E110591F4F7018281882371F10E940A
:10106000EB0D1092860381E0809385031092430379
:1010700010924203109241032DC10235110559F41B
:10108000F7018281882309F425C180917002909133
:1010900071020A970DC00135110579F4F7018281BB
:1010A000882309F417C180917002909171020A9609
:1010B00090937102809370020DC14091740283E29B
:1010C000EFE8F2E0DE01119601900D928A95E1F7CA
:1010D000F701808121E030E02C0F3D1F280F311DEA
:1010E000C9012091720230917302FC01E20FF31FDB
:1010F0006081772767FD7095640F711D882777FDE4
:101100008095982F0E94112E20E030E040E451E4B9
:101110000E94762D4B015C01F701218184E090E073
:10112000821B9109BC01882777FD8095982F0E942A
:10113000112E9B01AC01C501B4010E940E2D9B0133
:10114000AC0160E070E080E090E40E94842F20E039
:1011500030E04CED50E40E94212F4B015C01F7017F
:1011600082818823D1F04FE050E0C501B4010E9494
:10117000D611809186038823A1F08091440324E056
:10118000829FF0011124EB5BFC4F80829182A2824E
:10119000B3828F5F8093440304C0C501B4010E94F1
:1011A0001E0E0F3F110508F02ECF94C08091400312
:1011B00081111FC0043130E5130709F051C00E94AE
:1011C0001F0781E0809340030E94412790933F03D3
:1011D00080933E0310923703109239031092380324
:1011E00010923B0310923A0310923D0310923C037D
:1011F00071C080913E0390913F030E944D27883C2F
:10120000910570F480913703E82FF0E0EE0FFF1F97
:10121000E85CFC4F118300838F5F809337035AC0D3
:10122000043880E5180721F00538104501F13AC06F
:10123000F7018281882341F01092350382E01EC0BD
:10124000043830E5130759F580913503811106C044
:1012500086E20E949A1C86E20E94621D82E01CC007
:101260000438F0E51F0741F305381045D9F4F701BC
:101270008281882331F01092360380E20E94B11DF2
:1012800029C080913603811106C087E20E949A1C12
:1012900087E20E94621D80E20E94B81D1BC00538D3
:1012A000104529F381E08093350380933603C7010D
:1012B000A3960FB6F894DEBF0FBECDBFDF91CF91DE
:1012C0001F910F91FF90EF90BF90AF909F908F90E4
:1012D0000C94690580E0A3960FB6F894DEBF0FBEAC
:1012E000CDBFDF91CF911F910F91FF90EF90BF90F5
:1012F000AF909F908F90089508959CE0799FF001A2
:10130000112490E3899FE00DF11D1124E60FF11DDA
:10131000EE0FFF1FED5FFD4F859194910895880FAB
:10132000991FFC01ED57FF4F859194910895880F07
:10133000991FFC01ED5FFD4F8591949108950F93E6
:101340001F93CF93DF93EC01811521E39207A0F562
:10135000C11580E3D80708F0D7C0C83ED105D8F43E
:10136000C03ED10508F007C2C83AD10578F4C53AA5
:10137000D10508F06AC0C130D10509F463C008F492
:10138000F7C1C430D10508F0F6C1F2C1CB3BD1059D
:1013900008F466C0EDC1C11590E2D90708F0AFC0EE
:1013A000C11521E0D20708F0E6C1C03FD10508F41D
:1013B000DFC18E0110651FC2C03880E5D80700F577
:1013C000C03790E5D90708F0A3C0C11520E5D207C2
:1013D00009F4ACC050F4CE01905480319F4008F025
:1013E000C7C1DF708E01106A06C2C13080E5D80720
:1013F00009F4AEC0C43190E5D90708F4AFC0B8C154
:10140000C33820E5D20709F48EC050F4C13890E506
:10141000D90709F482C008F083C000E011EDEBC1E8
:10142000C03181E5D80708F4A3C1C11597E5D907F4
:1014300008F436C1CE0190578115904108F098C14B
:10144000DF7093C101E010E0D6C1C53AD10509F4BF
:1014500094C1C63AD10509F093C102E810E4CBC1AA
:10146000C83AD10509F48FC1C93AD10509F48EC132
:10147000CA3AD10509F48DC1CB3AD10509F48CC122
:10148000CC3AD10509F48BC1CD3AD10509F48AC112
:10149000C03BD10509F489C1CE3AD10509F488C110
:1014A000CF3AD10509F487C1C13BD10509F486C102
:1014B000C23BD10509F485C1C33BD10509F484C100
:1014C000C43BD10509F483C1C53BD10509F482C1F0
:1014D000C63BD10509F481C1C73BD10509F480C1E0
:1014E000C83BD10509F47FC1C93BD10509F47EC1D0
:1014F000CA3BD10509F47DC100E014E47CC1CE01F2
:101500009F700E94970978C1DD278E01106C73C10E
:10151000CF70DD278E01146D6EC100E010ED6BC140
:1015200000E012ED68C100E013ED65C10E944520A6
:101530000E94EB0D0E94F1068FEF94E32CE08150A6
:1015400090402040E1F700C000000E949C2753C15A
:10155000809162048160809362044DC10E94FD27E6
:10156000811102C00E94D9270E94152890E0909313
:101570008D0480938C04C23080E5D80721F48091DB
:101580008C04816086C0C43090E5D90721F4809135
:101590008C0482607EC0C63020E5D20721F48091A1
:1015A0008C04846076C0C83080E5D80719F4809137
:1015B0008C0427C0CA3090E5D90721F480918C04AF
:1015C000806167C0CC3020E5D20721F480918C0483
:1015D00080625FC0CE3080E5D80721F480918C0412
:1015E000806457C0C03190E5D90721F480918C0404
:1015F00080684FC0C23120E5D20729F480918C0465
:101600008460886046C0C33080E5D80721F48091AB
:101610008C048E7F3EC0C53090E5D90721F48091BF
:101620008C048D7F36C0C73020E5D20721F480912D
:101630008C048B7F2EC0C93080E5D80719F48091C7
:101640008C0426C0CB3090E5D90721F480918C041E
:101650008F7E1FC0CD3020E5D20721F480918C040D
:101660008F7D17C0CF3080E5D80721F480918C049E
:101670008F7B0FC0C13190E5D90721F480918C0494
:101680008F7707C0C331D04531F480918C048B7FB4
:10169000877F80938C0480918C040E941928ABC0B2
:1016A0008D2F99278F70992781309105D9F49E014C
:1016B0002370332702C0880F991F2A95E2F79C6890
:1016C0008E0144E0000F111F4A95E1F700271370C7
:1016D000802B912B53E0CC0FDD1F5A95E1F7C0769C
:1016E000DD272FC08230910531F4DC2FCC278E010D
:1016F000016F106A80C08330910569F4CE01837058
:10170000992701E010E002C0000F111F8A95E2F74F
:10171000C8019C680FC084309105B9F4CE01837074
:10172000992701E010E002C0000F111F8A95E2F72F
:10173000C8019A6823E0CC0FDD1F2A95E1F7C07E2F
:10174000D7708C010C2B1D2B56C08530910531F4C0
:10175000DC2FCC278E01046F106A4DC0069709F06C
:101760004AC0CF71DD27DC2FCC278E01106243C029
:1017700000E010E040C08E013EC001E810E43BC034
:1017800003E810E438C002EE14E435C009EE14E4B6
:1017900032C00AEE14E42FC005EB14E42CC006EBB3
:1017A00014E429C007EB14E426C00CEC14E423C0B5
:1017B0000DEC14E420C003E815E41DC00AE815E4AC
:1017C0001AC002E915E417C004E915E414C001E2E7
:1017D00016E411C003E216E40EC004E216E40BC0E6
:1017E00005E216E408C006E216E405C007E216E4C6
:1017F00002C00AE216E4C801DF91CF911F910F9158
:1018000008959CE0799FF001112490E3899FE00DF9
:10181000F11D1124E60FF11DEE0FFF1FED5FFD4FCF
:1018200085919491803E9105E0F4803C910558F5B6
:101830008133910509F46FC048F48932910509F4A8
:1018400063C08A32910509F46DC072C08933910575
:10185000E9F082389105D1F08533910509F44DC046
:1018600067C0833E910581F138F4803E9105B9F05F
:10187000823E9105D9F05CC0863E910561F1873EBC
:101880009105A1F155C00E948F09089520918C0403
:1018900020FD02C021FF4CC080EE90E049C0809145
:1018A0008C0480FFF9CF89E390E042C080918C04E2
:1018B00082FF0EC080918C0484FF03C080E090E022
:1018C00037C083EE90E034C080918C0482FFF2CF69
:1018D00082EE90E02DC080918C0483FF0BC080913C
:1018E0008C0484FDEBCF87EE90E022C080918C04C5
:1018F00083FFF5CF86EE90E01BC080918C0485FFBE
:1019000007C089E290E014C080918C0485FFF9CF74
:1019100085E390E00DC080918C0486FF07C08AE2C9
:1019200090E006C080918C0486FFF9CF81E390E0BF
:101930000E949F090895CF92DF92EF92FF920F933A
:101940001F9301E010E020E030E06801790104C05D
:10195000CC0CDD1CEE1CFF1C8A95D2F704C0000FD6
:10196000111F221F331F6A95D2F70C291D292E291A
:101970003F29C0904504D0904604E0904704F09081
:101980004804C022D122E222F322842FC016D106BD
:10199000E206F30641F41F910F91FF90EF90DF9064
:1019A000CF900C9482241F910F91FF90EF90DF90C5
:1019B000CF900C94A3240C946B05E82FF0E0E25434
:1019C000FD4F8081E82FEF70F0E082958F7021E06D
:1019D00030E0A90102C0440F551F8A95E2F740A3E9
:1019E00008950F931F93CF93DF9385B7806885BFCA
:1019F00085B7806885BFC3E0D0E001E010E0FE015C
:101A0000E254FD4F8081E82FEF70F0E021A1829534
:101A10008F70A80102C0440F551F8A95E2F7CA01D2
:101A2000822B81A38C2F0E94DD0C219740F78BE045
:101A300090E061E070E0FC01EE54FD4F2081E22F68
:101A4000EF70F0E042A122952F70DB0102C0AA0FD7
:101A5000BB1F2A95E2F79D01242B22A3019758F77B
:101A6000DF91CF911F910F910C942007EF92FF927D
:101A70000F931F93CF93DF9300E913E0C3E0EE24AD
:101A8000E394F12CD5E08C2F0E94DD0C8BE090E0EC
:101A900040E050E0FC01EE54FD4F6081E62FEF7016
:101AA000F0E020A130E062956F7002C03595279577
:101AB0006A95E2F720FD09C09701082E02C0220FA7
:101AC000331F0A94E2F7422B532B019718F7F801C2
:101AD000929182918F018417950721F05183408361
:101AE000D09375028C2F0E94DD0CC15060F680915E
:101AF000750287FD2CC08150809375028F3F39F0AD
:101B00008FE99FE00197F1F700C0000020C08091AD
:101B10008E0390918F039093970380939603809107
:101B20008C0390918D0390939503809394038091FF
:101B30008A0390918B0390939303809392038091F7
:101B400088039091890390939103809390030E945E
:101B5000220781E0DF91CF911F910F91FF90EF90CD
:101B60000895E82FF0E0EE0FFF1FE057FC4F808153
:101B70009181089508950F931F93CF9308E913E07F
:101B8000C0E0F801929182918F010E94B926C80F9E
:101B9000F3E000391F07A9F78C2FCF911F910F9108
:101BA00008950E94FD27811102C00E94D9270E943A
:101BB0002728809377043E9A809171008D7F8093CF
:101BC000710082E0809390008AE18093910081E02F
:101BD00080939A03089580919A03811102C00E9414
:101BE000D10D1092EA031092E903809171008D7F6C
:101BF00080937100809190008F7380939000109279
:101C0000AC031092AB031092E3031092E403109222
:101C1000E5031092E6031092E2031092E103E1EC77
:101C2000F3E0A1EBB3E011921192119211921D9287
:101C30001D9283E0E13EF807B1F70895CF92DF925D
:101C4000EF92FF920F931F93CF93DF932091AB03FB
:101C5000222309F484C06B017C0180919A038111D5
:101C600002C00E94D10D01EE13E0C7E0D0E0A70151
:101C70009601F80192918291729162918F010E9476
:101C8000722D811131C0FE01EE0FFF1FEE0FFF1FFD
:101C9000EF53FC4F1082118212821382DE01AA0FD1
:101CA000BB1FAF54BC4F11961C921E92C730D1057A
:101CB000E9F0219644815581668177814083518383
:101CC00062837383148215821682178212968D9115
:101CD0009C91139711969C938E9313961C921E922F
:101CE000129734961296E2CF219708F68091E90375
:101CF0009091EA03019797FD05C09093EA038093C2
:101D0000E90304C01092EA031092E9038091E90309
:101D10009091EA032091E7033091E80328173907EF
:101D200024F01092E8031092E703892BC1F480910C
:101D300071008D7F80937100809190008F738093EC
:101D400090001092E3031092E4031092E5031092C6
:101D5000E6031092E2031092E1031092AB03DF91CD
:101D6000CF911F910F91FF90EF90DF90CF9008954A
:101D70001F920F920FB60F9211244F925F926F92A3
:101D80007F928F929F92AF92BF92CF92DF92EF920B
:101D9000FF922F933F934F935F936F937F938F9314
:101DA0009F93AF93BF93CF93DF93EF93FF93809174
:101DB000AB03882309F49BC1C091E903D091EA03E6
:101DC0001C161D060CF093C140909B0350909C0381
:101DD00060909D0370909E0320E030E0A901C30154
:101DE000B2010E941D2F18160CF065C0C130D1053C
:101DF00009F452C08091E7039091E803BE010E946C
:101E0000EF307C019093E8038093E7038090AD036B
:101E10009090AE03A090AF03B090B00320E030E00C
:101E200040E85FE3C501B4010E940E2D6093AD034D
:101E30007093AE038093AF039093B003F701EE0F5E
:101E4000FF1FEE0FFF1FEF53FC4FA30192016081B4
:101E50007181828193810E94762D20E030E040E004
:101E60005EE30E94212F9B01AC01C501B4010E94D9
:101E70001D2F18168CF4C7010196BE010E94EF3089
:101E80009093E8038093E7031092AD031092AE03A2
:101E90001092AF031092B003E091E703F091E803D2
:101EA000EE0FFF1FEE0FFF1FEF53FC4F608171819C
:101EB00082819381D0C0C090E303D090E403E0908E
:101EC000E503F090E60320E030E0A901C701B60188
:101ED0000E94722D2197882309F4A2C0FE01EE0F03
:101EE000FF1FEE0FFF1FEF53FC4F80809180A280F9
:101EF000B380A5019401C701B6010E94722D87FF2E
:101F000031C0A501940160E070E08CED93EC0E947B
:101F1000762D20E030E040E451E40E94762D20E070
:101F200030E040E05FE30E94212F9B01AC0160E0C4
:101F300070E080E090E40E94842F9B01AC01C50119
:101F4000B4010E94212F9B01AC01C701B6010E9480
:101F5000722D87FF07C0A701960160E070E08CED4D
:101F600093E439C0A5019401C701B6010E941D2F59
:101F700018160CF055C0A501940160E070E08CEDDE
:101F800093E40E94762D20E030E040E451E40E948A
:101F9000762D20E030E040E05FE30E94212F9B019E
:101FA000AC0160E070E080E090E40E94842F9B012F
:101FB000AC01C501B4010E94212F9B01AC01C701F6
:101FC000B6010E941D2F18165CF5A701960160E06E
:101FD00070E08CED93EC0E94762D20E030E040E440
:101FE00051E40E94762D20E030E040E05FE30E9463
:101FF000212F9B01AC0160E070E080E090E40E9442
:10200000842F9B01AC01C701B6010E94212F609370
:10201000E3037093E4038093E5039093E60313C016
:10202000FE01EE0FFF1FEE0FFF1FEF53FC4F8081ED
:102030009181A281B3818093E3039093E403A09301
:10204000E503B093E6036091E3037091E4038091AC
:10205000E5039091E60320919803309199032F3F77
:102060004FEF340731F02F5F3F4F309399032093A8
:1020700098030E94F3126B017C0120E034E244EFEC
:1020800051E40E94722D87FF08C086EFC82E88E2B7
:10209000D82E84EFE82E81E4F82E20E030E040E0F6
:1020A00051E4C701B6010E94212F9B01AC0160E001
:1020B00074E284E79BE40E94762D6B017C010E9410
:1020C000E32D7093970060939600209176023091F3
:1020D00077024091780250917902C701B6010E94BF
:1020E000212F0E94E32D70939900609398008091B6
:1020F000AC03882309F433C1C090A703D090A80390
:10210000E090A903F090AA0320E030E0A901C70104
:10211000B6010E941D2F1816D4F580919803909156
:1021200099038F3F2FEF920729F00196909399031F
:1021300080939803C701B6010E94F31220E030E0BB
:1021400040E051E40E94212F9B01AC0160E074E269
:1021500084E79BE40E94762D6B017C010E94E32DB5
:1021600070939700609396002091760230917702E9
:102170004091780250917902C701B6010E94212F47
:102180000E94E32D709399006093980008C010920C
:10219000970010929600109299001092980060910A
:1021A000A1037091A2036F5F7F4F7093A2036093AE
:1021B000A103209196003091970080E090E0232BBE
:1021C000F1F0C0919600D09197000E940F2E6B0104
:1021D0007C01BE0180E090E00E940F2E9B01AC01CB
:1021E0006091A3037091A4038091A5039091A6032D
:1021F0000E94762D20E03FEF4FE757E410C00E9489
:102200000F2E6B017C0120E030EE4FEF54E4609123
:10221000A3037091A4038091A5039091A6030E944B
:10222000212F9B01AC01C701B6010E941D2F87FD24
:1022300096C080919F038F5F80939F0390E02091D1
:1022400073043091740482179307A0F080917E0488
:10225000882319F010929F030DC0809171008D7F2B
:1022600080937100809190008F7380939000109202
:10227000AC037DC08091A003C0919F03811128C051
:10228000C0907804D0907904E0907A04F0907B04B8
:1022900020E030E0A901C701B6010E941D2F1816E9
:1022A000BCF481E08093A0031092A7031092A803CE
:1022B0001092A9031092AA03C092A303D092A40380
:1022C000E092A503F092A603C150C0939F0343C0C0
:1022D0001092A0031092990310929803E091750454
:1022E000F091760448E0C49FE00DF11D1124808137
:1022F0009181A281B3818093A7039093A803A093B7
:10230000A903B093AA0320E030E040E85EE36481D3
:102310007581868197810E94212F6B017C018091BC
:102320007A02682F70E080E090E00E940F2E20E09B
:1023300030E048EC52E40E94762D9B01AC01C701CD
:10234000B6010E94212F6093A3037093A40380938E
:10235000A5039093A6031092A2031092A10380916B
:10236000770480FD04C01092AC031092AB03FF9180
:10237000EF91DF91CF91BF91AF919F918F917F911D
:102380006F915F914F913F912F91FF90EF90DF9070
:10239000CF90BF90AF909F908F907F906F905F9005
:1023A0004F900F900FBE0F901F901895CF92DF9215
:1023B000EF92FF92CF93DF936B017C01EA01809152
:1023C0009A03811102C00E94D10D8091770480FF91
:1023D00046C08091E9039091EA0308970CF03FC052
:1023E000809171008D7F809371008091AC03811189
:1023F0000E94EB0D81E08093AB0310929903109241
:10240000980320E030E0A901C701B6010E941D2F0A
:102410001816DCF48091E9039091EA03FC01EE0FB9
:10242000FF1FEE0FFF1FEF53FC4FC082D182E282ED
:10243000F382FC01EE0FFF1FEF54FC4FD183C083EA
:1024400001969093EA038093E90380917100826082
:102450008093710080919000806880939000DF915C
:10246000CF91FF90EF90DF90CF9008958F929F9241
:10247000AF92BF92CF92DF92EF92FF920F931F9392
:10248000CF93DF93EC017B01D42E48015901809159
:102490009A03811102C00E94D10D8091770480FFC0
:1024A0006BC0809171008D7F809371008091AB0330
:1024B00081110E94EB0D81E08093AC03D0937604F0
:1024C000C0937504F0927404E0927304D0927E0479
:1024D0008092780490927904A0927A04B0927B045E
:1024E0001092AD031092AE031092AF031092B0039E
:1024F00010929F0388819981AA81BB818093A70351
:102500009093A803A093A903B093AA0320E030E01E
:1025100040E85EE36C817D818E819F810E94212F46
:102520006B017C0180917A02682F70E080E090E07E
:102530000E940F2E20E030E048EC52E40E94762DFD
:102540009B01AC01C701B6010E94212F6093A30338
:102550007093A4038093A5039093A6031092A20303
:102560001092A1038091710082608093710080912C
:102570009000806880939000DF91CF911F910F9120
:10258000FF90EF90DF90CF90BF90AF909F908F9093
:102590000895809177048170089580917704816017
:1025A000809377040E942B280C947A0780917704FB
:1025B0008E7F809377040C942B288091EB0390E01E
:1025C000019666E070E00E94EF308093EB0308957F
:1025D0008091EB0390E0019766E070E00E94EF309D
:1025E0008093EB0308958F929F92AF92BF92CF9208
:1025F000DF92EF92FF920F931F93CF93DF936B01C4
:102600007C01C0919803D0919903BE0180E090E0D5
:102610000E940F2E4B015C01A701960160E070E063
:102620008CE594E40E94762D9B01AC01C501B401B8
:102630000E94212F0E94E32D2091EB03233009F407
:1026400073C028F4222351F02130E9F02CC124304A
:1026500009F4A0C0253009F4E0C025C180E090E075
:10266000A0E0BFE38093760290937702A093780274
:10267000B093790210929B0310929C0310929D03D9
:1026800010929E0310C110929B0310929C03109213
:102690009D0310929E036431710540F46A30710508
:1026A00060F520E030E040E85EE32BC0693C710556
:1026B00008F0AAC080E090E00E940F2E20E030E0F9
:1026C00040EA51E40E940D2D20E030E044E353E461
:1026D0000E94762D9B01AC010E94212F20E030E06A
:1026E00040E05EE30E94212F9B01AC0160E070E0BE
:1026F00080E09EE30E940D2D44C020E030E040E0E9
:102700005FE3C701B6010E94212F6B017C0180E0CD
:1027100090E0A0E0BEE38093760290937702A093CE
:102720007802B0937902BFC010929B0310929C0371
:1027300010929D0310929E034AE0469F9001479F8E
:10274000300D1124C90168EB7BE00E94DB30BC0135
:102750006C5D754077FF03C071956195710988279D
:1027600077FD8095982F0E94112E2EE333EC4EE2D8
:1027700059E30E94212F20E030E040EC5EE30E940C
:102780000E2D609376027093770280937802909377
:10279000790289C010929B0310929C0310929D03B2
:1027A00010929E03CE0183709927892BE1F0BE0120
:1027B0006170772780E090E00E940F2E20E030E0EB
:1027C00040E05EE30E94212F20E030E040E45FE340
:1027D0000E940E2D609376027093770280937802A8
:1027E000909379020CC080E090E0A0E0BFE380937A
:1027F000760290937702A0937802B0937902C77023
:10280000DD27CD2B09F04FC010927602109277028F
:10281000109278021092790246C010929B03109297
:102820009C0310929D0310929E0300E010E020E0B4
:102830003FE300937602109377022093780230935F
:1028400079026739710578F180E090E00E940F2EDF
:1028500020E030E047E153E40E940D2D20E030E01D
:102860004AE754E40E94762D20E030E048E452E448
:102870000E94212F20E030E040EA51E40E94532ED4
:102880000E94DE2D660F771F660F771FFB01EE5348
:10289000FD4F2081318142815381C701B6010E94E1
:1028A000212F6B017C01C701B601DF91CF911F91F0
:1028B0000F91FF90EF90DF90CF90BF90AF909F90DF
:1028C0008F9008958091FC030895CF93DF9300D0FB
:1028D0001F92CDB7DEB79C0180918304843019F537
:1028E00093E099833B832A839093E9008FEF909143
:1028F000E800815095FD06C095ED9A95F1F700002E
:102900008111F5CF8091E80085FF0DC040E050E0D7
:1029100063E070E0CE0101960E94C2168091E8004B
:102920008E778093E8000F900F900F90DF91CF91FA
:102930000895CF93DF9300D01F92CDB7DEB72091DB
:102940008304243021F522E029839B838A8383E05A
:102950008093E9008FEF9091E800815095FD06C0CB
:1029600095ED9A95F1F700008111F5CF8091E8007F
:1029700085FF0DC040E050E063E070E0CE010196BD
:102980000E94C2168091E8008E778093E8000F9035
:102990000F900F90DF91CF91089520918304243000
:1029A000F1F422E02093E9002FEF3091E80021506C
:1029B00035FD06C035ED3A95F1F700002111F5CF50
:1029C0002091E80025FF0BC040E050E065E070E09A
:1029D0000E94C2168091E8008E778093E8000895E7
:1029E000CF93DF93EC0190918304943009F046C0BB
:1029F000809185028823D9F0809186028823B9F0DE
:102A00009093E9008FEF9091E800815095FD06C00A
:102A100095E19A95F1F700008111F5CF8091E800DA
:102A200085FF2CC040E050E060E170E017C081E01D
:102A30008093E9008FEF9091E800815095FD06C0EA
:102A400095ED9A95F1F700008111F5CF8091E8009E
:102A500085FF14C040E050E068E070E0CE010E94C5
:102A6000C2168091E8008E778093E80080E1FE0135
:102A7000ACEEB3E001900D928A95E1F7DF91CF9132
:102A8000089580918204811109C00E9457180E9404
:102A9000B4188091E20084608093E200089510925F
:102AA00082040895089508950C94042742E061EC8F
:102AB00081E00E94D11742E061EC82E00E94D117D0
:102AC00042E061EC83E00E94D11742E161EC84E0D6
:102AD0000C94D11780918504833009F455C030F4EB
:102AE000813071F0823009F48EC008958A3009F483
:102AF0007AC08B3009F460C0893009F09CC020C0D6
:102B000080918404813A09F096C08091E800877F23
:102B10008093E8008091880490918904892B21F4A6
:102B200060E18CEE93E003C060E080E090E070E054
:102B30000E940D178091E8008B778093E80008953C
:102B400080918404813209F076C08091880490914C
:102B50008904009719F0039709F06DC08091E8008F
:102B6000877F8093E8008091E80082FD05C0809116
:102B700083048111F8CF5FC08091F1008093FC0342
:102B80008091E8008B7753C080918404813A09F0EA
:102B900052C08091880490918904892B09F04BC020
:102BA0008091E800877F8093E8008091E80080FFB3
:102BB000FCCF8091850236C0809184048132D9F5A2
:102BC0008091880490918904892BA9F58091E8006F
:102BD000877F8093E8000E94061880918604809386
:102BE00085020C94452080918404813221F58091E6
:102BF000E800877F8093E8000E9406188091870490
:102C00008093FD03089580918404813AA1F480911A
:102C1000E800877F8093E8008091E80080FFFCCF88
:102C20008091FD038093F1008091E8008E7780937E
:102C3000E8000C940618089584B7877F84BF88E164
:102C40000FB6F89480936000109260000FBE80E889
:102C500080936100109261000E94B21B0E9457187D
:102C60000E94B4188091E20084608093E20078941E
:102C70000E94431B0E94B41B8BE792E00E945E1BE4
:102C800080918304853069F40E94C5268091810477
:102C90008823B1F30E94F326882391F30E94AC1697
:102CA000EFCF0E94BC1BECCF292F332723303105F7
:102CB000C9F064F42130310581F02230310509F08A
:102CC00043C08DE690E02FEB38E042C02132310561
:102CD000F1F02232310541F137C082E190E02CE27F
:102CE00039E036C099278130910541F08230910555
:102CF00041F0892B49F5EBEBF8E005C0EDE8F8E091
:102D000002C0E3E6F8E0849190E09F0121C06430C6
:102D10007105D0F4660F771FFB01E25EFC4F208146
:102D2000318189E090E014C06430710568F4FB01E2
:102D3000EE0FFF1FEA5EFC4F20813181FB01EE5E4A
:102D4000FC4F808190E004C080E090E020E030E023
:102D5000FA0131832083089580E189BD82E189BD34
:102D600009B400FEFDCF8091D8008F7D8093D800FC
:102D70008091E00082608093E0008091E00081FD1E
:102D8000FCCF0895CF92DF92EF92FF920F931F93A3
:102D9000CF93DF93EC018B016A010E94251881110A
:102DA00033C0C114D10439F0F60180819181081B30
:102DB000190BC80FD91FE12CF12C0115110519F1C0
:102DC0008091E80085FD16C08091E8008E778093A1
:102DD000E800C114D10449F0F60180819181E80E28
:102DE000F91EF182E08285E00FC00E942518882339
:102DF00021F30AC089918093F10001501109FFEF7E
:102E0000EF1AFF0ADACF80E0DF91CF911F910F9187
:102E1000FF90EF90DF90CF90089520918A04309139
:102E20008B042617370748F06115710539F4209196
:102E3000E8002E772093E80001C0B90140E0611559
:102E40007105A9F120918304222309F443C02530A0
:102E500009F442C02091E80023FD40C02091E80021
:102E600022FD32C02091E80020FFE9CF4091F3001D
:102E70002091F20030E0342BFC01CF016115710587
:102E800059F02830310540F481918093F100615070
:102E900071092F5F3F4FF1CF41E02830310509F034
:102EA00040E02091E8002E772093E800C8CF411140
:102EB000C9CF0AC080918304882361F0853061F016
:102EC0008091E80083FD0AC08091E80082FFF2CF84
:102ED00080E0089582E0089583E0089581E00895F8
:102EE00020918A0430918B042617370748F061152A
:102EF000710539F42091E8002E772093E80001C095
:102F0000B901FC0120E06115710591F18091830404
:102F1000882309F440C0853009F43FC08091E8005F
:102F200083FD3DC08091E80082FD2FC08091E800C4
:102F300080FFE9CF2091F3008091F20090E0922B86
:102F40006115710559F08830910540F42491209362
:102F5000F1003196615071090196F2CF21E0089796
:102F600009F020E08091E8008E778093E800CBCFD5
:102F70002111CCCF0AC080918304882361F0853071
:102F800061F08091E80083FD0AC08091E80082FF33
:102F9000F2CF80E0089582E0089583E0089581E013
:102FA0000895982F973058F59093E900981739F0C5
:102FB0007091EC002091ED005091F00003C0242F9F
:102FC000762F50E021FF19C03091EB003E7F309307
:102FD000EB003091ED003D7F3093ED003091EB0040
:102FE00031603093EB007093EC002093ED00509330
:102FF000F0002091EE0027FF07C09F5FD3CF8F70B6
:103000008093E90081E0089580E008958091840430
:1030100087FF11C08091E80082FD05C08091830484
:103020008111F8CF11C08091E8008B770BC080919F
:103030008304882349F08091E80080FFF8CF8091D5
:10304000E8008E778093E80008952091E4003091A5
:10305000E50095E64091EC00842F817040FF22C08E
:103060008091E80080FD1CC080918304882391F04A
:10307000853091F08091EB0085FD10C04091E40017
:103080005091E5004217530729F39A01915011F727
:1030900084E0089582E0089583E0089581E0089532
:1030A00080E008954091E80042FFDECF08950E943D
:1030B000C5180E94CD18E0EEF0E080818160808329
:1030C000E8EDF0E080818F77808319BCA7EDB0E058
:1030D0008C918E7F8C9380818F7E8083109282046E
:1030E00008950F931F93CF93DF930E94C5180E94FA
:1030F000CD18C8EDD0E088818F778883888180687B
:10310000888388818F7D888319BC109283041092F4
:103110007F04109281041092800400EE10E0F80108
:1031200080818B7F808388818160888342E060E03A
:1031300080E00E94D117E1EEF0E080818E7F8083F5
:10314000E2EEF0E08081816080838081886080830E
:10315000F80180818E7F8083888180618883DF9100
:10316000CF911F910F910895E8EDF0E080818F7E5F
:103170008083E7EDF0E080818160808384E082BF1E
:1031800081E0809382040C947118E8EDF0E0808176
:103190008E7F80831092E20008951092DA001092E0
:1031A000E10008951F920F920FB60F9211242F93F2
:1031B0003F934F935F936F937F938F939F93AF93BF
:1031C000BF93EF93FF938091E10082FF0BC080914A
:1031D000E20082FF07C08091E1008B7F8093E100D5
:1031E0000E94421B8091DA0080FF1FC08091D800AE
:1031F00080FF1BC08091DA008E7F8093DA0080917F
:10320000D90080FF0DC080E189BD82E189BD09B48C
:1032100000FEFDCF81E0809383040E94411505C02C
:1032200019BC109283040E944F158091E10080FF29
:1032300019C08091E20080FF15C08091E2008E7F6E
:103240008093E2008091E20080618093E2008091AF
:10325000D80080628093D80019BC85E080938304F5
:103260000E9453158091E10084FF30C08091E200FC
:1032700084FF2CC080E189BD82E189BD09B400FED4
:10328000FDCF8091D8008F7D8093D8008091E100A0
:103290008F7E8093E1008091E2008F7E8093E20038
:1032A0008091E20081608093E20080917F04882316
:1032B00011F084E007C08091E30087FD02C081E047
:1032C00001C083E0809383040E9454158091E10043
:1032D00083FF29C08091E20083FF25C08091E10037
:1032E000877F8093E10082E08093830410927F04C3
:1032F0008091E1008E7F8093E1008091E2008E7FDB
:103300008093E2008091E20080618093E20042E0DD
:1033100060E080E00E94D1178091F0008860809387
:10332000F0000E945215FF91EF91BF91AF919F91D4
:103330008F917F916F915F914F913F912F910F905E
:103340000FBE0F901F9018951F920F920FB60F92FD
:1033500011242F933F934F935F936F937F938F939A
:103360009F93AF93BF93CF93DF93EF93FF93C0915E
:10337000E900CF708091EC00D82FD17080FDD0E8AB
:103380001092E9008091F000877F8093F00078949C
:103390000E94E8191092E9008091F0008860809303
:1033A000F000CD2BCF70C093E900FF91EF91DF913A
:1033B000CF91BF91AF919F918F917F916F915F91CD
:1033C0004F913F912F910F900FBE0F901F90189526
:1033D0001F93CF93DF93CDB7DEB7AA970FB6F894BC
:1033E000DEBF0FBECDBFE4E8F4E088E08E0F909121
:1033F000F10091938E13FBCF0E946A158091E80033
:1034000083FF28C18091840490918504492F50E066
:103410004A30510508F01EC1FA01EB59FF4F0C94D8
:103420000331803821F0823809F014C108C080913E
:10343000800490918104992389F082600FC080916B
:1034400088048F70873008F005C18093E90080916F
:10345000EB0085FB882780F91092E9009091E80045
:10346000977F9093E8008093F1001092F100D0C014
:10347000282F2D7F09F0EEC0882319F0823061F0EB
:10348000E9C080918604813009F0E4C0933009F0EE
:1034900080E0809381042EC08091860481112AC02F
:1034A000809188048F702FEF280F263008F0D2C04B
:1034B0008093E9002091EB0020FF1CC0933021F4A1
:1034C0008091EB00806214C09091EB00906190932A
:1034D000EB0021E030E0A90102C0440F551F8A959E
:1034E000E2F74093EA001092EA008091EB008860D6
:1034F0008093EB001092E9008091E800877F809331
:10350000E8000E940618A6C08111A4C0109186048C
:103510001F778091E3008078812B8093E300809176
:10352000E800877F8093E8000E9406188091E800F9
:1035300080FFFCCF8091E30080688093E30011114D
:1035400002C082E001C083E08093830483C080587E
:10355000823008F07FC080918604909187048C3D72
:1035600053E0950779F583E08A838AE289834FB730
:10357000F894DE01139620E03EE051E2E32FF0E004
:1035800050935700E49120FF03C0E295EF703F5F36
:10359000EF708E2F90E0EA3010F0C79601C0C09611
:1035A0008D939D932F5F243149F74FBF8091E800A1
:1035B000877F8093E8006AE270E0CE0101960E9466
:1035C0000D1715C06091880470918904AE014F5F9A
:1035D0005F4F0E945416BC010097E1F19091E80002
:1035E000977F9093E80089819A810E94701780915B
:1035F000E8008B778093E8002DC0803859F58091E2
:10360000E800877F8093E80080917F048093F10039
:103610008091E8008E7773CF81111CC09091860451
:103620009230C0F48091E800877F8093E800909307
:103630007F040E94061880917F04811106C080914A
:10364000E30087FD02C081E001C084E08093830431
:103650000E9456158091E80083FF0AC08091E8001F
:10366000877F8093E8008091EB0080628093EB007D
:10367000AA960FB6F894DEBF0FBECDBFDF91CF91F3
:103680001F9108950895CF93809183048823A1F01A
:10369000C091E900CF709091EC00892F817090FD6E
:1036A00080E8C82B1092E9008091E80083FD0E9419
:1036B000E819CF70C093E900CF9108959093030467
:1036C000809302040895E0910204F091030430977E
:1036D00021F00190F081E02D099480E00895E091BF
:1036E0000204F0910304309721F00280F381E02D71
:1036F00009940895E0910204F0910304309721F0B9
:103700000480F581E02D0994089520910004309102
:1037100001048217930771F09093010480930004D1
:10372000E0910204F0910304309721F00680F781C4
:10373000E02D099408952091FE033091FF03821734
:10374000930771F09093FF038093FE03E0910204CE
:10375000F0910304309721F00084F185E02D099465
:10376000089508950C94B11B0E9438270E94F10C13
:103770000E94BE270C94722C5F926F927F928F9260
:103780009F92AF92BF92CF92DF92EF92FF920F93F0
:103790001F93CF93DF9300D000D01F92CDB7DEB739
:1037A0000E94360D9DE0C92E94E0D92E03E010E072
:1037B000AA24A394B12C502E802F0E94B10D4C014D
:1037C000F601729062906F01682679266114710487
:1037D000A1F40150110978F78FEF89838A831B8246
:1037E0000E9441278160782F9D838C8349815A8173
:1037F0006B818D810E946C1C38C08091620481FDB8
:103800000E94BA0D2BE030E07501022E02C0EE0CD2
:10381000FF1C0A94E2F7C70186219721892B09F141
:1038200029835A828E209F2091E0892809F490E014
:103830009B830E9441278160782F9D838C834981DF
:103840005A816B818D810E946C1C000F111FF80141
:10385000EB5FFB4F80819181E826F926F182E082BF
:1038600004C02150310980F6B4CF0E94AA291091DA
:1038700004040E94631B1817D1F00E94631B8093FD
:1038800004040F900F900F900F900F90DF91CF9145
:103890001F910F91FF90EF90DF90CF90BF90AF906E
:1038A0009F908F907F906F905F900C94DB0C0F90A7
:1038B0000F900F900F900F90DF91CF911F910F916C
:1038C000FF90EF90DF90CF90BF90AF909F908F9040
:1038D0007F906F905F900895CF93DF93CDB7DEB761
:1038E0002B970FB6F894DEBF0FBECDBF4F8358871E
:1038F00069877A878B87DE01119686E0FD01119238
:103900008A95E9F785E0FE01379601900D928A9538
:10391000E1F749815A816B817C818D819E810E9472
:10392000E3222B960FB6F894DEBF0FBECDBFDF911A
:10393000CF910895CF93882309F4C2C0C82F82384D
:1039400059F40E94631B81FDBBC089E30E94BD2521
:103950000E948A2689E30CC0833879F40E94631B95
:1039600080FDAEC083E50E94BD250E948A2683E5C6
:103970000E94FF25CF910C948A26843859F40E9426
:10398000631B82FD9DC087E40E94BD250E948A269C
:1039900087E4EECF8CEF8C0F813A48F48C2F0E9495
:1039A000DA2B81118DC08C2F0E94BD25E3CF80E2E0
:1039B0008C0F883048F4C77081E001C0880FCA9529
:1039C000EAF70E944326D6CF8BE58C0F833078F43C
:1039D000C53A29F0C63A31F083E890E005C081E8A5
:1039E00090E002C082E890E0CF910C94851B88E5BE
:1039F0008C0F833108F064C0C83A39F1C93A41F1FB
:103A0000CA3A49F1CB3A51F1CC3A59F1CD3A61F188
:103A1000C03B69F1CE3A71F1CF3A79F1C13B81F106
:103A2000C23B89F1C33B91F1C43B99F1C53BA1F184
:103A3000C63BA9F1C73BB1F1C83BB9F1C93BC1F1E4
:103A4000CA3BC9F180E090E038C082EE90E035C01A
:103A500089EE90E032C08AEE90E02FC085EB90E0D6
:103A60002CC086EB90E029C087EB90E026C08CEC60
:103A700090E023C08DEC90E020C083E891E01DC071
:103A80008AE891E01AC082E991E017C084E991E0E8
:103A900014C081E292E011C083E292E00EC084E2A1
:103AA00092E00BC085E292E008C086E292E005C099
:103AB00087E292E002C08AE292E0CF910C949B1BD5
:103AC000CF910895882309F44BC0823859F40E949D
:103AD000631B81FF45C089E30E94BD250E948A26A1
:103AE00089E30CC0833871F40E94631B80FF38C0E7
:103AF00083E50E94BD250E948A2683E50E94FF255A
:103B00000C948A26843859F40E94631B82FF28C0D3
:103B100087E40E94BD250E948A2687E4EFCF9CEFB0
:103B2000980F913A58F390E2980F983050F48770BC
:103B300091E001C0990F8A95EAF7892F0E944926E2
:103B4000DFCF9BE5980F933020F480E090E00C9459
:103B5000851B885A833120F480E090E00C949B1BF5
:103B60000895882321F00E9443260C948A26089504
:103B7000882321F00E9449260C948A2608957F927A
:103B80008F929F92AF92BF92CF92DF92EF92FF926D
:103B90000F931F93CF93DF931F92CDB7DEB77C01B6
:103BA000C62E772EFC01058102950F70128111112E
:103BB0000E9460260E94B625882379F0112369F0BF
:103BC00080E28C0D883048F082E00E949F250E94A0
:103BD000B62591E0D82ED92601C0D12CE72DE2954B
:103BE000EF70F0E0E159FF4F0C940331872D807F97
:103BF000072D0F70882311F00295007F112389F0A3
:103C0000002309F499C180E28C0D883020F4802FC4
:103C10000E94432603C0802F0E9453260E948A26BA
:103C20008BC18C2D0E94621D002309F4C3C180E268
:103C30008C0D883020F4802F0E94492603C0802FED
:103C40000E9459260E948A26B5C1872D807F972D14
:103C50009F70803211F4892F03C0892F8295807F55
:103C6000CC2021F0F1E0CF16A1F01DC0112339F0D6
:103C7000002319F1013009F50E9473269BC100232E
:103C800019F0013009F496C189830E947626898152
:103C900010C1112321F0063008F08CC10EC0053090
:103CA00008F088C106C1112359F0002331F0F70153
:103CB000958190FF41C19F7095830E94B11D7AC18B
:103CC000002309F4F6C03EC1872D86958695837042
:103CD00090E0009719F0019761F06CC1112321F079
:103CE0008C2D972D937002C080E090E00E94851B80
:103CF00061C1112321F08C2D972D937002C080E0BB
:103D000090E00E949B1B56C18C2D112319F00E943C
:103D1000B22802C00E941A290E949F294BC1872DF8
:103D2000837009F052C0111145C18C2D8295869582
:103D30008770880F880F9C2D9F70892E912CA12C45
:103D4000B12C082E04C0880C991CAA1CBB1C0A9418
:103D5000D2F7C4FE14C00FE010E020E030E0B9015B
:103D6000A80104C0440F551F661F771F8A95D2F71C
:103D7000CB01BA01609570958095909503C060E085
:103D800070E0CB01272D26952695237030E0223058
:103D9000310569F02330310589F0682979298A29AC
:103DA0009B292130310571F00E942B2403C1682921
:103DB00079298A299B290E944724FCC00E942B2430
:103DC000C501B4010E940F24F5C0112319F0872DFD
:103DD000817001C08695882309F4ECC08C2D8295F2
:103DE00086958770880F880F9C2D9F70892E912C47
:103DF000A12CB12C082E04C0880C991CAA1CBB1C39
:103E00000A94D2F7C4FE14C00FE010E020E030E0C6
:103E1000B901A80104C0440F551F661F771F8A957A
:103E2000D2F7CB01BA01609570958095909503C04B
:103E300060E070E0CB01272D269526952370422F58
:103E400050E04230510569F04330510589F068294E
:103E500079298A299B294130510571F00E94052555
:103E6000A9C0682979298A299B290E942125A2C0F5
:103E70000E940525C501B4010E94E9249BC08C2D38
:103E800090E0FC01E05EF109E531F10508F050C079
:103E9000E158FF4F0C9403310C2D0F70872D8F715B
:103EA000112321F00E948224802F07CF0E94A32497
:103EB000802F0E94B81D7EC0112341F0053008F00C
:103EC00079C0872D8F710E94C82474C0063008F015
:103ED00071C0F7CF112339F0872D8F710E94822492
:103EE00069C01123C9F3872D8F710E94A32462C07A
:103EF000112329F0872D8F710E946D245BC00E94D1
:103F0000632458C0112351F0172D1F71812F0E9477
:103F1000822463E0812F0E9496254CC081E00E949C
:103F20009F25023008F446C082E00E949F2542C0CF
:103F3000112331F0002381F28C2D0E949A1C3AC08B
:103F4000002389F28C2D0E94621D34C0472D4F70D2
:103F50006C2DC7010E941C060E9487232BC01111E3
:103F600029C0472D4F7050E042305105B9F04CF454
:103F70004115510581F041305105E1F40E949A2C20
:103F800019C04330510569F04430510599F48C2D26
:103F90000E94EC2C0FC00E94832C0CC00E94B62CF7
:103FA00009C00E94C92C06C0472D4F706C2DC70157
:103FB0000E947C09DD20F9F00E94922580FD1BC043
:103FC000F70112820E948C250E948224C7010E9460
:103FD0000A200E948C250F90DF91CF911F910F91A5
:103FE000FF90EF90DF90CF90BF90AF909F908F9019
:103FF0007F900C94A3240F90DF91CF911F910F918C
:10400000FF90EF90DF90CF90BF90AF909F908F90F8
:104010007F9008950F931F93CF93DF93EC018881D6
:1040200099812B813C81232BB9F09F3F11F48F3F65
:1040300099F0CE010E947B07882371F06881798115
:104040008A810E9488258C010E943D250E940424BB
:10405000B801CE010E94BF1DDF91CF911F910F913A
:1040600008950E9460260E9470260E9435260E94B4
:104070008A260E94502A0E949F2980E090E00E9498
:10408000851B80E090E00C949B1B0E9450260C94B2
:1040900031200E947D25292F22952F7030E02C3071
:1040A00031054CF42A3031056CF4225031092230AC
:1040B0003105A8F407C02C30310569F02F303105E7
:1040C00051F00DC0803F69F018F4803E40F409C003
:1040D000843F29F406C093FB882780F9089580E087
:1040E000089581E00895CF93DF9300D000D01F9210
:1040F000CDB7DEB70F900F900F900F900F90DF911C
:10410000CF910895CF93DF9300D000D000D0CDB7EA
:10411000DEB726960FB6F894DEBF0FBECDBFDF9197
:10412000CF9108951F93CF93DF93C0910D0416E0B4
:1041300080910E04C81799F0D0E01C9FF0011D9FDC
:10414000F00D1124E15FFB4F408151816281738149
:10415000848195810E9482202196C770E9CFDF91EA
:10416000CF911F91089540913F0450914004609178
:1041700041047091420480914304909144040C9452
:1041800082208091440482958F7009F054C0809100
:104190004104882309F44FC080910D04A0910E04BE
:1041A00060913F0470914004409142045091430457
:1041B000B6E08A1709F43FC090E041155105C1F1FE
:1041C0007F3F11F46F3FA1F1B89FF001B99FF00D4F
:1041D0001124E15FFB4F218172132AC020816213F9
:1041E00027C02281211124C023813481241735075F
:1041F00010F421503109241B350B283C3105C0F443
:10420000209144042F7020612093440426E0289FCD
:10421000F001299FF00D1124EC5EFB4F80818F701F
:10422000806180838FE394E00E940A200C949220A6
:1042300001968770BECF0895CF92DF92EF92FF92E2
:104240000F931F93CF93DF93CDB7DEB762970FB66F
:10425000F894DEBF0FBECDBF8C0185E0F801DE0112
:104260001D9601900D928A95E1F7D8014C91119617
:104270005C91119712966C9112971396CD90DC90E9
:10428000149730913F0470914004809142049091C2
:104290004304009709F46BC17F3F19F43F3F09F4D1
:1042A00066C1E0904104EE2009F4C0C020914404AE
:1042B000C816D90628F0F601E81BF90BCF0104C097
:1042C000809590958C0D9D1DFF24F394883C91055D
:1042D00078F0F12C207F09F0C6C07C2DD98AC88ADD
:1042E00089890E9473208FE394E00E940A20B1C064
:1042F000822F807F09F046C0751314C0341312C09A
:10430000611110C02F702061209344040E94B320DB
:104310008FE394E00E940A2080914404D80115960E
:104320008C932EC0CD2819F15F3F11F44F3FF9F067
:10433000F62E61111CC080910D0420910E0436E010
:10434000821709F45AC090E0389FF001399FF00DB0
:104350001124E15FFB4F7181571306C07081471331
:1043600003C07281711103C001968770E9CFF62EE8
:10437000662309F418C18091440481608093440449
:10438000F12C11C1751308C0341306C0611104C0AB
:1043900080914404D801C3C04D875E878D859E857A
:1043A0006A8B0E9449206A898823E1F16623D1F152
:1043B00020914404822F82958F7090E0029774F0D0
:1043C00080913F049091400498878F831986DB8603
:1043D000CA862C87CE0107960E940A2086E0F80143
:1043E000AFE3B4E001900D928A95E1F70E94C120FD
:1043F0000E94B320FF24F394D6C04D875E878D853D
:104400009E850E947D25292F22952F7030E0223035
:1044100031050CF0BCC09F7009F0B6C0805E8830DA
:1044200008F4C1C0C8010E940A20E4CFC816D9060A
:1044300008F453C0F601E81BF90BCF01883C910545
:1044400008F450C0F12C7C2DD98AC88A89890E9431
:104450007320EFE3F4E086E0DF011D928A95E9F72F
:104460000E94B320A0C0751314C0341312C0611190
:1044700010C080914404F8018583C8010E940A207D
:1044800086E0EFE3F4E0DF011D928A95E9F7FE2C68
:104490008AC04D875E878D859E856A8B0E944920E4
:1044A0006A89882309F4BECF662309F4BBCF209123
:1044B0004404822F82958F7090E002970CF48ECF87
:1044C00080913F04909140049A8389831B82DD820E
:1044D000CC822E83CE0101967FCF809590958C0D56
:1044E0009D1DACCFF62E662309F49CCF75132EC00C
:1044F00034132CC02091440420FD1FC0822F8295CC
:104500008F70D9F0D80115962C9315978F3049F0FC
:104510008F5F982F9295907F822F8F70892B1596A1
:104520008C93C8010E940A2086E0F801AFE3B4E052
:1045300001900D928A95E1F793CF86E0F801AFE301
:10454000B4E001900D928A95E1F72DC04D875E870A
:104550008D859E850E944920811140CF8091440421
:10456000816080934404C8010E940A201CC0662315
:1045700009F458CF4D875E878D859E850E9449201E
:10458000882309F44FCF2ACF811148CF0CC02430A3
:1045900031050CF047CF9F7009F440CFF8019581A9
:1045A000907F09F03BCF8F2D62960FB6F894DEBF57
:1045B0000FBECDBFDF91CF911F910F91FF90EF9074
:1045C000DF90CF9008951F93CF93DF93CDB7DEB7E1
:1045D0002C970FB6F894DEBF0FBECDBF4F83588720
:1045E00069877A878B879C87CE0107960E941C215A
:1045F000882369F08F8198852A853B85232BF1F1EB
:104600009F3F09F063C08F3F09F060C037C086E06C
:10461000FE013796DE01119601900D928A95E1F721
:104620006F817885EA85FB85309741F17F3F11F4F2
:104630006F3F21F120910E0430E0C901019687708F
:10464000992740910D0450E08417950709F447C05D
:1046500069837A83FD83EC8396E0929FD001939FD8
:10466000B00D1124A15FBB4FFE01319601900D9258
:104670009A95E1F780930E040E94922016E08091B3
:104680000D0490910E048917C1F1189FC0011124E7
:10469000815F9B4F0E941C21882379F1E0910D04DA
:1046A0001E9FF0011124E15FFB4F40815181628127
:1046B0007381848195810E94822080910D0490E015
:1046C00001968770992780930D04D9CF4F81588523
:1046D00069857A858B859C850E948220CFCF0E9438
:1046E000452010920E0410920D04EFE3F4E086E0F2
:1046F000DF011D928A95E9F7C1CF2C960FB6F89489
:10470000DEBF0FBECDBFDF91CF911F910895EF9215
:10471000FF920F931F93CF93DF938C01009709F4BF
:104720006CC0F12CEE24E394E8012196F801849109
:10473000843740F4843008F051C0813081F08230F9
:1047400019F15BC0853709F444C0A8F19CE7980FC4
:10475000903708F052C08F770E94621D41C00E5FF3
:104760001F4FFE01C49180E28C0F883048F4C7705F
:104770008E2D01C0880FCA95EAF70E94632614C0E7
:104780008C2F0E949A1C2DC00E5F1F4FFE01C491FA
:1047900080E28C0F883058F4C7708E2D01C0880FCE
:1047A000CA95EAF70E9469260E948A261AC08C2FB1
:1047B0000E94621D16C00E5F1F4FFE01C491CC23E4
:1047C00081F08FE99FE00197F1F700C00000C15030
:1047D000F6CF0E5F1F4FFE01F49003C00E949A1C9B
:1047E0008E018F2D882309F49FCFEFE9FFE03197E9
:1047F000F1F700C000008150F5CFDF91CF911F91FC
:104800000F91FF90EF90089508956093490470937D
:104810004A0480934B0490934C040C9431200F93E2
:104820001F930091490410914A0420914B04309148
:104830004C04DC01CB01802B912BA22BB32B80935A
:10484000490490934A04A0934B04B0934C041F91E5
:104850000F910C9431200F931F93009149041091F4
:104860004A0420914B0430914C04DC01CB0180239D
:104870009123A223B3238093490490934A04A093E5
:104880004B04B0934C041F910F910C9431200F9363
:104890001F930091490410914A0420914B043091D8
:1048A0004C04DC01CB0180279127A227B3278093FA
:1048B000490490934A04A0934B04B0934C041F9175
:1048C0000F910C94312010924504109246041092DE
:1048D0004704109248040C94312041E050E060E01D
:1048E00070E004C0440F551F661F771F8A95D2F7EA
:1048F00040934504509346046093470470934804E2
:104900000C94312041E050E060E070E004C0440FBE
:10491000551F661F771F8A95D2F7809145049091A5
:104920004604A0914704B0914804482B592B6A2BA8
:104930007B2B409345045093460460934704709347
:1049400048040C94312041E050E060E070E004C085
:10495000440F551F661F771F8A95D2F740955095D3
:10496000609570958091450490914604A09147040C
:10497000B0914804482359236A237B23409345047C
:104980005093460460934704709348040C9431207C
:1049900041E050E060E070E004C0440F551F661F26
:1049A000771F8A95D2F78091450490914604A09193
:1049B0004704B0914804482759276A277B2740932A
:1049C00045045093460460934704709348040C9444
:1049D00031200F931F9300914504109146042091BC
:1049E000470430914804DC01CB01802B912BA22B92
:1049F000B32B8093450490934604A0934704B0934F
:104A000048041F910F910C9431200F931F93009134
:104A10004504109146042091470430914804DC017C
:104A2000CB0180239123A223B32380934504909349
:104A30004604A0934704B09348041F910F910C942F
:104A400031200F931F93009145041091460420914B
:104A5000470430914804DC01CB0180279127A2272D
:104A6000B3278093450490934604A0934704B093E2
:104A700048041F910F910C9431200895CF92DF923A
:104A8000EF92FF920F931F93CF93DF938C01C0900F
:104A90004904D0904A04E0904B04F0904C0480917B
:104AA000450490914604A0914704B0914804C82A57
:104AB000D92AEA2AFB2ACFE1D0E0D701C6010C2E81
:104AC00004C0B695A795979587950A94D2F780FF6D
:104AD00006C0B8018C2F0E94010C019721F4219788
:104AE00060F780E001C08C2FDF91CF911F910F9173
:104AF000FF90EF90DF90CF900895CF93DF93EC017C
:104B00000E943E25BE010E94010CDF91CF910895C5
:104B1000CB010E947D25089580914D048595859552
:104B20008595089580914D048770089598E0899F38
:104B300090011124262B20934D040C948224209163
:104B40004D048095822380934D04982F977069F4CB
:104B500030E0482F552747FD50952417350729F099
:104B60008595859585950C94A324089590914D0481
:104B7000977081E009F480E008959091850299236F
:104B800021F090918602911109C020918702309105
:104B90008802F90132969FEF40E01FC0982F96954A
:104BA000969596959F3050F5E0918702F091880296
:104BB000E90FF11D877021E030E0A90102C0440F28
:104BC000551F8A95E2F7CA019181892B8183089547
:104BD0009F3F39F04F5F4E3041F051915813F8CF5D
:104BE0000DC05111F7CF942FF5CF9F3F39F0F90148
:104BF000E90FF11D97FDFA9582830895089590912C
:104C00008502992321F090918602911109C020918B
:104C1000870230918802F9013296205F3F4F1FC012
:104C2000982F9695969596959F30F0F4E09187028F
:104C3000F0918802E90FF11D877021E030E0A901B1
:104C400002C0440F551F8A95E2F7CA0180959181F1
:104C50008923818308953196E217F30729F0908123
:104C60009813F9CF1082F7CF089581E090E0E0919A
:104C70008702F0918802E80FF91F108201968031B7
:104C80009105A9F7089590916104892B809361049F
:104C9000089580959091610489238093610408951B
:104CA00010926104089590916004892B80936004B0
:104CB00008958095909160048923809360040895FD
:104CC00010926004089590915F04892B80935F0493
:104CD0000895809590915F04892380935F040895DF
:104CE00010925F04089580934E04089510924E042C
:104CF00008958091870290918802FC0131969C0171
:104D0000205F3F4F80E0919191118F5FE217F30791
:104D1000D1F70895E0918702F091880280916104B3
:104D20008083E0918702F0918802908180916004F5
:104D3000892B8083E0918702F09188029081809195
:104D40005F04892B808380914E04882361F0E09179
:104D50008702F09188029081892B80830E947926B6
:104D6000811110924E0480918702909188020C94D8
:104D70006F1B20E0009739F0AC01415051098423AA
:104D800095232F5FF7CF822F08958091830484307D
:104D900039F11092630420E488E190E00FB6F894B2
:104DA000A895809360000FBE2093600080E00E9471
:104DB000770580E00E94DB0C83B7817F846083BF2E
:104DC00083B7816083BF7894889583B78E7F83BFD4
:104DD00088E10FB6F89480936000109260000FBED7
:104DE00008950895089580E00E9477050E94F126B5
:104DF0000E94360D0E94F2260E94BB0D91E08111A7
:104E000001C090E0892F08950E94452080E00E9413
:104E100077050E94722C0E94631B0C94DB0C1F927E
:104E20000F920FB60F9211248F939F93AF93BF935E
:104E300080916304811113C0809164049091650492
:104E4000A0916604B09167044196A11DB11D8093A5
:104E5000640490936504A0936604B0936704BF91C3
:104E6000AF919F918F910F900FBE0F901F9018954B
:104E700082E084BD93E095BD9AEF97BD80936E006C
:104E800008952FB7F8948091640490916504A091DF
:104E90006604B09167042FBF0895CF92DF92EF921E
:104EA000FF920F931F932FB7F89440916404509191
:104EB000650460916604709167042FBF6A017B01ED
:104EC000EE24FF248C0120E030E0C016D106E2067B
:104ED000F30610F4415051099A01281B390BC901FE
:104EE0001F910F91FF90EF90DF90CF9008951F9248
:104EF0000F920FB60F9211248F939F93AF93BF938E
:104F00008091640490916504A0916604B091670457
:104F10000196A11DB11D8093640490936504A09334
:104F20006604B0936704BF91AF919F918F910F90EA
:104F30000FBE0F901F9018950E945718F8942FEFEE
:104F400087EA91E6215080409040E1F700C00000E0
:104F500087E090EBDC0180938E0490938F04A09304
:104F60009004B09391049CE088E10FB6F894A89562
:104F7000809360000FBE90936000FFCF0E94FD27DA
:104F8000811102C00E94D9270E94082880936204E0
:104F90000E94152880938C0487FB882780F98093D2
:104FA00086020E940C28682F70E080E090E00C944C
:104FB00005246DEE7EEF80E090E00E94293160E0F4
:104FC00082E090E00E94173160E083E090E00E9470
:104FD000173160E084E090E00E94173160E085E0E6
:104FE00090E00E94173160E086E090E00E94173167
:104FF0006FEF87E090E00C94173180E090E00E9422
:10500000113121E08D3E9E4F09F020E0822F08955E
:1050100082E090E00C94093183E090E00C94093137
:10502000682F83E090E00C94173184E090E00C94BA
:105030000931682F84E090E00C94173186E090E00D
:105040000C940931682F86E090E00C94173187E0CA
:1050500090E00C940931682F87E090E00C941731B0
:1050600080916A0480FF0BC060918C0285E0689F8C
:10507000B001112475956795759567952BC081FFD3
:1050800009C060918C0285E0689FB001112475957C
:10509000679520C082FF07C060918C0285E0689F01
:1050A000B001112417C090916B049923D1F0609145
:1050B0008B02961788F720918C0285E0289F90013B
:1050C0001124929FA001939F500D112470E0CA01FA
:1050D0000E94EF306038710540F46115710539F0B8
:1050E00002C065E070E0862F08958FE7089581E0A3
:1050F000089580916A0480FF08C060918A0270E080
:10510000759567957595679521C081FF06C060917B
:105110008A0270E07595679519C082FF04C060919E
:105120008A0270E010C090916B049923C1F06091E5
:1051300089029617A0F780918A02899FC0011124E5
:1051400070E00E94EF306038710528F46115710538
:1051500021F0862F08958FE7089581E0089561E09A
:1051600070E0F4CF803F21F40E943028819504C084
:10517000813F29F40E94302880936E040895823F75
:1051800021F40E943028819504C0833F29F40E94B5
:10519000302880936D040895893F19F40E9479287E
:1051A00005C08A3F31F40E947928819580936F046D
:1051B00008958B3F21F40E947928819504C08C3F8B
:1051C00029F40E947928809370040895843F21F483
:1051D00080916C04816017C0853F21F480916C043C
:1051E000826011C0863F21F480916C0484600BC002
:1051F000873F21F480916C04886005C0883F31F4BA
:1052000080916C04806180936C0408958D3F21F43B
:1052100080916A0481600BC08E3F21F480916A0402
:10522000826005C08F3F29F480916A048460809376
:105230006A040895803F39F480916E0487FF6CC042
:1052400010926E0469C0813F29F480916E04181693
:10525000BCF362C090916D04823F29F497FF5CC05B
:1052600010926D0459C0833F19F41916CCF354C041
:10527000893F41F480916F0418160CF04DC01092D4
:105280006F044AC08A3F29F480916F0487FF44C0AD
:10529000F6CF8B3F39F48091700487FF3DC01092A8
:1052A00070043AC08C3F29F4809170041816BCF346
:1052B00033C0843F21F480916C048E7F17C0853FFA
:1052C00021F480916C048D7F11C0863F21F4809180
:1052D0006C048B7F0BC0873F21F480916C04877F27
:1052E00005C0883F31F480916C048F7E80936C04FC
:1052F00013C08D3F21F480916A048E7F0BC08E3FD6
:1053000021F480916A048D7F05C08F3F29F480913C
:105310006A048B7F80936A0480916D0481110EC0B2
:1053200080916E0481110AC080916F04811106C0C2
:1053300080917004811102C010926B0408958CE674
:1053400094E00E947A1B0E94412790936904809305
:10535000680408951F93CF93DF9380916804909120
:1053600069040E944D27AC0190916B04992321F0B0
:1053700020918D0230E006C020918E028AE0289FA5
:10538000900111244217530708F486C080916D04E0
:10539000C0916E04D0916F0410917004811107C008
:1053A000C11176C0D11174C0111172C075C09F3F78
:1053B00019F09F5F90936B04181624F40E94302814
:1053C00080936D0480916D0487FF05C00E94302892
:1053D000819580936D041C1624F40E9430288093DC
:1053E0006E0480916E0487FF05C00E94302881956D
:1053F00080936E0460916D04662339F1C0916E0450
:10540000CC2319F1772767FD7095872F972F0E947E
:10541000112E23E333E343E35FE30E94212F0E9435
:10542000DE2D60936D046C2F772767FD7095872FB5
:10543000972F0E94112E23E333E343E35FE30E949F
:10544000212F0E94DE2D60936E041D1624F40E940D
:10545000792880936F0480916F0487FF05C00E94B4
:105460007928819580936F04111624F40E9479287D
:10547000809370048091700487FF05C00E94792892
:10548000819580937004DF91CF911F910C949F2997
:105490009F3F09F08ECF96CFDF91CF911F91089556
:1054A000ECE6F4E085E0DF011D928A95E9F71092C1
:1054B0006B0410926A040895833081F128F48130DE
:1054C00059F08230D1F00895853009F449C0B8F11F
:1054D000863009F456C0089580918E02262F30E060
:1054E000280F311D2F3F310524F4680F60938E0281
:1054F00008958FEF80938E02089580918D02262F5C
:1055000030E0280F311D2F3F310524F4680F6093E0
:105510008D0208958FEF80938D02089580918C0203
:10552000262F30E0280F311D2F3F310524F4680F5E
:1055300060938C0208958FEF80938C020895809180
:105540008B02262F30E0280F311D2F3F310524F428
:10555000680F60938B0208958FEF80938B020895FC
:1055600080918A02262F30E0280F311D2F3F310510
:1055700024F4680F60938A0208958FEF80938A0263
:10558000089580918902262F30E0280F311D2F3F8A
:10559000310524F4680F6093890208958FEF80939A
:1055A00089020895833011F128F4813049F0823066
:1055B00091F00895853081F120F18630C1F1089590
:1055C00080918E02681720F4861B80938E020895C6
:1055D00010928E02089580918D02681720F4861B28
:1055E00080938D02089510928D02089580918C020F
:1055F000681720F4861B80938C02089510928C0209
:10560000089580918B02681720F4861B80938B028B
:10561000089510928B02089580918A02681720F4F1
:10562000861B80938A02089510928A0208958091C1
:105630008902681720F4861B8093890208951092CE
:10564000890208950F931F93873208F048C08E3166
:1056500008F08DC0803109F477C008F5873009F46F
:1056600061C068F4863009F09DC080916204817F3A
:105670008E7F8093620481E08093720494C08B30AB
:1056800009F489C08E3009F08DC08091620482FBDC
:10569000222720F991E0922790FB82F95EC08631A3
:1056A00009F479C060F4813109F07CC00E94452082
:1056B0009091860281E08927809386026CC08931AF
:1056C00009F469C08B3109F06DC08091620481FBDF
:1056D000222720F991E0922790FB81F93EC0883380
:1056E00009F459C050F4893209F457C0853309F4DC
:1056F00054C0873209F451C055C0833409F44DC0F9
:1057000028F48A3308F44EC0895332C0883409F033
:1057100049C00E9445200E94EB0D0E94F1060E94A4
:105720009C2739C090916204892F8095817080FBFD
:1057300090F929F0966098609093620434C0997F44
:10574000977F9093620427C08091620483FB222795
:1057500020F991E0922790FB83F9809362049923CA
:10576000D1F08091620481608093620414C08D51F5
:1057700041E050E060E070E08A019B0104C0000F4E
:10578000111F221F331F8A95D2F7C901B8010E9449
:1057900005240E94452081E006C061E070E080E0C1
:1057A00090E0F5CF80E01F910F91089580E008957B
:1057B00080E00895CF93C82F80917204813069F002
:1057C00018F08230C9F184C0E0918702F09188021C
:1057D0008081823209F07EC007C0E0918702F0919B
:1057E00088028081823261F48C2F0E94D62B811135
:1057F00004C08C2F0E94222B1DC081E090E01AC0B3
:105800008C2F0E94D82B811114C0C43179F048F438
:10581000CB3079F0C03109F061C082E0809372042E
:1058200008C0C93219F0C83321F058C01092720470
:1058300055C081E0817054C0C93291F120F5C43166
:1058400079F1B0F4C73009F047C08EE180938E0241
:1058500082E380938D028AE080938C0284E18093BE
:105860008B0288E080938A0288E28093890234C0A8
:10587000CE51C63088F5EC2FF0E0EA5DFC4F808118
:105880008093710429C0CE34E9F020F4CB3421F5A3
:105890006AE013C0C13579F0C235F1F461E00DC0A2
:1058A00080917104882319F01092710415C081E071
:1058B0008093720415C061E006C0809171040E945B
:1058C0005C2A0AC06AE0809171040E94D22A04C056
:1058D0001092720480E004C081E002C080E0AACF90
:1058E000CF9108950E94FD27811102C00E94D927FF
:1058F0000E941E2880938D0480FF02C0869501C0FF
:1059000080E00C94770580918D04982F9695292F2F
:1059100030E0233031054CF49F5F990F8170892B63
:10592000816080938D040E94222880918D04869549
:105930000C94770580918D04982F969591F091584D
:10594000990F8170892B80938D048E7F91E009F4EB
:1059500090E080918D0490FB80F980938D040E94EB
:10596000222880918D0486950C94770580918D0472
:10597000982F909590FB80F980938D040E942228A7
:1059800080918D0480FF02C0869501C080E00C9458
:10599000770590918D04892F86958F5F8F77917011
:1059A000843028F4880F892B80938D0402C0909353
:1059B0008D0480918D048E7F91E009F490E08091B8
:1059C0008D0490FB80F980938D040E9422288091A1
:1059D0008D0486950C94770520918D04922F9695D1
:1059E0008927982F990F822F8170892B80938D049E
:1059F0008E7F91E009F490E080918D0490FB80F916
:105A000080938D040E94222880918D0486950C94A9
:105A1000770580918D04869508955058BB27AA2755
:105A20000ED0D1C1C2D130F0C7D120F031F49F3FA8
:105A300011F41EF4B7C10EF4E095E7FB9FC1E92F06
:105A4000D3D180F3BA17620773078407950718F05C
:105A500071F49EF5EBC10EF4E0950B2EBA2FA02D3C
:105A60000B01B90190010C01CA01A0011124FF270B
:105A7000591B99F0593F50F4503E68F11A16F04006
:105A8000A22F232F342F4427585FF3CF4695379505
:105A90002795A795F0405395C9F77EF41F16BA0BCA
:105AA000620B730B840BBAF09150A1F0FF0FBB1F78
:105AB000661F771F881FC2F70EC0BA0F621F731FC1
:105AC000841F48F4879577956795B795F7959E3F1E
:105AD00008F0B3CF9395880F08F09927EE0F9795AC
:105AE0008795089527D108F481E008950CD06BC103
:105AF00063D140F05AD130F021F45F3F19F03EC13C
:105B0000511195C14FC170D198F39923C9F3552311
:105B1000B1F3951B550BBB27AA27621773078407A0
:105B200038F09F5F5F4F220F331F441FAA1FA9F356
:105B300033D00E2E3AF0E0E830D091505040E69548
:105B4000001CCAF729D0FE2F27D0660F771F881FA9
:105B5000BB1F261737074807AB07B0E809F0BB0B98
:105B6000802DBF01FF2793585F4F2AF09E3F5105BC
:105B700068F004C15CC15F3FECF3983EDCF38695AE
:105B800077956795B795F7959F5FC9F7880F911D32
:105B90009695879597F90895E1E0660F771F881F1E
:105BA000BB1F621773078407BA0720F0621B730BD1
:105BB000840BBA0BEE1F88F7E095089504D0689423
:105BC000B11135C1089518D188F09F5790F0B92FC1
:105BD0009927B751A0F0D1F0660F771F881F991F42
:105BE0001AF0BA95C9F712C0B13081F01FD1B1E0F7
:105BF00008951CC1672F782F8827B85F39F0B93F07
:105C0000CCF3869577956795B395D9F73EF4909543
:105C10008095709561957F4F8F4F9F4F0895E894C1
:105C200009C097FB3EF490958095709561957F4FE4
:105C30008F4F9F4F9923A9F0F92F96E9BB27939592
:105C4000F695879577956795B795F111F8CFFAF4A2
:105C5000BB0F11F460FF1BC06F5F7F4F8F4F9F4FD3
:105C600016C0882311F096E911C0772321F09EE831
:105C7000872F762F05C0662371F096E8862F70E097
:105C800060E02AF09A95660F771F881FDAF7880F71
:105C90009695879597F9089588D018F011F08CD0D3
:105CA00038F480C0C4C0E92F9FD0B0F35523C9F3A6
:105CB000E7FB6217730784079507A8F199F3E92FAB
:105CC000FF2788232AF03197660F771F881FDAF79E
:105CD000952F5527442332F091505040220F331F07
:105CE000441FD2F7BB27E91BF50B621B730B840B18
:105CF000B109C1F222F4620F731F841FB11D3197E5
:105D00002AF0660F771F881FBB1FEFCF91505040BE
:105D10005AF041F0882332F0660F771F881F9150A8
:105D20005040C1F7939530C08695779567959F5FF2
:105D3000D9F7F8CF990F0008550FAA0BE0E8FEEF4E
:105D400016161706E807F907C0F012161306E4073F
:105D5000F50798F0621B730B840B950B39F40A2638
:105D600061F0232B242B252B21F408950A2609F416
:105D7000A140A6958FEF811D811D089597F99F671A
:105D800080E870E060E008959F3F31F0915020F48A
:105D9000879577956795B795880F911D9695879507
:105DA00097F908959FEF80EC089500240A94161641
:105DB000170618060906089500240A9412161306F9
:105DC000140605060895092E0394000C11F4882387
:105DD00052F0BB0F40F4BF2B11F460FF04C06F5FA3
:105DE0007F4F8F4F9F4F089557FD9058440F551F79
:105DF00059F05F3F71F04795880F97FB991F61F04D
:105E00009F3F79F087950895121613061406551FC3
:105E1000F2CF4695F1DF08C0161617061806991F2F
:105E2000F1CF86957105610508940895E894BB2724
:105E300066277727CB0197F908957CDF08F48FEF69
:105E400008950BD0C0CFB1DF28F0B6DF18F095234E
:105E500009F094CFA7CF1124EACFC6DFA0F3959F16
