:100000000C944B050C948F050C948F050C948F0564
:100010000C948F050C948F050C948F050C948F0510
:100020000C948F050C948F050C94C71E0C94991F8B
:100030000C94042D0C948F050C948F050C948F0553
:100040000C948F050C94F0050C948F050C948F057F
:100050000C948F050C946C2D0C948F050C948F05CB
:100060000C948F050C948F050C948F050C948F05C0
:100070000C948F050C948F050C948F050C948F05B0
:100080000C94810F0C948F050C948F050C948F05A4
:100090000C948F050C948F050C948F050C948F0590
:1000A0000C948F050C948F050C948F0558066A06E6
:1000B0007E0690069F06A906FD06FD06FD06FD06C6
:1000C000FD06FD06B706E706F90606202D201F21CE
:1000D0002D201F2179209C201F21F2200121EB23BC
:1000E000EB231A241A2459247924CF25CF258424DC
:1000F000CF25342534259B25A425CF25C925412589
:1001000041254125412541254125412541254125BF
:10011000412541254125412541254125412551259F
:100120005F2566256D25772507634236B79BD8A7DF
:100130001A39685618AEBAAB558C1D3CB7CC57630C
:10014000BD6DEDFD753EF6177231BF000000803FBA
:1001500008000000BE922449123EABAAAA2ABECDD6
:10016000CCCC4C3E00000080BEABAAAAAA3E000048
:100170000000BF000000803F000000000008417840
:10018000D3BB4387D1133D190E3CC3BD4282AD2B77
:100190003E68EC8276BED98FE1A93E4C80EFFFBE6F
:1001A00001C4FF7F3F0000000000000000000000CD
:1001B0000000000000010204060A0F17202C3A4A32
:1001C0005D71879DB3C7DAE9F5FCFFFCF5E9DAC795
:1001D000B39D87715D4A3A2C20170F0A060402016D
:1001E00000000000000000000000010801150109E6
:1001F00001190112010F0208021502090219021267
:10020000020F002B0014001A000800150017001C34
:100210000018000C00120013002A00290004001628
:1002200000070009000A000B000D000E000F00334C
:10023000003400E1001D001B00060019000500113C
:1002400000100036003700380028000530E000E2DA
:1002500000E30003302C002C000430500051005209
:10026000004F002B0014001A00090013000A000DB3
:10027000000F0018001C0033002A0029000400159C
:10028000001600170007000B00110008000C0012F8
:10029000003400E1001D001B000600190005000EDF
:1002A00000100036003700380028000530E000E27A
:1002B00000E30003302C002C0004305000510052A9
:1002C000004F002B0034003600370013001C0009DB
:1002D000000A00060015000F002A00290004001281
:1002E00000080018000C0007000B00170011001692
:1002F000003800E100330014000D000E001B000563
:100300000010001A0019001D0028000530E000E26E
:1003100000E30003302C002C000430500051005248
:10032000004F0035021E021F02200221022202237A
:100330000224022502260227022A004C003A003B32
:10034000003C003D003E003F002D022E022F0230F7
:1003500002310201004000410042004300440045D8
:1003600000320264020100010001000100010001ED
:100370000001000100010001000100AB00AA00A97A
:1003800000AE0035001E001F0020002100220023C7
:100390000024002500260027002A004C003A003BDC
:1003A000003C003D003E003F002D002E002F00309D
:1003B000003100010040004100420043004400457C
:1003C0000032006400010001000100010001000191
:1003D0000001000100010001000100AB00AA00A91A
:1003E00000AE001E001E001E001E001E001E001E8D
:1003F000001E001E001E001E001E00000014001A39
:10040000000800150017001C0018000C0012001353
:10041000002F000E3004001600070009000A000B30
:10042000000D000E000F00330034000D30000000FE
:10043000000600190000000000110010000000007C
:1004400000000000000000000000000000000000AC
:10045000000000000000000000000000000000009C
:10046000000000000000000000000000000000008C
:10047000000000000000000000000000000000007C
:100800000000000100005001000100010001000192
:100810000001000100010001004C00010001000185
:100820000020502150135012500030013002300C83
:100830003001000100275026502350245028502911
:100840005001000100010001000100010001000150
:100850000001000100010001000100010001000190
:100860000001002803540068006500200050006C5F
:100870000061006E0063006B0020004B0065007992
:100880000062006F0061007200640000002C034FE2
:10089000007200740068006F006C0069006E0065F3
:1008A000006100720020004B006500790062006F5B
:1008B0000061007200640073000000040309040971
:1008C00002C900060100A0FA0904000001030101A9
:1008D00000092111010001224000070581030800E1
:1008E0000A090401000103010200092111010001AC
:1008F000224D000705820308000A090402000103D3
:1009000000000009211101000122360007058303C0
:1009100008000A0904030001030000000921110175
:1009200000012239000705840310000109040400B6
:10093000000101000009240100010900010509046A
:100940000500020103000007240100014100062404
:10095000020101000624020202000924030103012E
:100960000201000924030204010101000905060235
:100970004000050000052501010109058502400030
:100980000500000525010103120110010000000807
:10099000EDFE606001000102000105010906A101F0
:1009A000050719E029E71500250195087501810261
:1009B0000508190129059505750191029501750331
:1009C0009101050719002977150025019578750112
:1009D0008102C005010980A101850216010026B728
:1009E000001A01002AB700751095018100C0050C9E
:1009F0000901A1018503160100269C021A01002AA3
:100A00009C02751095018100C005010902A1010930
:100A100001A1000509190129051500250195057594
:100A20000181029501750381010501093009311524
:100A300081257F95027508810609381581257F95E6
:100A40000175088106050C0A38021581257F95017C
:100A500075088106C0C005010906A101050719E056
:100A600029E7150025019508750181029501750892
:100A70008101050819012905950575019102950166
:100A8000750391010507190029FF150026FF009540
:100A90000675088100C011241FBECFEFDAE0DEBF6B
:100AA000CDBF04B603FE24C08091980590919905AE
:100AB000A0919A05B0919B058730904BA740B04B11
:100AC000B9F4109298051092990510929A05109217
:100AD0009B0514BE84B7877F84BF88E10FB6F89466
:100AE00080936000109260000FBEE0E0F8E309958B
:100AF00013E0A0E0B1E0ECE6FEE602C005900D9246
:100B0000AC34B107D9F715E0ACE4B3E001C01D92F5
:100B1000A839B107E1F70E94A01B0C9434370C945C
:100B20000000089581E0089508950C9491050C94B7
:100B300092050C9494050E94FE3223E030E0281BBD
:100B40003109220F209350030895282F2F98809168
:100B50008000211108C0877F8093800010928D0053
:100B600010928C001BC0886080938000233019F4A1
:100B70008FEF9FEF0FC083E090E0821B9109880FF9
:100B8000991F2FEF3FEFA90102C0569547958A950F
:100B9000E2F7CA0190938D0080938C000C949B0522
:100BA0000E949B0584E080934F0310924C030895AC
:100BB000279A2F988FEF9FEF90938700809386005E
:100BC0008AE08093800089E1809381000E946732EF
:100BD0000C94D0050E94D8056E9A769A0C941D0745
:100BE0001F920F920FB60F9211242F933F938F9362
:100BF0009F93EF93FF93E0914D03F0914E03CF014C
:100C0000019690934E0380934D0300904F0302C0D2
:100C1000F695E7950A94E2F7EF7380914C038230E2
:100C200019F4E03251F404C0813039F4EF3329F47F
:100C300080916F008D7F80936F00F0E0E655FE4F4E
:100C4000E49121E031E0E29FC001E39F900D112487
:100C50000090500302C0969587950A94E2F790930E
:100C60008D0080938C00FF91EF919F918F913F9128
:100C70002F910F900FBE0F901F901895CF93DF9379
:100C8000EC010E94052EBE0180E090E0DF91CF9143
:100C90000C94FA290F931F93462F50E04F305105C3
:100CA00008F0ABC0DC01FA01EA5AFF4F0C94F836A9
:100CB00012968C91882309F4A0C000E010E09801FE
:100CC00040E064E070E088E292E00E94FF1281E080
:100CD00090E011C012968C91882309F48EC000E038
:100CE00010E0980140E066E070E088EB91E00E943F
:100CF000FF1282E090E00E943E067FC012968C9127
:100D0000882309F47AC000E010E0980140E068E030
:100D100070E088EE91E00E94FF1284E090E0EBCF5B
:100D200012968C91882311F083E00EC083E00E941C
:100D3000982A40E164E083E00E94640D5EC0129650
:100D40008C91882321F084E00E94772AF2CF84E0FE
:100D5000EECF12968C91882331F085EE0E948F227F
:100D60000E94BE324AC085EE0E94572346C01296AA
:100D70008C91882309F441C00E94B40E00E010E079
:100D8000980140E066E070E088E891E00E94FF1280
:100D900084E00E94982A83E00E94982A80E10E94C1
:100DA000982A85E00E94772A0E94F22D811102C0C4
:100DB0000E94CE2D0E940A2E90E09093970580937A
:100DC00096058068809396050E940E2E16C0129696
:100DD0008C91882391F000E010E0980140E066E0FB
:100DE00070E088E591E00E94FF1285E00E94982A59
:100DF00004C012968C91811103C080E090E002C083
:100E00008AEE91E01F910F9108950F931F932FEF9A
:100E100089EF90E0215080409040E1F700C0000051
:100E200000E010E0980140E065E070E088E492E0C6
:100E30000E94FF121F910F9108950C9405070F93C4
:100E40001F9300E010E0980140E063E070E080E074
:100E500091E00E94FF122FEF82E597E02150804041
:100E60009040E1F700C000001F910F910C94B40E68
:100E70000F931F9300E010E0980140E068E070E0FD
:100E800088E191E00E94FF121F910F9108950C9448
:100E9000380781E008950C94490708950C94EA05F9
:100EA0008091A203882309F448C080915E03909149
:100EB0005F03009779F40E94362D90935F0380932F
:100EC0005E038091600390E0009771F4809161036C
:100ED00090E00AC00E94422D209170023091710270
:100EE0002817390740F329C00197880F991F880FE9
:100EF000991FFC01EE59FC4F6081718182819381C1
:100F00000E94E70EE091600384E0E89FF001112465
:100F1000EE59FC4F60817181828193814FE050E0F6
:100F20000E949F128091600390E00196609161039E
:100F300070E00E94E436809360030C949505109253
:100F4000A4030C94B40E81E08093A4030C9447078F
:100F500008958F929F92AF92BF92EF92FF920F935C
:100F60001F93CF93DF93CDB7DEB7A3970FB6F89457
:100F7000DEBF0FBECDBF8C01FC01E080F180C70158
:100F80000E94332BB7010E94460A7C01B8010E94DF
:100F90004B07882309F467C2F8E2EF16F0E5FF0675
:100FA00041F4F8018281882381F081E080935D0320
:100FB000CFC0F9E2EF16F0E5FF0639F4F8018281BF
:100FC000882319F010925D031BC080915D0381118D
:100FD00007C0F0E2EF16F0E5FF0609F06CC063C051
:100FE000F8014081228131814B3091F43330B9F5E1
:100FF000222309F438C2809174028F5F80937402B7
:1010000020E04BE760E080E994E00E945B152BC292
:101010004A3049F4333019F5222309F424C280916F
:1010200074028150EBCF493051F43330C1F42223A4
:10103000B1F0809172029091730201960BC048301A
:1010400071F4333061F4222351F080917202909157
:10105000730201979093730280937202D1CF8091B3
:101060007402480F90917202490F84E090E0831B54
:101070009109982F990F990F890F480F222339F062
:101080002FE760E080E994E00E946B1506C02FE72F
:1010900060E080E994E00E947B15FFEFEF16F10419
:1010A00008F097CFE0C1F8018281882309F45FC07E
:1010B0000E949613D8C1F1E2EF16F0E5FF0641F465
:1010C000F8018281882309F452C00E949F13CBC18A
:1010D000F2E2EF16F0E5FF0651F4F8018281882371
:1010E00009F445C00E9492138111EFCFE1CFF3E2E2
:1010F000EF16F0E5FF0639F4F80182818823B9F193
:101100000E94A307B0C1F4E2EF16F0E5FF0639F440
:10111000F8018281882359F10E949F07A4C1F5E25A
:10112000EF16F0E5FF0649F4F80182818823F9F013
:101130008091A4038111F0CFE3CFF6E2EF16F0E542
:10114000FF0649F4F8018281882389F00E94A613E2
:101150000E94380788C1F7E2EF16F0E5FF0639F480
:10116000F8018281882319F00E94B113F1CF809198
:10117000A403811105C0F80182818111D6C023C169
:10118000F0EEEF16F10479F4F8018281882309F476
:1011900052C00E94B40E81E08093A3031092A20378
:1011A0001092610360C1F2EEEF16F10461F4F801F0
:1011B0008281882309F43FC00E94B40E1092A303D9
:1011C0001092A20350C1F3EEEF16F10491F4F8016E
:1011D0008281882381F10E94B40E1092A30381E0E2
:1011E0008093A2031092600310925F0310925E033B
:1011F0003AC1F2E5EF16F10459F4F801828188232F
:1012000009F431C180917002909171020A970EC069
:10121000F1E5EF16F10479F4F8018281882309F4ED
:1012200022C180917002909171020A96909371028E
:101230008093700218C14091740283E2EBE9F2E0FE
:10124000DE01119601900D928A95E1F7F8018081F7
:1012500021E030E02C0F3D1F280F311DC9012091E6
:10126000720230917302FC01E20FF31F6081772755
:1012700067FD7095640F711D882777FD8095982F05
:101280000E94063420E030E040E451E40E946B33D9
:101290004B015C01F801218184E090E0821B9109FF
:1012A000BC01882777FD8095982F0E9406349B010A
:1012B000AC01C501B4010E9403339B01AC0160E0A5
:1012C00070E080E090E40E94793520E030E04CED61
:1012D00050E40E9416354B015C01F801828188239D
:1012E000D1F04FE050E0C501B4010E949F128091FF
:1012F000A3038823A1F08091610324E0829FF00181
:101300001124EE59FC4F80829182A282B3828F5FBA
:101310008093610304C0C501B4010E94E70E3FEF52
:10132000E316F10408F027CF9EC080915C03811181
:1013300020C084E1E81680E5F80609F055C00E9457
:101340004D0781E080935C030E94362D90935B03F0
:1013500080935A0310925303109255031092540332
:10136000109257031092560310925903109258038B
:101370007AC080915A0390915B030E94422D883C71
:10138000910570F480915303E82FF0E0EE0FFF1FFA
:10139000EC5AFC4FF182E0828F5F8093530363C06D
:1013A00094E8E91690E5F90631F0E5E8EE16E0E597
:1013B000FE0621F140C0F8018281882349F0109295
:1013C000510382E022C034E8E31630E5F30671F5FC
:1013D00080915103811106C086E20E948F2286E22D
:1013E0000E94572382E01FC0F4E8EF16F0E5FF06E5
:1013F00031F325E8E21620E5F206E9F4F8018281EE
:10140000882331F01092520380E20E94A6232BC061
:1014100080915203811106C087E20E948F2287E2E9
:101420000E94572380E20E94AD231DC085E8E81684
:1014300080E5F80619F381E080935103809352030D
:10144000C801A3960FB6F894DEBF0FBECDBFDF91E3
:10145000CF911F910F91FF90EF90BF90AF909F9011
:101460008F900C94970580E0A3960FB6F894DEBF9A
:101470000FBECDBFDF91CF911F910F91FF90EF90E5
:10148000BF90AF909F908F90089508959CE0799FB2
:10149000F001112490E3899FE00DF11D1124E60F66
:1014A000F11DEE0FFF1FED5FFD4F859194910895A3
:1014B000880F991FFC01ED57FF4F85919491089576
:1014C000880F991FFC01ED5FFD4F85919491089560
:1014D0000F931F93CF93DF93EC01811521E39207C4
:1014E000A0F5C11580E3D80708F0D7C0C83ED105E4
:1014F000D8F4C03ED10508F007C2C83AD10578F447
:10150000C53AD10508F06AC0C130D10509F463C0FD
:1015100008F4F7C1C430D10508F0F6C1F2C1CB3BE5
:10152000D10508F466C0EDC1C11590E2D90708F0F5
:10153000AFC0C11521E0D20708F0E6C1C03FD10518
:1015400008F4DFC18E0110651FC2C03880E5D807DE
:1015500000F5C03790E5D90708F0A3C0C11520E514
:10156000D20709F4ACC050F4CE01905480319F40B2
:1015700008F0C7C1DF708E01106A06C2C13080E575
:10158000D80709F4AEC0C43190E5D90708F4AFC05C
:10159000B8C1C33820E5D20709F48EC050F4C13871
:1015A00090E5D90709F482C008F083C000E011ED8E
:1015B000EBC1C03181E5D80708F4A3C1C11597E597
:1015C000D90708F436C1CE0190578115904108F033
:1015D00098C1DF7093C101E010E0D6C1C53AD105D2
:1015E00009F494C1C63AD10509F093C102E810E4A8
:1015F000CBC1C83AD10509F48FC1C93AD10509F464
:101600008EC1CA3AD10509F48DC1CB3AD10509F48E
:101610008CC1CC3AD10509F48BC1CD3AD10509F47E
:101620008AC1C03BD10509F489C1CE3AD10509F47C
:1016300088C1CF3AD10509F487C1C13BD10509F46E
:1016400086C1C23BD10509F485C1C33BD10509F46C
:1016500084C1C43BD10509F483C1C53BD10509F45C
:1016600082C1C63BD10509F481C1C73BD10509F44C
:1016700080C1C83BD10509F47FC1C93BD10509F43C
:101680007EC1CA3BD10509F47DC100E014E47CC1F0
:10169000CE019F700E94600A78C1DD278E01106C18
:1016A00073C1CF70DD278E01146D6EC100E010EDA7
:1016B0006BC100E012ED68C100E013ED65C10E944E
:1016C0003A260E94B40E0E941F078FEF94E32CE08D
:1016D000815090402040E1F700C000000E94912D11
:1016E00053C180917F04816080937F044DC10E942B
:1016F000F22D811102C00E94CE2D0E940A2E90E090
:101700009093970580939605C23080E5D80721F421
:1017100080919605816086C0C43090E5D90721F498
:101720008091960582607EC0C63020E5D20721F404
:1017300080919605846076C0C83080E5D80719F49A
:101740008091960527C0CA3090E5D90721F4809191
:101750009605806167C0CC3020E5D20721F48091E6
:10176000960580625FC0CE3080E5D80721F4809175
:101770009605806457C0C03190E5D90721F4809167
:10178000960580684FC0C23120E5D20729F48091C8
:1017900096058460886046C0C33080E5D80721F490
:1017A000809196058E7F3EC0C53090E5D90721F423
:1017B000809196058D7F36C0C73020E5D20721F491
:1017C000809196058B7F2EC0C93080E5D80719F42B
:1017D0008091960526C0CB3090E5D90721F4809101
:1017E00096058F7E1FC0CD3020E5D20721F4809171
:1017F00096058F7D17C0CF3080E5D80721F4809102
:1018000096058F7B0FC0C13190E5D90721F48091F7
:1018100096058F7707C0C331D04531F48091960586
:101820008B7F877F80939605809196050E940E2E70
:10183000ABC08D2F99278F70992781309105D9F4EE
:101840009E012370332702C0880F991F2A95E2F763
:101850009C688E0144E0000F111F4A95E1F70027B4
:101860001370802B912B53E0CC0FDD1F5A95E1F7BD
:10187000C076DD272FC08230910531F4DC2FCC27D4
:101880008E01016F106A80C08330910569F4CE012A
:101890008370992701E010E002C0000F111F8A95A4
:1018A000E2F7C8019C680FC084309105B9F4CE01FD
:1018B0008370992701E010E002C0000F111F8A9584
:1018C000E2F7C8019A6823E0CC0FDD1F2A95E1F703
:1018D000C07ED7708C010C2B1D2B56C08530910516
:1018E00031F4DC2FCC278E01046F106A4DC00697AF
:1018F00009F04AC0CF71DD27DC2FCC278E011062A2
:1019000043C000E010E040C08E013EC001E810E49A
:101910003BC003E810E438C002EE14E435C009EE21
:1019200014E432C00AEE14E42FC005EB14E42CC01A
:1019300006EB14E429C007EB14E426C00CEC14E415
:1019400023C00DEC14E420C003E815E41DC00AE830
:1019500015E41AC002E915E417C004E915E414C03F
:1019600001E216E411C003E216E40EC004E216E43C
:101970000BC005E216E408C006E216E405C007E263
:1019800016E402C00AE216E4C801DF91CF911F916C
:101990000F9108959CE0799FF001112490E3899FB5
:1019A000E00DF11D1124E60FF11DEE0FFF1FED5F9D
:1019B000FD4F85919491803E9105E0F4803C910526
:1019C00058F58133910509F46FC048F489329105C7
:1019D00009F463C08A32910509F46DC072C089337D
:1019E0009105E9F082389105D1F08533910509F42C
:1019F0004DC067C0833E910581F138F4803E91056A
:101A0000B9F0823E9105D9F05CC0863E910561F146
:101A1000873E9105A1F155C00E94580A0895209172
:101A2000960520FD02C021FF4CC080EE90E049C029
:101A30008091960580FFF9CF89E390E042C08091C4
:101A4000960582FF0EC08091960584FF03C080E05A
:101A500090E037C083EE90E034C08091960582FF1D
:101A6000F2CF82EE90E02DC08091960583FF0BC0EF
:101A70008091960584FDEBCF87EE90E022C08091A7
:101A8000960583FFF5CF86EE90E01BC0809196050A
:101A900085FF07C089E290E014C08091960585FF1C
:101AA000F9CF85E390E00DC08091960586FF07C0D1
:101AB0008AE290E006C08091960586FFF9CF81E327
:101AC00090E00E94680A0895CF92DF92EF92FF9211
:101AD0000F931F9301E010E020E030E068017901EE
:101AE00004C0CC0CDD1CEE1CFF1C8A95D2F704C090
:101AF000000F111F221F331F6A95D2F70C291D29D1
:101B00002E293F29C0906204D0906304E0906404C1
:101B1000F0906504C022D122E222F322842FC01665
:101B2000D106E206F30641F41F910F91FF90EF906A
:101B3000DF90CF900C94772A1F910F91FF90EF9038
:101B4000DF90CF900C94982A0C949905E82FF0E040
:101B5000E653FD4F8081E82FEF70F0E082958F70A3
:101B600021E030E0A90102C0440F551F8A95E2F739
:101B700040A308950F931F93CF93DF9385B7806899
:101B800085BF85B7806885BFC3E0D0E001E010E085
:101B9000FE01E653FD4F8081E82FEF70F0E021A1B8
:101BA00082958F70A80102C0440F551F8A95E2F7F5
:101BB000CA01822B81A38C2F0E94A60D219740F78A
:101BC0008BE090E061E070E0FC01E254FD4F208189
:101BD000E22FEF70F0E042A122952F70DB0102C0EE
:101BE000AA0FBB1F2A95E2F79D01242B22A3019780
:101BF00058F7DF91CF911F910F910C944E07EF9200
:101C0000FF920F931F93CF93DF930DEA13E0C3E08E
:101C1000EE24E394F12CD5E08C2F0E94A60D8BE0EE
:101C200090E040E050E0FC01E254FD4F6081E62F7F
:101C3000EF70F0E020A130E062956F7002C0359542
:101C400027956A95E2F720FD09C09701082E02C08A
:101C5000220F331F0A94E2F7422B532B019718F7F8
:101C6000F801929182918F018417950721F0518399
:101C70004083D09375028C2F0E94A60DC15060F650
:101C80008091750287FD2CC08150809375028F3F33
:101C900039F08FE99FE00197F1F700C0000020C004
:101CA0008091AB039091AC039093B4038093B30302
:101CB0008091A9039091AA039093B2038093B103FA
:101CC0008091A7039091A8039093B0038093AF03F2
:101CD0008091A5039091A6039093AE038093AD03EA
:101CE0000E94500781E0DF91CF911F910F91FF90EB
:101CF000EF900895E82FF0E0EE0FFF1FE355FC4F43
:101D000080819181089508950F931F93CF9305EBE0
:101D100013E0C0E0F801929182918F010E94AE2CF5
:101D2000C80FF3E00D3A1F07A9F78C2FCF911F9131
:101D30000F9108950E94F22D811102C00E94CE2DB4
:101D40000E941C2E809381053E9A809171008D7FA8
:101D50008093710082E0809390008AE180939100EB
:101D600081E08093B70308958091B703811102C089
:101D70000E949A0E1092070410920604809171003E
:101D80008D7F80937100809190008F73809390007D
:101D90001092C9031092C80310920004109201041B
:101DA00010920204109203041092FF031092FE039B
:101DB000EEEDF3E0AEECB3E01192119211921192BC
:101DC0001D921D9283E0EE3FF807B1F70895CF9280
:101DD000DF92EF92FF920F931F93CF93DF932091A7
:101DE000C803222309F484C06B017C018091B703EE
:101DF000811102C00E949A0E0EEF13E0C7E0D0E0FE
:101E0000A7019601F80192918291729162918F01DE
:101E10000E946733811131C0FE01EE0FFF1FEE0FEC
:101E2000FF1FE252FC4F1082118212821382DE01E8
:101E3000AA0FBB1FA253BC4F11961C921E92C73013
:101E4000D105E9F0219644815581668177814083EF
:101E500051836283738314821582168217821296CD
:101E60008D919C91139711969C938E9313961C922F
:101E70001E92129734961296E2CF219708F680911F
:101E8000060490910704019797FD05C090930704FD
:101E90008093060404C010920704109206048091F7
:101EA000060490910704209104043091050428173A
:101EB000390724F01092050410920404892BC1F410
:101EC000809171008D7F80937100809190008F735D
:101ED000809390001092000410920104109202046A
:101EE000109203041092FF031092FE031092C80395
:101EF000DF91CF911F910F91FF90EF90DF90CF90E6
:101F000008951F920F920FB60F9211244F925F9275
:101F10006F927F928F929F92AF92BF92CF92DF92F9
:101F2000EF92FF922F933F934F935F936F937F9323
:101F30008F939F93AF93BF93CF93DF93EF93FF93D1
:101F40008091C803882309F49BC1C0910604D091F5
:101F500007041C161D060CF093C14090B803509066
:101F6000B9036090BA037090BB0320E030E0A90190
:101F7000C301B2010E94123518160CF065C0C130C1
:101F8000D10509F452C08091040490910504BE016A
:101F90000E94E4367C0190930504809304048090B1
:101FA000CA039090CB03A090CC03B090CD0320E067
:101FB00030E040E85FE3C501B4010E940333609361
:101FC000CA037093CB038093CC039093CD03F701A6
:101FD000EE0FFF1FEE0FFF1FE252FC4FA301920115
:101FE00060817181828193810E946B3320E030E0B7
:101FF00040E05EE30E9416359B01AC01C501B401CF
:102000000E94123518168CF4C7010196BE010E9479
:10201000E43690930504809304041092CA0310924E
:10202000CB031092CC031092CD03E0910404F09105
:102030000504EE0FFF1FEE0FFF1FE252FC4F608101
:10204000718182819381D0C0C0900004D09001043E
:10205000E0900204F090030420E030E0A901C70101
:10206000B6010E9467332197882309F4A2C0FE01BC
:10207000EE0FFF1FEE0FFF1FE252FC4F808091809A
:10208000A280B380A5019401C701B6010E94673305
:1020900087FF31C0A501940160E070E08CED93EC06
:1020A0000E946B3320E030E040E451E40E946B3347
:1020B00020E030E040E05FE30E9416359B01AC0178
:1020C00060E070E080E090E40E9479359B01AC0113
:1020D000C501B4010E9416359B01AC01C701B601D0
:1020E0000E94673387FF07C0A701960160E070E098
:1020F0008CED93E439C0A5019401C701B6010E949B
:10210000123518160CF055C0A501940160E070E07E
:102110008CED93E40E946B3320E030E040E451E426
:102120000E946B3320E030E040E05FE30E94163510
:102130009B01AC0160E070E080E090E40E947935A2
:102140009B01AC01C501B4010E9416359B01AC0195
:10215000C701B6010E94123518165CF5A701960159
:1021600060E070E08CED93EC0E946B3320E030E097
:1021700040E451E40E946B3320E030E040E05FE354
:102180000E9416359B01AC0160E070E080E090E4B5
:102190000E9479359B01AC01C701B6010E9416353A
:1021A00060930004709301048093020490930304ED
:1021B00013C0FE01EE0FFF1FEE0FFF1FE252FC4F98
:1021C00080819181A281B381809300049093010466
:1021D000A0930204B0930304609100047091010481
:1021E00080910204909103042091B5033091B603CD
:1021F0002F3F4FEF340731F02F5F3F4F3093B6033F
:102200002093B5030E94BC136B017C0120E034E2F3
:1022100044EF51E40E94673387FF08C086EFC82E61
:1022200088E2D82E84EFE82E81E4F82E20E030E01A
:1022300040E051E4C701B6010E9416359B01AC0194
:1022400060E074E284E79BE40E946B336B017C01E5
:102250000E94D83370939700609396002091760285
:10226000309177024091780250917902C701B6010E
:102270000E9416350E94D83370939900609398009D
:102280008091C903882309F433C1C090C403D0905E
:10229000C503E090C603F090C70320E030E0A90139
:1022A000C701B6010E9412351816D4F58091B50306
:1022B0009091B6038F3F2FEF920729F001969093EC
:1022C000B6038093B503C701B6010E94BC1320E09A
:1022D00030E040E051E40E9416359B01AC0160E023
:1022E00074E284E79BE40E946B336B017C010E94E3
:1022F000D8337093970060939600209176023091C6
:1023000077024091780250917902C701B6010E948C
:1023100016350E94D833709399006093980008C0D6
:1023200010929700109296001092990010929800C7
:102330006091BE037091BF036F5F7F4F7093BF03C7
:102340006093BE03209196003091970080E090E06A
:10235000232BF1F0C0919600D09197000E94043495
:102360006B017C01BE0180E090E00E9404349B017F
:10237000AC016091C0037091C1038091C203909140
:10238000C3030E946B3320E03FEF4FE757E410C0D8
:102390000E9404346B017C0120E030EE4FEF54E4E6
:1023A0006091C0037091C1038091C2039091C303F7
:1023B0000E9416359B01AC01C701B6010E9412357F
:1023C00087FD96C08091BC038F5F8093BC0390E033
:1023D00020917D0530917E0582179307A0F08091B2
:1023E0008805882319F01092BC030DC080917100FC
:1023F0008D7F80937100809190008F738093900007
:102400001092C9037DC08091BD03C091BC038111AE
:1024100028C0C0908205D0908305E0908405F0909C
:10242000850520E030E0A901C701B6010E94123500
:102430001816BCF481E08093BD031092C40310927F
:10244000C5031092C6031092C703C092C003D09276
:10245000C103E092C203F092C303C150C093BC0316
:1024600043C01092BD031092B6031092B503E091E1
:102470007F05F091800548E0C49FE00DF11D112417
:1024800080819181A281B3818093C4039093C5031D
:10249000A093C603B093C70320E030E040E85EE3BA
:1024A00064817581868197810E9416356B017C015C
:1024B00080917A02682F70E080E090E00E940434FE
:1024C00020E030E048EC52E40E946B339B01AC0109
:1024D000C701B6010E9416356093C0037093C10313
:1024E0008093C2039093C3031092BF031092BE0364
:1024F0008091810580FD04C01092C9031092C80329
:10250000FF91EF91DF91CF91BF91AF919F918F910B
:102510007F916F915F914F913F912F91FF90EF903D
:10252000DF90CF90BF90AF909F908F907F906F90F3
:102530005F904F900F900FBE0F901F901895CF9205
:10254000DF92EF92FF92CF93DF936B017C01EA0160
:102550008091B703811102C00E949A0E809181057B
:1025600080FF46C0809106049091070408970CF004
:102570003FC0809171008D7F809371008091C9036D
:1025800081110E94B40E81E08093C8031092B603BB
:102590001092B50320E030E0A901C701B6010E9406
:1025A00012351816DCF48091060490910704FC01A2
:1025B000EE0FFF1FEE0FFF1FE252FC4FC082D182D1
:1025C000E282F382FC01EE0FFF1FE253FC4FD18346
:1025D000C083019690930704809306048091710054
:1025E0008260809371008091900080688093900059
:1025F000DF91CF91FF90EF90DF90CF9008958F9271
:102600009F92AF92BF92CF92DF92EF92FF920F9381
:102610001F93CF93DF93EC017B01D42E4801590126
:102620008091B703811102C00E949A0E80918105AA
:1026300080FF6BC0809171008D7F809371008091CD
:10264000C80381110E94B40E81E08093C903D09326
:102650008005C0937F05F0927E05E0927D05D092C3
:1026600088058092820590928305A0928405B0929D
:1026700085051092CA031092CB031092CC031092DE
:10268000CD031092BC0388819981AA81BB8180937C
:10269000C4039093C503A093C603B093C70320E07F
:1026A00030E040E85EE36C817D818E819F810E94F5
:1026B00016356B017C0180917A02682F70E080E012
:1026C00090E00E94043420E030E048EC52E40E94A4
:1026D0006B339B01AC01C701B6010E9416356093B4
:1026E000C0037093C1038093C2039093C3031092FD
:1026F000BF031092BE0380917100826080937100CD
:1027000080919000806880939000DF91CF911F911D
:102710000F91FF90EF90DF90CF90BF90AF909F9080
:102720008F90089580918105817008958091810531
:102730008160809381050E94202E0C94A8078091CF
:1027400081058E7F809381050C94202E8091080452
:1027500090E0019666E070E00E94E4368093080401
:1027600008958091080490E0019766E070E00E946F
:10277000E4368093080408958F929F92AF92BF929F
:10278000CF92DF92EF92FF920F931F93CF93DF933D
:102790006B017C01C091B503D091B603BE0180E00E
:1027A00090E00E9404344B015C01A701960160E0B7
:1027B00070E08CE594E40E946B339B01AC01C50191
:1027C000B4010E9416350E94D833209108042330AA
:1027D00009F473C028F4222351F02130E9F02CC110
:1027E000243009F4A0C0253009F4E0C025C180E000
:1027F00090E0A0E0BFE38093760290937702A093ED
:102800007802B09379021092B8031092B903109233
:10281000BA031092BB0310C11092B8031092B9030F
:102820001092BA031092BB036431710540F46A3010
:10283000710560F520E030E040E85EE32BC0693CC4
:10284000710508F0AAC080E090E00E94043420E006
:1028500030E040EA51E40E94023320E030E044E3FB
:1028600053E40E946B339B01AC010E94163520E0BB
:1028700030E040E05EE30E9416359B01AC0160E071
:1028800070E080E09EE30E94023344C020E030E02C
:1028900040E05FE3C701B6010E9416356B017C0181
:1028A00080E090E0A0E0BEE3809376029093770210
:1028B000A0937802B0937902BFC01092B80310922F
:1028C000B9031092BA031092BB034AE0469F9001ED
:1028D000479F300D1124C90168EB7BE00E94D03680
:1028E000BC016C5D754077FF03C0719561957109FE
:1028F000882777FD8095982F0E9406342EE333ECCD
:102900004EE259E30E94163520E030E040EC5EE3F1
:102910000E9403336093760270937702809378026B
:102920009093790289C01092B8031092B903109263
:10293000BA031092BB03CE0183709927892BE1F073
:10294000BE016170772780E090E00E94043420E0AF
:1029500030E040E05EE30E94163520E030E040E4E5
:102960005FE30E9403336093760270937702809353
:102970007802909379020CC080E090E0A0E0BFE381
:102980008093760290937702A0937802B0937902B5
:10299000C770DD27CD2B09F04FC010927602109240
:1029A0007702109278021092790246C01092B80312
:1029B0001092B9031092BA031092BB0300E010E02A
:1029C00020E03FE300937602109377022093780291
:1029D000309379026739710578F180E090E00E94C8
:1029E000043420E030E047E153E40E94023320E069
:1029F00030E04AE754E40E946B3320E030E048E4E2
:102A000052E40E94163520E030E040EA51E40E9492
:102A100048340E94D333660F771F660F771FFB0180
:102A2000E253FD4F2081318142815381C701B601BC
:102A30000E9416356B017C01C701B601DF91CF9171
:102A40001F910F91FF90EF90DF90CF90BF90AF90CC
:102A50009F908F900895881F8827881F089591E080
:102A6000883F08F490E0892F0895982F907F903B3D
:102A7000F1F038F49039D9F0903AC9F09038C9F4AF
:102A800016C0903D49F018F4903C31F012C0903ED1
:102A900071F0903F19F00DC082E00895815F8F3092
:102AA00040F4E82FF0E0E25EFC4F8081089583E07F
:102AB000089580E008950F93022F0F77242F2F772A
:102AC0006F70462F406BDC01ED91FC9163E070E08C
:102AD00009950F9108950F93022F0F77242F2F77C9
:102AE0006F70462F4069DC01ED91FC9163E070E06E
:102AF00009950F9108950F93022F0F77242F2F77A9
:102B00006F70462F4068DC01ED91FC9163E070E04E
:102B100009950F910895FC01738362830895FC0168
:102B2000738F628F0895FC01758F648F0895CF9322
:102B3000DF93EC011DA21FA21EA2BC01685D7F4FA6
:102B400040EC88519F4F0E94B8171B821A821D8249
:102B50001C821F821E82198618861B861A861D8675
:102B60001C861F861E86198A188A1B8A1A8A1D8A45
:102B70001C8A1F8A1E8A198E188E1B8E1A8E1D8E15
:102B80001C8E1F8E1E8E19A218A2DF91CF91089560
:102B9000EF92FF920F931F93CF93DF93162F042F83
:102BA000EA0188519F4F7C019C2F901B911728F4BC
:102BB0006991C7010E94BF17F7CFDF91CF911F9195
:102BC0000F91FF90EF900895FC0171836083089549
:102BD000FC0171A360A30895AF92BF92CF92DF92E0
:102BE000EF92FF920F931F93CF93DF9300D01F922A
:102BF000CDB7DEB77C016B01142FB22EA02EDC0105
:102C000095968C9195978430F1F45A96ED91FC91BC
:102C10005B97309709F4C0C0CB01019763E070E087
:102C20000E94D036CB01880F991F860F971F4983CA
:102C3000BA820B834C2D481B9E012F5F3F4FBC0176
:102C4000C7010995B6C06230710509F452C06330FE
:102C5000710529F06130710509F099C080C0842F99
:102C6000807F803AF9F058F48038B1F0803909F06B
:102C700093C0D7011496ED91FC9115972AC0803E20
:102C8000B9F0803FD9F0803B09F086C0D701129699
:102C9000ED91FC9113971DC0D7011696ED91FC9113
:102CA000179717C0D7011896ED91FC91199711C08D
:102CB000D7011A96ED91FC911B970BC0423F09F08A
:102CC0006BC0D7011C96ED91FC911D97309731F4A4
:102CD00063C0309709F460C0123F21F42A2D4B2DB8
:102CE00062EF04C02A2D4B2D612F6F70C70109952B
:102CF00060C0842F807F803D59F0803F79F0803C18
:102D000009F04AC0D7011E96ED91FC911F9718C09B
:102D1000D7015096ED91FC91519712C0433F31F489
:102D2000D7015296ED91FC91539707C0413FA1F511
:102D3000D7015496ED91FC915597309739F42CC0FA
:102D4000309751F1812F8D7F813F19F44B2D612FE9
:102D500003C04B2D612F6F70C70109952AC0842FC6
:102D60000E942F15882331F0D7015696ED91FC91E2
:102D7000579707C0163F81F4D7015896ED91FC9103
:102D80005997309749F0612FC701099512C06430F7
:102D9000710510F0C12CD12CD7015C96ED91FC91FE
:102DA0005D97309731F00A2D2B2D412FB601C701C9
:102DB0000995D7015E96ED91FC915F97309731F0C0
:102DC0000A2D2B2D412FB601C70109950F900F90A9
:102DD0000F90DF91CF911F910F91FF90EF90DF90B7
:102DE000CF90BF90AF900895FF920F931F93CF9312
:102DF000DF93EC01162F862F0E942F15882369F090
:102E0000FDA081E08DA300E020E0412F61E070E0B3
:102E1000CE010E94EC15FDA270C0812F0E942B15DF
:102E20004DA1882309F440C0443029F01AA381E061
:102E300090E09FA38EA3812F0E943515813031F041
:102E400070F0823051F0833041F02AC08DA300E051
:102E500020E0412F61E070E01EC08DA34EC0103F06
:102E6000B1F0173FE9F42EA13FA1C90163E070E082
:102E70000E94D036FE01E80FF91F12A3B9016F5F5F
:102E80007F4F7FA36EA30CA12BA14AA104C084E0B5
:102E90008DA31AA329C0CE010E94EC151DA22DC03E
:102EA0001DA21FA21EA229C0442339F12EA13FA1B9
:102EB000C90163E070E00E94D036FE01E80FF91FFF
:102EC00012A3B9016F5F7F4F7FA36EA3813091057D
:102ED00081F0029791F40CA12BA14AA1CE010E948E
:102EE000EC158DA1843049F081E090E09FA38EA382
:102EF00004C0423011F400E0EFCFDF91CF911F9179
:102F00000F91FF900895CF92DF92EF92FF920F936F
:102F10001F93CF93DF93EC01E8A1F9A1309709F05B
:102F200009956E0188EEC80ED11CC6010E94F117EA
:102F3000E12CF12C082F10E0E016F10680F460E09F
:102F4000C6010E940718682FCE010E94F41661E0A6
:102F5000C6010E9419188FEFE81AF80AEDCFDF9129
:102F6000CF911F910F91FF90EF90DF90CF90089538
:102F7000FC014283748363831182108208951F933E
:102F8000CF93DF93EC01162F0E943B18E82F298185
:102F900030E0C90101964A81642F70E00E94E43656
:102FA000488150E08417950729F48E2F0E943E181F
:102FB00080E013C08B819C81DC01A20FB31F1C93A6
:102FC000298130E0C90101966A8170E00E94E436EF
:102FD00089838E2F0E943E1881E0DF91CF911F914F
:102FE00008950F931F93CF938C010E943B18F80113
:102FF000C1812081C21718F4F8019281C90FC21B48
:103000000E943E188C2FCF911F910F910895FC01C3
:10301000808170E09B01280F311DC901628170E041
:103020000E94E4360380F481E02DE80FF91F8081CF
:1030300008950F931F93CF93DF931F92CDB7DEB701
:103040008C0169830E943B18482FF80180816981B7
:10305000262F30E0B901680F711DCB01628170E04D
:103060000E94E4368083842F0F90DF91CF911F91CF
:103070000F910C943E188FB7F89408958FBF089560
:1030800020918D052430D9F49B01FC0181818F7042
:103090008093E90040E050E064E070E0C9010E94E4
:1030A0006C1C81110FC09091E800892F807295FDF2
:1030B00008C09091E8009E779093E800089582E020
:1030C000089580E0089520918D052430A1F4FC013D
:1030D00081818F708093E9002091F3008091F2004C
:1030E00090E0922B892B49F08091E8008E778093B5
:1030F000E8000C941A1E82E0089580E00895FC0117
:1031000080918D05843059F491819F709093E900EE
:103110008091E80080FF03C0CF010C9463180895EC
:1031200020918D05243011F080E00895FC01868106
:103130008F708093E9008091E80082FFF5CF809145
:10314000E80085FFF1CFCB0140E050E064E070E0A3
:103150000E94B71C8091E80085FD05C08091E800C1
:103160008B778093E80081E0089580911904089599
:10317000CF93DF9300D01F92CDB7DEB79C01809133
:103180008D05843019F593E099833B832A839093CE
:10319000E9008FEF9091E800815095FD06C095ED14
:1031A0009A95F1F700008111F5CF8091E80085FF35
:1031B0000DC040E050E063E070E0CE0101960E9457
:1031C0006C1C8091E8008E778093E8000F900F9040
:1031D0000F90DF91CF910895CF93DF9300D01F928E
:1031E000CDB7DEB720918D05243021F522E029836B
:1031F0009B838A8383E08093E9008FEF9091E800BE
:10320000815095FD06C095ED9A95F1F7000081116A
:10321000F5CF8091E80085FF0DC040E050E063E00D
:1032200070E0CE0101960E946C1C8091E8008E77C0
:103230008093E8000F900F900F90DF91CF91089549
:1032400020918D052430F1F422E02093E9002FEF46
:103250003091E800215035FD06C035ED3A95F1F783
:1032600000002111F5CF2091E80025FF0BC040E0C0
:1032700050E065E070E00E946C1C8091E8008E7761
:103280008093E8000895CF93DF93EC0190918D0532
:10329000943009F046C0809191028823D9F0809142
:1032A00092028823B9F09093E9008FEF9091E800A3
:1032B000815095FD06C095E19A95F1F700008111C6
:1032C000F5CF8091E80085FF2CC040E050E060E140
:1032D00070E017C081E08093E9008FEF9091E800E3
:1032E000815095FD06C095ED9A95F1F7000081118A
:1032F000F5CF8091E80085FF14C040E050E068E021
:1033000070E0CE010E946C1C8091E8008E77809363
:10331000E80080E1FE01A9E0B4E001900D928A95F9
:10332000E1F7DF91CF910895EF92FF920F93CF9342
:10333000DF9300D000D000D0CDB7DEB77B014A8349
:103340002B830C83842F2E834D830E9435152E8171
:103350004D8181111BC082E0E816F10471F083E019
:10336000E816F10421F0EA94EF2821F50BC0073F9D
:1033700011F487E005C084E003C0273FE1F786E051
:10338000898307C0473FB9F785E0FACF42954F7070
:103390004983BE016F5F7F4F8BE792E00E94401828
:1033A0008BE792E00E9463188BE792E00E947F18FF
:1033B0000E94382126960FB6F894DEBF0FBECDBF0F
:1033C000DF91CF910F91FF90EF9008950F931F938E
:1033D000CF93DF93CDB7DEB727970FB6F894DEBF54
:1033E0000FBECDBF8C01BE016F5F7F4F8BE792E0B8
:1033F0000E9490188823B9F08A810E943515682FA1
:103400008A818D838B818E838C818F8361111FC014
:1034100099819430C9F09730B9F09630B9F0953071
:1034200011F761E014C08BE792E00E947F180E94C0
:10343000382127960FB6F894DEBF0FBECDBFDF91BF
:10344000CF911F910F91089563E001C062E0AE013A
:103450004B5F5F4FC8010E94C815C5CF0F931F93E4
:103460006330710509F04CC0622F842F807F803853
:1034700049F1803909F044C06F7770E080E090E056
:103480000E94063420E030E040E451E40E946B33B7
:103490009B01AC0160E070E080E090E40E9479352F
:1034A0000F7710E023E0159507952A95E1F72DECAD
:1034B0003CEC42E851E40E941635A8011F910F919F
:1034C0000C949F126F7770E080E090E00E940634C9
:1034D00020E030E040E451E40E946B339B01AC01FA
:1034E00060E070E080E090E40E9479352DEC3CECE7
:1034F00042E851E40E9416351F910F910C94E70E9B
:103500004C3F21F41F910F910C94B40E1F910F9119
:10351000089570E06F5F7F4F6F7077270C945B1595
:10352000BF92CF92DF92EF92FF920F931F93CF93B0
:10353000DF936C01B62E7901C0E0D0E0042F10E0DB
:10354000C017D10774F4F70141917F019C2F9B0DA7
:10355000292F2F774F776FE0C6010E945B152196C8
:10356000EFCFDF91CF911F910F91FF90EF90DF9000
:10357000CF90BF90089580918C05811109C00E9461
:103580004C1E0E94A91E8091E20084608093E2009C
:10359000089510928C050895089508950C94F92CBF
:1035A00042E061EC81E00E94C61D42E061EC82E0F5
:1035B0000E94C61D42E061EC83E00E94C61D42E10C
:1035C00061EC84E00E94C61D42E361E885E00E9450
:1035D000C61D42E360E886E00C94C61D80918F050D
:1035E000833009F455C030F4813071F0823009F431
:1035F0008EC008958A3009F47AC08B3009F460C017
:10360000893009F09CC020C080918E05813A09F074
:1036100096C08091E800877F8093E80080919205B2
:1036200090919305892B21F460E189E094E003C037
:1036300060E080E090E070E00E94021D8091E80070
:103640008B778093E800089580918E05813209F090
:1036500076C08091920590919305009719F0039799
:1036600009F06DC08091E800877F8093E800809129
:10367000E80082FD05C080918D058111F8CF5FC003
:103680008091F100809319048091E8008B7753C0FA
:1036900080918E05813A09F052C0809192059091F7
:1036A0009305892B09F04BC08091E800877F8093B8
:1036B000E8008091E80080FFFCCF8091910236C045
:1036C00080918E058132D9F5809192059091930574
:1036D000892BA9F58091E800877F8093E8000E94FC
:1036E000FB1D80919005809391020C943A26809165
:1036F0008E05813221F58091E800877F8093E80074
:103700000E94FB1D8091910580931A040895809179
:103710008E05813AA1F48091E800877F8093E800CC
:103720008091E80080FFFCCF80911A048093F10023
:103730008091E8008E778093E8000C94FB1D08953B
:1037400080E994E00E94971564E979E180E994E0CA
:103750000E94E41566EE79E180E994E00E94E815A4
:1037600084B7877F84BF88E10FB6F89480936000A8
:10377000109260000FBE80E880936100109261009B
:103780000E94A7210E944C1E0E94A91E8091E20067
:1037900084608093E20078946EE27AE180E994E0BC
:1037A0000E94931569E87AE180E994E00E948B1504
:1037B00060E97AE180E994E00E948F150E94382147
:1037C0000E94A92187E892E00E94532180918D05F3
:1037D000853069F40E94BA2C80918B058823B1F35F
:1037E0000E94E82C882391F30E94561CEFCF80E9B9
:1037F00094E00E9483170E94B121E8CF292F33273C
:1038000023303105C9F064F42130310581F02230D4
:10381000310509F043C089EC90E02FEB38E042C05D
:1038200021323105F1F02232310541F137C082E118
:1038300090E028E839E036C099278130910541F0C1
:103840008230910541F0892B49F5EBEBF8E005C09A
:10385000EDE8F8E002C0E3E6F8E0849190E09F0133
:1038600021C064307105D0F4660F771FFB01E75C5F
:10387000FC4F2081318189E090E014C064307105F3
:1038800068F4FB01EE0FFF1FEF5CFC4F20813181DC
:10389000FB01E35DFC4F808190E004C080E090E09C
:1038A00020E030E0FA0131832083089580E189BD72
:1038B00082E189BD09B400FEFDCF8091D8008F7DE3
:1038C0008093D8008091E00082608093E000809136
:1038D000E00081FDFCCF0895CF92DF92EF92FF923E
:1038E0000F931F93CF93DF93EC018B016A010E942A
:1038F0001A1E811133C0C114D10439F0F601808140
:103900009181081B190BC80FD91FE12CF12C01154F
:10391000110519F18091E80085FD16C08091E8003D
:103920008E778093E800C114D10449F0F6018081BC
:103930009181E80EF91EF182E08285E00FC00E94BD
:103940001A1E882321F30AC089918093F100015047
:103950001109FFEFEF1AFF0ADACF80E0DF91CF9174
:103960001F910F91FF90EF90DF90CF900895CF922D
:10397000DF92EF92FF920F931F93CF93DF93EC01AF
:103980008B016A010E941A1E811133C0C114D10437
:1039900039F0F60180819181081B190BC80FD91FDE
:1039A000E12CF12C0115110519F18091E80085FD3C
:1039B00016C08091E8008B778093E800C114D10491
:1039C00049F0F60180819181E80EF91EF182E082D2
:1039D00085E00FC00E941A1E882321F30AC080913F
:1039E000F100899301501109FFEFEF1AFF0ADACFB6
:1039F00080E0DF91CF911F910F91FF90EF90DF90CA
:103A0000CF9008952091940530919505261737079A
:103A100048F06115710539F42091E8002E77209364
:103A2000E80001C0B90140E061157105A9F12091DC
:103A30008D05222309F443C0253009F442C02091AA
:103A4000E80023FD40C02091E80022FD32C0209113
:103A5000E80020FFE9CF4091F3002091F20030E030
:103A6000342BFC01CF016115710559F02830310567
:103A700040F481918093F100615071092F5F3F4FB5
:103A8000F1CF41E02830310509F040E02091E80015
:103A90002E772093E800C8CF4111C9CF0AC080918A
:103AA0008D05882361F0853061F08091E80083FD09
:103AB0000AC08091E80082FFF2CF80E0089582E0A2
:103AC000089583E0089581E0089520919405309150
:103AD00095052617370748F06115710539F42091CF
:103AE000E8002E772093E80001C0B901FC0120E036
:103AF0006115710591F180918D05882309F440C00D
:103B0000853009F43FC08091E80083FD3DC080917D
:103B1000E80082FD2FC08091E80080FFE9CF20916E
:103B2000F3008091F20090E0922B6115710559F03D
:103B30008830910540F424912093F1003196615032
:103B400071090196F2CF21E0089709F020E08091F9
:103B5000E8008E778093E800CBCF2111CCCF0AC04C
:103B600080918D05882361F0853061F08091E800B7
:103B700083FD0AC08091E80082FFF2CF80E00895C3
:103B800082E0089583E0089581E00895982F9730AA
:103B900058F59093E900981739F07091EC00209156
:103BA000ED005091F00003C0242F762F50E021FF4C
:103BB00019C03091EB003E7F3093EB003091ED0067
:103BC0003D7F3093ED003091EB0031603093EB009E
:103BD0007093EC002093ED005093F0002091EE00E4
:103BE00027FF07C09F5FD3CF8F708093E90081E0EC
:103BF000089580E0089580918E0587FF11C080911F
:103C0000E80082FD05C080918D058111F8CF11C0BB
:103C10008091E8008B770BC080918D05882349F057
:103C20008091E80080FFF8CF8091E8008E77809344
:103C3000E80008952091E4003091E50095E6409178
:103C4000EC00842F817040FF22C08091E80080FD4D
:103C50001CC080918D05882391F0853091F0809172
:103C6000EB0085FD10C04091E4005091E500421743
:103C7000530729F39A01915011F784E0089582E0E7
:103C8000089583E0089581E0089580E008954091CB
:103C9000E80042FFDECF08950E94BA1E0E94C21EB5
:103CA000E0EEF0E0808181608083E8EDF0E08081EB
:103CB0008F77808319BCA7EDB0E08C918E7F8C93B9
:103CC00080818F7E808310928C0508950F931F93BF
:103CD000CF93DF930E94BA1E0E94C21EC8EDD0E0AF
:103CE00088818F77888388818068888388818F7DA9
:103CF000888319BC10928D051092890510928B054E
:103D000010928A0500EE10E0F80180818B7F80839D
:103D100088818160888342E060E080E00E94C61D67
:103D2000E1EEF0E080818E7F8083E2EEF0E0808142
:103D300081608083808188608083F80180818E7FAC
:103D40008083888180618883DF91CF911F910F915B
:103D50000895E8EDF0E080818F7E8083E7EDF0E06C
:103D600080818160808384E082BF81E080938C05C4
:103D70000C94661EE8EDF0E080818E7F80831092C7
:103D8000E20008951092DA001092E10008951F9267
:103D90000F920FB60F9211242F933F934F935F937F
:103DA0006F937F938F939F93AF93BF93EF93FF9303
:103DB0008091E10082FF0BC08091E20082FF07C08A
:103DC0008091E1008B7F8093E1000E9437218091F8
:103DD000DA0080FF1FC08091D80080FF1BC0809157
:103DE000DA008E7F8093DA008091D90080FF0DC0C9
:103DF00080E189BD82E189BD09B400FEFDCF81E08B
:103E000080938D050E94BB1A05C019BC10928D05C8
:103E10000E94C91A8091E10080FF19C08091E200E0
:103E200080FF15C08091E2008E7F8093E200809138
:103E3000E20080618093E2008091D80080628093EC
:103E4000D80019BC85E080938D050E94CD1A809121
:103E5000E10084FF30C08091E20084FF2CC080E14B
:103E600089BD82E189BD09B400FEFDCF8091D800F3
:103E70008F7D8093D8008091E1008F7E8093E10058
:103E80008091E2008F7E8093E2008091E200816069
:103E90008093E20080918905882311F084E007C0B7
:103EA0008091E30087FD02C081E001C083E0809340
:103EB0008D050E94CE1A8091E10083FF29C0809178
:103EC000E20083FF25C08091E100877F8093E100BD
:103ED00082E080938D05109289058091E1008E7FAC
:103EE0008093E1008091E2008E7F8093E2008091D8
:103EF000E20080618093E20042E060E080E00E94A6
:103F0000C61D8091F00088608093F0000E94CC1A5A
:103F1000FF91EF91BF91AF919F918F917F916F91A1
:103F20005F914F913F912F910F900FBE0F901F9077
:103F300018951F920F920FB60F9211242F933F9353
:103F40004F935F936F937F938F939F93AF93BF93A1
:103F5000CF93DF93EF93FF93C091E900CF708091EF
:103F6000EC00D82FD17080FDD0E81092E90080914C
:103F7000F000877F8093F00078940E94DD1F1092FC
:103F8000E9008091F00088608093F000CD2BCF7025
:103F9000C093E900FF91EF91DF91CF91BF91AF9175
:103FA0009F918F917F916F915F914F913F912F9151
:103FB0000F900FBE0F901F9018951F93CF93DF9314
:103FC000CDB7DEB7AA970FB6F894DEBF0FBECDBF50
:103FD000EEE8F5E088E08E0F9091F10091938E135A
:103FE000FBCF0E94EE1A8091E80083FF28C18091E8
:103FF0008E0590918F05492F50E04A30510508F009
:104000001EC1FA01EB59FF4F0C94F836803821F0AD
:10401000823809F014C108C080918A0590918B05FF
:10402000992389F082600FC0809192058F7087304C
:1040300008F005C18093E9008091EB0085FB88279B
:1040400080F91092E9009091E800977F9093E80042
:104050008093F1001092F100D0C0282F2D7F09F03D
:10406000EEC0882319F0823061F0E9C0809190059C
:10407000813009F0E4C0933009F080E080938B0533
:104080002EC08091900581112AC0809192058F7079
:104090002FEF280F263008F0D2C08093E90020913E
:1040A000EB0020FF1CC0933021F48091EB00806274
:1040B00014C09091EB0090619093EB0021E030E010
:1040C000A90102C0440F551F8A95E2F74093EA0008
:1040D0001092EA008091EB0088608093EB001092D0
:1040E000E9008091E800877F8093E8000E94FB1D33
:1040F000A6C08111A4C0109190051F778091E300A4
:104100008078812B8093E3008091E800877F809303
:10411000E8000E94FB1D8091E80080FFFCCF8091A9
:10412000E30080688093E300111102C082E001C0C7
:1041300083E080938D0583C08058823008F07FC073
:1041400080919005909191058C3D53E0950779F50C
:1041500083E08A838AE289834FB7F894DE0113965D
:1041600020E03EE051E2E32FF0E050935700E4916D
:1041700020FF03C0E295EF703F5FEF708E2F90E05D
:10418000EA3010F0C79601C0C0968D939D932F5FC3
:10419000243149F74FBF8091E800877F8093E80082
:1041A0006AE270E0CE0101960E94021D15C0609186
:1041B000920570919305AE014F5F5F4F0E94FE1B09
:1041C000BC010097E1F19091E800977F9093E8009F
:1041D00089819A810E94651D8091E8008B77809388
:1041E000E8002DC0803859F58091E800877F8093E2
:1041F000E800809189058093F1008091E8008E7736
:1042000073CF81111CC0909190059230C0F48091C1
:10421000E800877F8093E800909389050E94FB1D4A
:1042200080918905811106C08091E30087FD02C05D
:1042300081E001C084E080938D050E94D01A8091B6
:10424000E80083FF0AC08091E800877F8093E80040
:104250008091EB0080628093EB00AA960FB6F894F1
:10426000DEBF0FBECDBFDF91CF911F91089508959E
:10427000CF9380918D058823A1F0C091E900CF7084
:104280009091EC00892F817090FD80E8C82B1092EE
:10429000E9008091E80083FD0E94DD1FCF70C0938C
:1042A000E900CF9108959093200480931F0408950E
:1042B000E0911F04F0912004309721F00190F081EB
:1042C000E02D099480E00895E0911F04F09120040E
:1042D000309721F00280F381E02D09940895E09158
:1042E0001F04F0912004309721F00480F581E02D27
:1042F0000994089520911D0430911E04821793079C
:1043000071F090931E0480931D04E0911F04F091BE
:104310002004309721F00680F781E02D099408955C
:1043200020911B0430911C048217930771F0909325
:104330001C0480931B04E0911F04F091200430972B
:1043400021F00084F185E02D0994089508950C94DE
:10435000A6210E942D2D0E94BA0D0E94B32D0C940F
:1043600067325F926F927F928F929F92AF92BF92CD
:10437000CF92DF92EF92FF920F931F93CF93DF9331
:1043800000D000D01F92CDB7DEB70E94FF0D9AE299
:10439000C92E94E0D92E03E010E0AA24A394B12CF6
:1043A000502E802F0E947A0E4C01F601729062907E
:1043B0006F016826792661147104A1F40150110976
:1043C00078F78FEF89838A831B820E94362D816064
:1043D000782F9D838C8349815A816B818D810E94C6
:1043E000612238C080917F0481FD0E94830E2BE002
:1043F00030E07501022E02C0EE0CFF1C0A94E2F7B9
:10440000C70186219721892B09F129835A828E20A1
:104410009F2091E0892809F490E09B830E94362D2B
:104420008160782F9D838C8349815A816B818D8136
:104430000E946122000F111FF801EE5DFB4F808189
:104440009181E826F926F182E08204C021503109E9
:1044500080F6B4CF0E949F2F109121040E94582112
:104460001817D1F00E945821809321040F900F90CB
:104470000F900F900F90DF91CF911F910F91FF90B0
:10448000EF90DF90CF90BF90AF909F908F907F90F4
:104490006F905F900C94A40D0F900F900F900F9061
:1044A0000F90DF91CF911F910F91FF90EF90DF90D0
:1044B000CF90BF90AF909F908F907F906F905F90C4
:1044C0000895CF93DF93CDB7DEB72B970FB6F8944F
:1044D000DEBF0FBECDBF4F83588769877A878B8732
:1044E000DE01119686E0FD0111928A95E9F785E0DB
:1044F000FE01379601900D928A95E1F749815A8124
:104500006B817C818D819E810E94D8282B960FB66D
:10451000F894DEBF0FBECDBFDF91CF910895CF934A
:10452000882309F4C2C0C82F823859F40E94582148
:1045300081FDBBC089E30E94B22B0E947F2C89E3DE
:104540000CC0833879F40E94582180FDAEC083E509
:104550000E94B22B0E947F2C83E50E94F42BCF9106
:104560000C947F2C843859F40E94582182FD9DC000
:1045700087E40E94B22B0E947F2C87E4EECF8CEF61
:104580008C0F813A48F48C2F0E94CF3181118DC05D
:104590008C2F0E94B22BE3CF80E28C0F883048F43E
:1045A000C77081E001C0880FCA95EAF70E94382CD5
:1045B000D6CF8BE58C0F833078F4C53A29F0C63A14
:1045C00031F083E890E005C081E890E002C082E825
:1045D00090E0CF910C947A2188E58C0F833108F01C
:1045E00064C0C83A39F1C93A41F1CA3A49F1CB3A03
:1045F00051F1CC3A59F1CD3A61F1C03B69F1CE3A73
:1046000071F1CF3A79F1C13B81F1C23B89F1C33BF2
:1046100091F1C43B99F1C53BA1F1C63BA9F1C73B60
:10462000B1F1C83BB9F1C93BC1F1CA3BC9F180E066
:1046300090E038C082EE90E035C089EE90E032C064
:104640008AEE90E02FC085EB90E02CC086EB90E0E6
:1046500029C087EB90E026C08CEC90E023C08DEC65
:1046600090E020C083E891E01DC08AE891E01AC084
:1046700082E991E017C084E991E014C081E292E000
:1046800011C083E292E00EC084E292E00BC085E2AA
:1046900092E008C086E292E005C087E292E002C0A4
:1046A0008AE292E0CF910C949021CF9108958823D3
:1046B00009F44BC0823859F40E94582181FF45C04B
:1046C00089E30E94B22B0E947F2C89E30CC08338BF
:1046D00071F40E94582180FF38C083E50E94B22BFC
:1046E0000E947F2C83E50E94F42B0C947F2C84384D
:1046F00059F40E94582182FF28C087E40E94B22BFF
:104700000E947F2C87E4EFCF9CEF980F913A58F3EB
:1047100090E2980F983050F4877091E001C0990FA3
:104720008A95EAF7892F0E943E2CDFCF9BE5980FF0
:10473000933020F480E090E00C947A21885A833101
:1047400020F480E090E00C9490210895882321F0DB
:104750000E94382C0C947F2C0895882321F00E940D
:104760003E2C0C947F2C08957F928F929F92AF9253
:10477000BF92CF92DF92EF92FF920F931F93CF934E
:10478000DF931F92CDB7DEB77C01C62E772EFC01DA
:10479000058102950F70128111110E94552C0E9403
:1047A000AB2B882379F0112369F080E28C0D8830DF
:1047B00048F082E00E94942B0E94AB2B91E0D82E0F
:1047C000D92601C0D12CE72DE295EF70F0E0E15938
:1047D000FF4F0C94F836872D807F072D0F708823AC
:1047E00011F00295007F112389F0002309F499C18B
:1047F00080E28C0D883020F4802F0E94382C03C07A
:10480000802F0E94482C0E947F2C8BC18C2D0E94EF
:104810005723002309F4C3C180E28C0D883020F4B3
:10482000802F0E943E2C03C0802F0E944E2C0E949D
:104830007F2CB5C1872D807F972D9F70803211F41A
:10484000892F03C0892F8295807FCC2021F0F1E051
:10485000CF16A1F01DC0112339F0002319F101304A
:1048600009F50E94682C9BC1002319F0013009F45E
:1048700096C189830E946B2C898110C1112321F07C
:10488000063008F08CC10EC0053008F088C106C1A2
:10489000112359F0002331F0F701958190FF41C1B8
:1048A0009F7095830E94A6237AC1002309F4F6C065
:1048B0003EC1872D86958695837090E0009719F00C
:1048C000019761F06CC1112321F08C2D972D93700D
:1048D00002C080E090E00E947A2161C1112321F0A2
:1048E0008C2D972D937002C080E090E00E94902163
:1048F00056C18C2D112319F00E94A72E02C00E94D0
:104900000F2F0E94942F4BC1872D837009F052C046
:10491000111145C18C2D829586958770880F880F5F
:104920009C2D9F70892E912CA12CB12C082E04C097
:10493000880C991CAA1CBB1C0A94D2F7C4FE14C094
:104940000FE010E020E030E0B901A80104C0440FFE
:10495000551F661F771F8A95D2F7CB01BA01609564
:1049600070958095909503C060E070E0CB01272D95
:1049700026952695237030E02230310569F02330EA
:10498000310589F0682979298A299B292130310547
:1049900071F00E94202A03C1682979298A299B295C
:1049A0000E943C2AFCC00E94202AC501B4010E943A
:1049B000042AF5C0112319F0872D817001C0869556
:1049C000882309F4ECC08C2D829586958770880F1A
:1049D000880F9C2D9F70892E912CA12CB12C082E14
:1049E00004C0880C991CAA1CBB1C0A94D2F7C4FEF4
:1049F00014C00FE010E020E030E0B901A80104C0CD
:104A0000440F551F661F771F8A95D2F7CB01BA0155
:104A1000609570958095909503C060E070E0CB0143
:104A2000272D269526952370422F50E042305105C0
:104A300069F04330510589F0682979298A299B2931
:104A40004130510571F00E94FA2AA9C068297929DC
:104A50008A299B290E94162BA2C00E94FA2AC5010E
:104A6000B4010E94DE2A9BC08C2D90E0FC01E05E28
:104A7000F109E531F10508F050C0E158FF4F0C9401
:104A8000F8360C2D0F70872D8F71112321F00E94A5
:104A9000772A802F07CF0E94982A802F0E94AD236B
:104AA0007EC0112341F0053008F079C0872D8F7149
:104AB0000E94BD2A74C0063008F071C0F7CF1123E0
:104AC00039F0872D8F710E94772A69C01123C9F3AD
:104AD000872D8F710E94982A62C0112329F0872D9B
:104AE0008F710E94622A5BC00E94582A58C011230D
:104AF00051F0172D1F71812F0E94772A63E0812FBB
:104B00000E948B2B4CC081E00E94942B023008F451
:104B100046C082E00E94942B42C0112331F0002352
:104B200081F28C2D0E948F223AC0002389F28C2DB5
:104B30000E94572334C0472D4F706C2DC7010E942F
:104B40004A060E947C292BC0111129C0472D4F70A5
:104B500050E042305105B9F04CF44115510581F057
:104B600041305105E1F40E948F3219C043305105A4
:104B700069F04430510599F48C2D0E94E1320FC048
:104B80000E9478320CC00E94AB3209C00E94BE3233
:104B900006C0472D4F706C2DC7010E94450ADD20CD
:104BA000F9F00E94872B80FD1BC0F70112820E9442
:104BB000812B0E94772AC7010E94FF250E94812B2A
:104BC0000F90DF91CF911F910F91FF90EF90DF90A9
:104BD000CF90BF90AF909F908F907F900C94982A29
:104BE0000F90DF91CF911F910F91FF90EF90DF9089
:104BF000CF90BF90AF909F908F907F9008950F932C
:104C00001F93CF93DF93EC01888199812B813C81A5
:104C1000232BB9F09F3F11F48F3F99F0CE010E94F2
:104C2000A907882371F0688179818A810E947D2B90
:104C30008C010E94322B0E94F929B801CE010E94FA
:104C4000B423DF91CF911F910F9108950E94552CAD
:104C50000E94652C0E942A2C0E947F2C0E944530C5
:104C60000E94942F80E090E00E947A2180E090E002
:104C70000C9490210E94452C0C9426260E94722BA5
:104C8000292F22952F7030E02C3031054CF42A303A
:104C900031056CF42250310922303105A8F407C0E7
:104CA0002C30310569F02F30310551F00DC0803FB7
:104CB00069F018F4803E40F409C0843F29F406C02E
:104CC00093FB882780F9089580E0089581E0089596
:104CD000CF93DF9300D000D01F92CDB7DEB70F90F7
:104CE0000F900F900F900F90DF91CF910895CF9379
:104CF000DF9300D000D000D0CDB7DEB726960FB638
:104D0000F894DEBF0FBECDBFDF91CF9108951F9302
:104D1000CF93DF93C0912A0416E080912B04C8172B
:104D200099F0D0E01C9FF0011D9FF00D1124E45D6F
:104D3000FB4F4081518162817381848195810E9402
:104D400077262196C770E9CFDF91CF911F91089503
:104D500040915C0450915D0460915E0470915F0429
:104D600080916004909161040C9477268091610495
:104D700082958F7009F054C080915E04882309F4F5
:104D80004FC080912A04A0912B0460915C04709123
:104D90005D0440915F0450916004B6E08A1709F405
:104DA0003FC090E041155105C1F17F3F11F46F3FC5
:104DB000A1F1B89FF001B99FF00D1124E45DFB4F04
:104DC000218172132AC02081621327C02281211100
:104DD00024C0238134812417350710F42150310970
:104DE000241B350B283C3105C0F4209161042F7041
:104DF00020612093610426E0289FF001299FF00D97
:104E00001124EF5CFB4F80818F70806180838CE583
:104E100094E00E94FF250C94872601968770BECFF0
:104E20000895CF92DF92EF92FF920F931F93CF934B
:104E3000DF93CDB7DEB762970FB6F894DEBF0FBE33
:104E4000CDBF8C0185E0F801DE011D9601900D9229
:104E50008A95E1F7D8014C9111965C9111971296C1
:104E60006C9112971396CD90DC90149730915C045E
:104E700070915D0480915F0490916004009709F443
:104E80006BC17F3F19F43F3F09F466C1E0905E04B7
:104E9000EE2009F4C0C020916104C816D90628F09C
:104EA000F601E81BF90BCF0104C0809590958C0D9D
:104EB0009D1DFF24F394883C910578F0F12C207F10
:104EC00009F0C6C07C2DD98AC88A89890E946826C3
:104ED0008CE594E00E94FF25B1C0822F807F09F00D
:104EE00046C0751314C0341312C0611110C02F7066
:104EF0002061209361040E94A8268CE594E00E9422
:104F0000FF2580916104D80115968C932EC0CD2881
:104F100019F15F3F11F44F3FF9F0F62E61111CC0FB
:104F200080912A0420912B0436E0821709F45AC09C
:104F300090E0389FF001399FF00D1124E45DFB4FA4
:104F40007181571306C07081471303C072817111BC
:104F500003C001968770E9CFF62E662309F418C1C5
:104F600080916104816080936104F12C11C17513FB
:104F700008C0341306C0611104C080916104D801D7
:104F8000C3C04D875E878D859E856A8B0E943E26B5
:104F90006A898823E1F16623D1F120916104822F8F
:104FA00082958F7090E0029774F080915C049091EC
:104FB0005D0498878F831986DB86CA862C87CE018D
:104FC00007960E94FF2586E0F801ACE5B4E0019069
:104FD0000D928A95E1F70E94B6260E94A826FF242A
:104FE000F394D6C04D875E878D859E850E94722B77
:104FF000292F22952F7030E0223031050CF0BCC0F3
:105000009F7009F0B6C0805E883008F4C1C0C80146
:105010000E94FF25E4CFC816D90608F453C0F60154
:10502000E81BF90BCF01883C910508F450C0F12C26
:105030007C2DD98AC88A89890E946826ECE5F4E02B
:1050400086E0DF011D928A95E9F70E94A826A0C09C
:10505000751314C0341312C0611110C08091610423
:10506000F8018583C8010E94FF2586E0ECE5F4E0A5
:10507000DF011D928A95E9F7FE2C8AC04D875E8775
:105080008D859E856A8B0E943E266A89882309F455
:10509000BECF662309F4BBCF20916104822F829595
:1050A0008F7090E002970CF48ECF80915C04909109
:1050B0005D049A8389831B82DD82CC822E83CE019C
:1050C00001967FCF809590958C0D9D1DACCFF62ECF
:1050D000662309F49CCF75132EC034132CC0209185
:1050E000610420FD1FC0822F82958F70D9F0D801F6
:1050F00015962C9315978F3049F08F5F982F9295C6
:10510000907F822F8F70892B15968C93C8010E94F7
:10511000FF2586E0F801ACE5B4E001900D928A9598
:10512000E1F793CF86E0F801ACE5B4E001900D9291
:105130008A95E1F72DC04D875E878D859E850E94FB
:105140003E26811140CF809161048160809361048B
:10515000C8010E94FF251CC0662309F458CF4D8763
:105160005E878D859E850E943E26882309F44FCF59
:105170002ACF811148CF0CC0243031050CF047CF25
:105180009F7009F440CFF8019581907F09F03BCFE3
:105190008F2D62960FB6F894DEBF0FBECDBFDF91A4
:1051A000CF911F910F91FF90EF90DF90CF900895D6
:1051B0001F93CF93DF93CDB7DEB72C970FB6F8943C
:1051C000DEBF0FBECDBF4F83588769877A878B8735
:1051D0009C87CE0107960E941127882369F08F8152
:1051E00098852A853B85232BF1F19F3F09F063C009
:1051F0008F3F09F060C037C086E0FE013796DE01C0
:10520000119601900D928A95E1F76F817885EA8574
:10521000FB85309741F17F3F11F46F3F21F12091E1
:105220002B0430E0C90101968770992740912A0428
:1052300050E08417950709F447C069837A83FD839A
:10524000EC8396E0929FD001939FB00D1124A45D52
:10525000BB4FFE01319601900D929A95E1F7809334
:105260002B040E94872616E080912A0490912B043B
:105270008917C1F1189FC0011124845D9B4F0E94C2
:105280001127882379F1E0912A041E9FF00111244F
:10529000E45DFB4F408151816281738184819581FE
:1052A0000E94772680912A0490E0019687709927C2
:1052B00080932A04D9CF4F81588569857A858B855B
:1052C0009C850E947726CFCF0E943A2610922B040D
:1052D00010922A04ECE5F4E086E0DF011D928A9545
:1052E000E9F7C1CF2C960FB6F894DEBF0FBECDBF45
:1052F000DF91CF911F910895EF92FF920F931F932B
:10530000CF93DF938C01009709F46CC0F12CEE244D
:10531000E394E8012196F8018491843740F48430C5
:1053200008F051C0813081F0823019F15BC08537BF
:1053300009F444C0A8F19CE7980F903708F052C0D8
:105340008F770E94572341C00E5F1F4FFE01C4910B
:1053500080E28C0F883048F4C7708E2D01C0880F12
:10536000CA95EAF70E94582C14C08C2F0E948F22F5
:105370002DC00E5F1F4FFE01C49180E28C0F88305C
:1053800058F4C7708E2D01C0880FCA95EAF70E94A5
:105390005E2C0E947F2C1AC08C2F0E94572316C0AF
:1053A0000E5F1F4FFE01C491CC2381F08FE99FE077
:1053B0000197F1F700C00000C150F6CF0E5F1F4FFC
:1053C000FE01F49003C00E948F228E018F2D88234E
:1053D00009F49FCFEFE9FFE03197F1F700C000003B
:1053E0008150F5CFDF91CF911F910F91FF90EF90FA
:1053F0000895089560936604709367048093680429
:10540000909369040C9426260F931F9300916604D1
:10541000109167042091680430916904DC01CB018C
:10542000802B912BA22BB32B80936604909367045F
:10543000A0936804B09369041F910F910C942626E1
:105440000F931F93009166041091670420916804E4
:1054500030916904DC01CB0180239123A223B32383
:105460008093660490936704A0936804B0936904E2
:105470001F910F910C9426260F931F9300916604A1
:10548000109167042091680430916904DC01CB011C
:1054900080279127A227B3278093660490936704FF
:1054A000A0936804B09369041F910F910C94262671
:1054B00010926204109263041092640410926504C6
:1054C0000C94262641E050E060E070E004C0440FF8
:1054D000551F661F771F8A95D2F740936204509339
:1054E000630460936404709365040C94262641E081
:1054F00050E060E070E004C0440F551F661F771F46
:105500008A95D2F78091620490916304A09164041B
:10551000B0916504482B592B6A2B7B2B4093620476
:105520005093630460936404709365040C9426267E
:1055300041E050E060E070E004C0440F551F661F7A
:10554000771F8A95D2F74095509560957095809118
:10555000620490916304A0916404B09165044823AF
:1055600059236A237B23409362045093630460931E
:105570006404709365040C94262641E050E060E0DA
:1055800070E004C0440F551F661F771F8A95D2F73D
:105590008091620490916304A0916404B0916504C9
:1055A000482759276A277B27409362045093630456
:1055B00060936404709365040C9426260F931F93E4
:1055C0000091620410916304209164043091650499
:1055D000DC01CB01802B912BA22BB32B8093620497
:1055E00090936304A0936404B09365041F910F919A
:1055F0000C9426260F931F9300916204109163046C
:105600002091640430916504DC01CB018023912357
:10561000A223B3238093620490936304A093640451
:10562000B09365041F910F910C9426260F931F933E
:105630000091620410916304209164043091650428
:10564000DC01CB0180279127A227B3278093620436
:1056500090936304A0936404B09365041F910F9129
:105660000C9426260895CF92DF92EF92FF920F932B
:105670001F93CF93DF938C01C0906604D090670492
:10568000E0906804F0906904809162049091630452
:10569000A0916404B0916504C82AD92AEA2AFB2A99
:1056A000CFE1D0E0D701C6010C2E04C0B695A79576
:1056B000979587950A94D2F780FF06C0B8018C2F82
:1056C0000E94CA0C019721F4219760F780E001C085
:1056D0008C2FDF91CF911F910F91FF90EF90DF9072
:1056E000CF900895CF93DF93EC010E94332BBE013E
:1056F0000E94CA0CDF91CF910895CB010E94722BBA
:10570000089580916A048595859585950895809181
:105710006A048770089598E0899F90011124262BD0
:1057200020936A040C94772A20916A04809582233E
:1057300080936A04982F977069F430E0482F5527BA
:1057400047FD50952417350729F085958595859552
:105750000C94982A089590916A04977081E009F456
:1057600080E0089590919102992321F09091920206
:10577000911109C02091930230919402F90132965F
:105780009FEF40E01FC0982F9695969596959F3075
:1057900050F5E0919302F0919402E90FF11D8770AA
:1057A00021E030E0A90102C0440F551F8A95E2F7BD
:1057B000CA019181892B818308959F3F39F04F5F02
:1057C0004E3041F051915813F8CF0DC05111F7CF21
:1057D000942FF5CF9F3F39F0F901E90FF11D97FDA7
:1057E000FA9582830895089590919102992321F06A
:1057F00090919202911109C02091930230919402EC
:10580000F9013296205F3F4F1FC0982F96959695CD
:1058100096959F30F0F4E0919302F0919402E90F95
:10582000F11D877021E030E0A90102C0440F551F2F
:105830008A95E2F7CA018095918189238183089531
:105840003196E217F30729F090819813F9CF10826F
:10585000F7CF089581E090E0E0919302F0919402F7
:10586000E80FF91F1082019680319105A9F708957C
:1058700090917E04892B80937E0408958095909169
:105880007E04892380937E04089510927E040895F7
:1058900090917D04892B80937D040895809590914B
:1058A0007D04892380937D04089510927D040895DA
:1058B00090917C04892B80937C040895809590912D
:1058C0007C04892380937C04089510927C040895BD
:1058D00080936B04089510926B0408958091930255
:1058E00090919402FC0131969C01205F3F4F80E033
:1058F000919191118F5FE217F307D1F70895E0912D
:105900009302F091940280917E048083E09193024F
:10591000F0919402908180917D04892B8083E091A5
:105920009302F0919402908180917C04892B808372
:1059300080916B04882361F0E0919302F0919402CE
:105940009081892B80830E946E2C811110926B04B0
:1059500080919302909194020C94642120E000972E
:1059600039F0AC0141505109842395232F5FF7CFC3
:10597000822F089580918D05843039F11092800432
:1059800020E488E190E00FB6F894A8958093600039
:105990000FBE2093600080E00E94A50580E00E9479
:1059A000A40D83B7817F846083BF83B7816083BF89
:1059B0007894889583B78E7F83BF88E10FB6F8947B
:1059C00080936000109260000FBE089508950895BE
:1059D00080E00E94A5050E94E62C0E94FF0D0E9417
:1059E000E72C0E94840E91E0811101C090E0892F84
:1059F00008950E943A2680E00E94A5050E94673221
:105A00000E9458210C94A40D1F920F920FB60F9272
:105A100011248F939F93AF93BF9380918004811142
:105A200013C08091810490918204A0918304B0916D
:105A300084044196A11DB11D80938104909382043A
:105A4000A0938304B0938404BF91AF919F918F91F1
:105A50000F900FBE0F901F90189582E084BD93E0C9
:105A600095BD9AEF97BD80936E0008952FB7F89477
:105A70008091810490918204A0918304B091840468
:105A80002FBF0895CF92DF92EF92FF920F931F9353
:105A90002FB7F8944091810450918204609183045F
:105AA000709184042FBF6A017B01EE24FF248C01D6
:105AB00020E030E0C016D106E206F30610F44150B3
:105AC00051099A01281B390BC9011F910F91FF90B1
:105AD000EF90DF90CF9008951F920F920FB60F9224
:105AE00011248F939F93AF93BF93809181049091E2
:105AF0008204A0918304B09184040196A11DB11D7C
:105B00008093810490938204A0938304B0938404CF
:105B1000BF91AF919F918F910F900FBE0F901F90EB
:105B200018950E944C1EF8942FEF87EA91E62150B9
:105B300080409040E1F700C0000087E090EBDC017E
:105B40008093980590939905A0939A05B0939B052F
:105B50009CE088E10FB6F894A895809360000FBE92
:105B600090936000FFCF0E94F22D811102C00E942D
:105B7000CE2D0E94FD2D80937F040E940A2E8093DB
:105B8000960587FB882780F9809392020E94012E58
:105B9000682F70E080E090E00C94FA296DEE7EEFC3
:105BA00080E090E00E941E3760E082E090E00E947A
:105BB0000C3760E083E090E00E940C3760E084E006
:105BC00090E00E940C3760E085E090E00E940C3786
:105BD00060E086E090E00E940C376FEF87E090E095
:105BE0000C940C3780E090E00E94063721E08D3E57
:105BF0009E4F09F020E0822F089582E090E00C94FF
:105C0000FE3683E090E00C94FE36682F83E090E04F
:105C10000C940C3784E090E00C94FE36682F84E0FE
:105C200090E00C940C3786E090E00C94FE36682FE0
:105C300086E090E00C940C3787E090E00C94FE3600
:105C4000682F87E090E00C940C378091870480FFE8
:105C50000BC06091980285E0689FB0011124759592
:105C60006795759567952BC081FF09C06091980273
:105C700085E0689FB00111247595679520C082FF6B
:105C800007C06091980285E0689FB001112417C099
:105C9000909188049923D1F060919702961788F724
:105CA0002091980285E0289F90011124929FA001E5
:105CB000939F500D112470E0CA010E94E4366038B1
:105CC000710540F46115710539F002C065E070E0BE
:105CD000862F08958FE7089581E0089580918704C5
:105CE00080FF08C06091960270E075956795759584
:105CF000679521C081FF06C06091960270E075959E
:105D0000679519C082FF04C06091960270E010C0D0
:105D1000909188049923C1F0609195029617A0F79D
:105D200080919602899FC001112470E00E94E436A0
:105D30006038710528F46115710521F0862F0895EA
:105D40008FE7089581E0089561E070E0F4CF803F2F
:105D500021F40E94252E819504C0813F29F40E94E0
:105D6000252E80938B040895823F21F40E94252ED6
:105D7000819504C0833F29F40E94252E80938A04D4
:105D80000895893F19F40E946E2E05C08A3F31F4B0
:105D90000E946E2E819580938C0408958B3F21F490
:105DA0000E946E2E819504C08C3F29F40E946E2EB5
:105DB00080938D040895843F21F48091890481604B
:105DC00017C0853F21F480918904826011C0863F0D
:105DD00021F48091890484600BC0873F21F4809175
:105DE0008904886005C0883F31F48091890480610E
:105DF0008093890408958D3F21F480918704816008
:105E00000BC08E3F21F480918704826005C08F3FD4
:105E100029F4809187048460809387040895803FEB
:105E200039F480918B0487FF6CC010928B0469C099
:105E3000813F29F480918B041816BCF362C09091C5
:105E40008A04823F29F497FF5CC010928A0459C0EB
:105E5000833F19F41916CCF354C0893F41F4809163
