:100000000C94A4050C94E8050C94E8050C94E80500
:100010000C94E8050C94E8050C94E8050C94E805AC
:100020000C94E8050C94E8050C940A1A0C94DC1A5C
:100030000C9447280C94E8050C94E8050C94E8050A
:100040000C94E8050C949B060C94E8050C94E805C8
:100050000C94E8050C94AF280C94E8050C94E80582
:100060000C94E8050C94E8050C94E8050C94E8055C
:100070000C94E8050C94E8050C94E8050C94E8054C
:100080000C94F00F0C94E8050C94E8050C94E8052A
:100090000C94E8050C94E8050C94E8050C94E8052C
:1000A0000C94E8050C94E8050C94E8050307150783
:1000B00029073B0743075907A707A707A707A7076C
:1000C000A707A70767079607491B701B621C701BD1
:1000D000621CBC1BDF1B621C351C441C2E1F2E1F08
:1000E0005D1F5D1F9C1FBC1F12211221C71F122103
:1000F00077207720DE20E72012210C218420842025
:1001000084208420842084208420842084208420CF
:100110008420842084208420842084209420A22091
:10012000A920B020BA2007634236B79BD8A71A3956
:10013000685618AEBAAB558C1D3CB7CC5763BD6D35
:10014000EDFD753EF6177231BF000000803F0800DC
:100150000000BE922449123EABAAAA2ABECDCCCC46
:100160004C3E00000080BEABAAAAAA3E00000000E0
:10017000BF000000803F0000000000084178D3BBB2
:100180004387D1133D190E3CC3BD4282AD2B3E685F
:10019000EC8276BED98FE1A93E4C80EFFFBE01C450
:1001A000FF7F3F0000000000000000000000000092
:1001B000000000010204060A0F17202C3A4A5D7164
:1001C000879DB3C7DAE9F5FCFFFCF5E9DAC7B39D13
:1001D00087715D4A3A2C20170F0A060402010000BD
:1001E00000000000000000006966207965730A09BC
:1001F0007065616E7574206275747465720A656CE1
:1002000073650A097269636520736E61636B7300BD
:100210002B0014001A000800150017001C0018001D
:100220000C00120013002A00290004001600070029
:1002300009000A000B000D000E000F00330034000F
:10024000E1001D001B000600190005001100100050
:1002500036003700380028000530E000E200E300F7
:1002600003302C002C0004305000510052004F008D
:100270002B0014001A00090013000A000D000F00E3
:1002800018001C0033002A00290004001500160085
:10029000170007000B00110008000C0012003400CA
:1002A000E1001D001B000600190005000E001000F3
:1002B00036003700380028001450E000E200E30068
:1002C00003302C002C0004305000510052004F002D
:1002D0002B0034003600370013001C0009000A0010
:1002E000060015000F002A00290004001200080073
:1002F00018000C0007000B00170011001600380052
:10030000E100330014000D000E001B00050010007A
:100310001A0019001D0028000530E000E200E3008B
:1003200003302C002C0004305000510052004F00CC
:1003300035021E021F022002210222022302240291
:100340002502260227022A004C003A003B003C000E
:100350003D003E003F002D022E022F0230023102EE
:1003600001004000410042004300440045003202C9
:100370006402010001000100010001000100010010
:100380000100010001000100AB00AA00A900AE00BD
:1003900035001E001F002000210022002300240041
:1003A0002500260027002A004C003A003B003C00B4
:1003B0003D003E003F002D002E002F003000310098
:1003C000010040004100420043004400450032006B
:1003D00032000100010001000100010001000100E4
:1003E0000100010001000100AB00AA00A900AE005D
:1003F0001E001E001E001E001E001E001E001E000D
:100400001E001E001E001E00000014001A0008003E
:10041000150017001C0018000C00120013002F001C
:10042000000004001600070009000A000B000D0080
:100430000E000F00330034000D30000000000600F5
:100440001900000000001100100000000000000072
:10045000000000000000000000000000000000009C
:10046000000000000000000000000000000000008C
:10047000000000000000000000000000000000007C
:10048000000000000000000000000000000000006C
:100810000100005001000100010001000100010081
:100820000100010001004C00010001000100205006
:100830002150135012500030013002300C300100B2
:1008400001002750265023502450285029500100E1
:100850000100010001000100010001000100010090
:100860000100010001000100010001000100010080
:1008700000000000000000002A2B280000000000FB
:10088000000000000000000000000029000000003F
:100890002C1E3420212224342627252E362D3738AD
:1008A000271E1F202122232425263333362E3738B6
:1008B0001F0405060708090A0B0C0D0E0F10111274
:1008C000131415161718191A1B1C1D2F3130232D40
:1008D000350405060708090A0B0C0D0E0F1011123E
:1008E000131415161718191A1B1C1D2F3130354CEF
:1008F00000000000000000000000000000000000F8
:1009000000000000000000000000000000000000E7
:1009100000010101010101000101010100000000CD
:1009200000000000000000000000010001000101C3
:1009300001010101010101010101010101010101A7
:10094000010101010101010101010100000001019A
:100950000000000000000000000000000000000097
:100960000000000000000000000000010101010083
:100970002803540068006500200050006C006100EE
:100980006E0063006B0020004B0065007900620080
:100990006F0061007200640000002C034F007200C1
:1009A000740068006F006C0069006E0065006100F3
:1009B000720020004B006500790062006F0061004A
:1009C00072006400730000000403090409026D0052
:1009D000040100A0FA09040000010301010009213B
:1009E000110100012240000705810308000A0904E3
:1009F00001000103010200092111010001224D0043
:100A00000705820308000A09040200010300000030
:100A10000921110100012236000705830308000A9D
:100A20000904030001030000000921110100012253
:100A300039000705840310000112011001000000B5
:100A400008EDFE606001000102000105010906A138
:100A500001050719E029E7150025019508750181B1
:100A60000205081901290595057501910295017581
:100A7000039101050719002977150025019578755F
:100A8000018102C005010980A1018502160100262D
:100A9000B7001A01002AB700751095018100C00542
:100AA0000C0901A1018503160100269C021A010010
:100AB0002A9C02751095018100C005010902A1015F
:100AC0000901A10005091901290515002501950550
:100AD0007501810295017503810105010930093114
:100AE0001581257F95027508810609381581257FB6
:100AF000950175088106050C0A38021581257F9538
:100B00000175088106C0C005010906A10105071984
:100B1000E029E71500250195087501810295017509
:100B200008810105081901290595057501910295AE
:100B300001750391010507190029FF150026FF0023
:100B4000950675088100C00011241FBECFEFDAE0C2
:100B5000DEBFCDBF04B603FE24C080913604909161
:100B60003704A0913804B09139048730904BA740E6
:100B7000B04BB9F410923604109237041092380436
:100B80001092390414BE84B7877F84BF88E10FB602
:100B9000F89480936000109260000FBEE0E0F8E3EC
:100BA000099512E0A0E0B1E0E2EFF4E602C00590A2
:100BB0000D92A83DB107D9F714E0A8EDB2E001C04D
:100BC0001D92A633B107E1F70E9454170C947732B7
:100BD0000C94000081E0089508950C94C4070C94CF
:100BE000EA050C94EC050E94412E811105C010927B
:100BF000DA021092D9020DC081E290E00090DB028F
:100C000002C0880F991F0A94E2F79093DA0280934A
:100C1000D90282E08093D80280916F008260809335
:100C20006F00089590916F0081E0911101C080E004
:100C300008950E94412E23E030E0281B3109220F45
:100C40002093DC020895282F2F9880918000211195
:100C500008C0877F8093800010928D0010928C00D6
:100C60001BC0886080938000233019F48FEF9FEFC2
:100C70000FC083E090E0821B9109880F991F2FEF2E
:100C80003FEFA90102C0569547958A95E2F7CA0140
:100C900090938D0080938C000C941906CF93C82FED
:100CA0000E9412064091DB02882329F090916F0088
:100CB0009D7F90936F00C093DB028823D1F0209139
:100CC000D9023091DA0202C0369527954A95E2F7AB
:100CD0002F733327C90102C0880F991FCA95E2F705
:100CE0009093DA028093D90280916F0082608093A2
:100CF0006F00CF9108950E94190684E08093DB0273
:100D00001092D8020895279A2F988FEF9FEF909313
:100D10008700809386008AE08093800089E1809339
:100D200081000E94AA2D0C947B060E9483066E9A75
:100D3000769A0C94AC071F920F920FB60F92112463
:100D40002F933F938F939F93EF93FF93E091D9025B
:100D5000F091DA02CF0101969093DA028093D902E2
:100D60000090DB0202C0F695E7950A94E2F7EF7374
:100D70008091D802823019F4E03251F404C08130FD
:100D800039F4EF3329F480916F008D7F80936F00E9
:100D9000F0E0E855FE4FE49121E031E0E29FC00130
:100DA000E39F900D11240090DC0202C09695879578
:100DB0000A94E2F790938D0080938C00FF91EF915D
:100DC0009F918F913F912F910F900FBE0F901F9089
:100DD0001895CF93DF93EC010E944829BE0180E073
:100DE00090E0DF91CF910C943D250F931F93462FF8
:100DF00050E04E30510508F0AAC0DC01FA01EA5A71
:100E0000FF4F0C943B3212968C91882309F49FC0BB
:100E100000E010E0980140E064E070E080ED91E0D7
:100E20000E946E1381E090E011C012968C9188238D
:100E300009F48DC000E010E0980140E066E070E049
:100E400080E691E00E946E1382E090E00E94E90645
:100E50007EC012968C91882309F479C000E010E0DE
:100E6000980140E068E070E080E991E00E946E1334
:100E700084E090E0EBCF12968C91882311F083E010
:100E800007C083E013C012968C91882371F084E030
:100E90000E94BA2582E00E944E060E94F30540E1BE
:100EA00064E083E00E94D30D52C084E00E94DB2501
:100EB000F6CF12968C91882331F085EE0E94D21DD8
:100EC0000E94012E44C085EE0E949A1E40C01296D8
:100ED0008C918823E1F10E94230F00E010E098013B
:100EE00040E066E070E080E391E00E946E1384E0F1
:100EF0000E94DB2583E00E94DB2580E10E94DB2548
:100F000085E00E94BA250E943529811102C00E9405
:100F100011290E944D2990E0909335048093340468
:100F20008068809334040E94512911C012968C91DC
:100F3000882369F000E010E0980140E066E070E08E
:100F400080E091E00E946E1385E00E94DB2580E046
:100F500090E01F910F9108950F931F932FEF89EF4A
:100F600090E0215080409040E1F700C0000000E098
:100F700010E0980140E065E070E080EF91E00E94B1
:100F80006E131F910F9108958091E802882309F450
:100F90005AC08091E6029091E7020E9485288D3226
:100FA00091400CF450C01092E8020E9429088091F0
:100FB000E0029091E102099781F48091E202909120
:100FC000E302892B51F48091E4029091E502892B90
:100FD00021F488EE91E00E942A088091E00290912D
:100FE000E102049791F48091E2029091E302469726
:100FF00061F48091E4029091E502892B31F48BE059
:101000000E94D21D8BE00E949A1E8091E002909176
:10101000E1020497C1F48091E2029091E3024697C5
:1010200091F48091E4029091E502079761F483EED8
:101030000E94D21D86E10E94D21D86E10E949A1E66
:1010400083EE0C949A1E089581E008950C94240870
:10105000089508950F931F93CF938C01F801249165
:101060002223F9F030E0F901E059F74FC491F9017A
:10107000E051F74F2491222359F081EE0E94D21DB6
:101080008C2F0E94D21D8C2F0E949A1E81EE04C0CC
:101090008C2F0E94D21D8C2F0E949A1E0F5F1F4F13
:1010A000DDCFCF911F910F9108950C9495068091FB
:1010B0002D03882309F448C08091E9029091EA0247
:1010C000009779F40E9479289093EA028093E902CC
:1010D0008091EB0290E0009771F48091EC0290E037
:1010E0000AC00E9485282091180230911902281701
:1010F000390740F329C00197880F991F880F991F5E
:10110000FC01E351FD4F60817181828193810E94D6
:10111000560FE091EB0284E0E89FF0011124E351C7
:10112000FD4F60817181828193814FE050E00E9488
:101130000E138091EB0290E001966091EC0270E05A
:101140000E9427328093EB020C94ED0510922F033E
:101150000C94230F0895089581E080932F030C943D
:10116000AB08089508958F929F92AF92BF92EF922D
:10117000FF920F931F93CF93DF93CDB7DEB7A39763
:101180000FB6F894DEBF0FBECDBF7C01FC0100811D
:101190001181C8010E947626B8010E94B50A8C010F
:1011A000B7010E942608882309F4CCC10032F0E57B
:1011B0001F0741F4F7018281882309F458C00E9477
:1011C0000514C0C10132F0E51F0741F4F701828127
:1011D000882309F44CC00E940E14B4C10232F0E519
:1011E0001F0751F4F7018281882309F440C00E944F
:1011F00001148111F0CFE3CF0332F0E51F0739F47A
:10120000F7018281882399F10E94AC089BC10432C6
:10121000F0E51F0739F4F7018281882341F10E942C
:10122000A60890C10532F0E51F0749F4F701828155
:101230008823E9F080912F038111F1CFE5CF0632A9
:10124000F0E51F0739F4F7018281882381F00E94BD
:1012500015140AC00732F0E51F0749F4F70182812F
:10126000882329F00E9420140E94B2086BC180914B
:101270002F03811105C0F70182818111CFC018C1F0
:10128000003E110579F4F7018281882309F44DC0ED
:101290000E94230F81E080932E0310922D03109261
:1012A000EC0250C1023E110559F4F70182818823F6
:1012B000E1F10E94230F10922E0310922D0342C1E0
:1012C000033E110591F4F7018281882371F10E9498
:1012D000230F10922E0381E080932D031092EB02D6
:1012E0001092EA021092E9022DC10235110559F45B
:1012F000F7018281882309F425C180911802909119
:1013000019020A970DC00135110579F4F7018281A0
:10131000882309F417C180911802909119020A9646
:1013200090931902809318020DC140911C0283E230
:10133000E7E3F2E0DE01119601900D928A95E1F764
:10134000F701808121E030E02C0F3D1F280F311D77
:10135000C90120911A0230911B02FC01E20FF31F18
:101360006081772767FD7095640F711D882777FD71
:101370008095982F0E94492F20E030E040E451E40E
:101380000E94AE2E4B015C01F701218184E090E0C8
:10139000821B9109BC01882777FD8095982F0E94B8
:1013A000492F9B01AC01C501B4010E94462E9B014F
:1013B000AC0160E070E080E090E40E94BC3020E08E
:1013C00030E04CED50E40E9459304B015C01F701D4
:1013D00082818823D1F04FE050E0C501B4010E9422
:1013E0000E1380912E038823A1F08091EC0224E05B
:1013F000829FF0011124E351FD4F80829182A282ED
:10140000B3828F5F8093EC0204C0C501B4010E94D7
:10141000560F0F3F110508F02ECF94C08091E802BF
:1014200081111FC0043130E5130709F051C00E943B
:10143000280881E08093E8020E9479289093E702CF
:101440008093E6021092DF021092E1021092E00215
:101450001092E3021092E2021092E5021092E4026E
:1014600071C08091E6029091E7020E948528883C35
:10147000910570F48091DF02E82FF0E0EE0FFF1F7E
:10148000E052FD4F118300838F5F8093DF025AC0CB
:10149000043880E5180721F00538104501F13AC0FD
:1014A000F7018281882341F01092DD0282E01EC0A4
:1014B000043830E5130759F58091DD02811106C02B
:1014C00086E20E94D21D86E20E949A1E82E01CC023
:1014D0000438F0E51F0741F305381045D9F4F7014A
:1014E0008281882331F01092DE0280E20E94E91EA0
:1014F00029C08091DE02811106C087E20E94D21DC0
:1015000087E20E949A1E80E20E94F01E1BC00538EE
:10151000104529F381E08093DD028093DE02C7014C
:10152000A3960FB6F894DEBF0FBECDBFDF91CF916B
:101530001F910F91FF90EF90BF90AF909F908F9071
:101540000C94EF0580E0A3960FB6F894DEBF0FBEB3
:10155000CDBFDF91CF911F910F91FF90EF90BF9082
:10156000AF909F908F90089508959CE0799FF0012F
:10157000112490E3899FE00DF11D1124E60FF11D68
:10158000EE0FFF1FE05FFD4F859194910895880F46
:10159000991FFC01E057FF4F859194910895880FA2
:1015A000991FFC01E05FFD4F8591949108950F9381
:1015B0001F93CF93DF93EC01811521E39207A0F5F0
:1015C000C11580E3D80708F0D7C0C83ED105D8F4CC
:1015D000C03ED10508F007C2C83AD10578F4C53A33
:1015E000D10508F06AC0C130D10509F463C008F420
:1015F000F7C1C430D10508F0F6C1F2C1CB3BD1052B
:1016000008F466C0EDC1C11590E2D90708F0AFC07B
:10161000C11521E0D20708F0E6C1C03FD10508F4AA
:10162000DFC18E0110651FC2C03880E5D80700F504
:10163000C03790E5D90708F0A3C0C11520E5D2074F
:1016400009F4ACC050F4CE01905480319F4008F0B2
:10165000C7C1DF708E01106A06C2C13080E5D807AD
:1016600009F4AEC0C43190E5D90708F4AFC0B8C1E1
:10167000C33820E5D20709F48EC050F4C13890E594
:10168000D90709F482C008F083C000E011EDEBC176
:10169000C03181E5D80708F4A3C1C11597E5D90782
:1016A00008F436C1CE0190578115904108F098C1D9
:1016B000DF7093C101E010E0D6C1C53AD10509F44D
:1016C00094C1C63AD10509F093C102E810E4CBC138
:1016D000C83AD10509F48FC1C93AD10509F48EC1C0
:1016E000CA3AD10509F48DC1CB3AD10509F48CC1B0
:1016F000CC3AD10509F48BC1CD3AD10509F48AC1A0
:10170000C03BD10509F489C1CE3AD10509F488C19D
:10171000CF3AD10509F487C1C13BD10509F486C18F
:10172000C23BD10509F485C1C33BD10509F484C18D
:10173000C43BD10509F483C1C53BD10509F482C17D
:10174000C63BD10509F481C1C73BD10509F480C16D
:10175000C83BD10509F47FC1C93BD10509F47EC15D
:10176000CA3BD10509F47DC100E014E47CC1CE017F
:101770009F700E94CF0A78C1DD278E01106C73C163
:10178000CF70DD278E01146D6EC100E010ED6BC1CE
:1017900000E012ED68C100E013ED65C10E947D21FB
:1017A0000E94230F0E94AA088FEF94E32CE081503F
:1017B00090402040E1F700C000000E94D42853C1AF
:1017C00080910A04816080930A044DC10E943529EA
:1017D000811102C00E9411290E944D2990E090932E
:1017E000350480933404C23080E5D80721F4809119
:1017F0003404816086C0C43090E5D90721F480911B
:10180000340482607EC0C63020E5D20721F4809186
:101810003404846076C0C83080E5D80719F480911C
:10182000340427C0CA3090E5D90721F480913404EC
:10183000806167C0CC3020E5D20721F48091340468
:1018400080625FC0CE3080E5D80721F480913404F7
:10185000806457C0C03190E5D90721F480913404E9
:1018600080684FC0C23120E5D20729F4809134044A
:101870008460886046C0C33080E5D80721F4809139
:1018800034048E7F3EC0C53090E5D90721F48091A5
:1018900034048D7F36C0C73020E5D20721F4809113
:1018A00034048B7F2EC0C93080E5D80719F48091AD
:1018B000340426C0CB3090E5D90721F4809134045C
:1018C0008F7E1FC0CD3020E5D20721F480913404F3
:1018D0008F7D17C0CF3080E5D80721F48091340484
:1018E0008F7B0FC0C13190E5D90721F4809134047A
:1018F0008F7707C0C331D04531F4809134048B7F9A
:10190000877F80933404809134040E945129ABC0B6
:101910008D2F99278F70992781309105D9F49E01D9
:101920002370332702C0880F991F2A95E2F79C681D
:101930008E0144E0000F111F4A95E1F70027137054
:10194000802B912B53E0CC0FDD1F5A95E1F7C07629
:10195000DD272FC08230910531F4DC2FCC278E019A
:10196000016F106A80C08330910569F4CE018370E5
:10197000992701E010E002C0000F111F8A95E2F7DD
:10198000C8019C680FC084309105B9F4CE01837002
:10199000992701E010E002C0000F111F8A95E2F7BD
:1019A000C8019A6823E0CC0FDD1F2A95E1F7C07EBD
:1019B000D7708C010C2B1D2B56C08530910531F44E
:1019C000DC2FCC278E01046F106A4DC0069709F0FA
:1019D0004AC0CF71DD27DC2FCC278E01106243C0B7
:1019E00000E010E040C08E013EC001E810E43BC0C2
:1019F00003E810E438C002EE14E435C009EE14E444
:101A000032C00AEE14E42FC005EB14E42CC006EB40
:101A100014E429C007EB14E426C00CEC14E423C042
:101A20000DEC14E420C003E815E41DC00AE815E439
:101A30001AC002E915E417C004E915E414C001E274
:101A400016E411C003E216E40EC004E216E40BC073
:101A500005E216E408C006E216E405C007E216E453
:101A600002C00AE216E4C801DF91CF911F910F91E5
:101A700008959CE0799FF001112490E3899FE00D87
:101A8000F11D1124E60FF11DEE0FFF1FE05FFD4F6A
:101A900085919491803E9105E0F4803C910558F544
:101AA0008133910509F46FC048F48932910509F436
:101AB00063C08A32910509F46DC072C08933910503
:101AC000E9F082389105D1F08533910509F44DC0D4
:101AD00067C0833E910581F138F4803E9105B9F0ED
:101AE000823E9105D9F05CC0863E910561F1873E4A
:101AF0009105A1F155C00E94C70A089520913404B0
:101B000020FD02C021FF4CC080EE90E049C08091D2
:101B1000340480FFF9CF89E390E042C0809134041F
:101B200082FF0EC08091340484FF03C080E090E007
:101B300037C083EE90E034C08091340482FFF2CF4E
:101B400082EE90E02DC08091340483FF0BC0809121
:101B5000340484FDEBCF87EE90E022C08091340402
:101B600083FFF5CF86EE90E01BC08091340485FFA3
:101B700007C089E290E014C08091340485FFF9CF5A
:101B800085E390E00DC08091340486FF07C08AE2AF
:101B900090E006C08091340486FFF9CF81E390E0A5
:101BA0000E94D70A0895CF92DF92EF92FF920F938F
:101BB0001F9301E010E020E030E06801790104C0EB
:101BC000CC0CDD1CEE1CFF1C8A95D2F704C0000F64
:101BD000111F221F331F6A95D2F70C291D292E29A8
:101BE0003F29C090ED03D090EE03E090EF03F0901A
:101BF000F003C022D122E222F322842FC016D106A4
:101C0000E206F30641F41F910F91FF90EF90DF90F1
:101C1000CF900C94BA251F910F91FF90EF90DF9019
:101C2000CF900C94DB250C94F105E82FF0E0EA59F5
:101C3000FD4F8081E82FEF70F0E082958F7021E0FA
:101C400030E0A90102C0440F551F8A95E2F740A376
:101C500008950F931F93CF93DF9385B7806885BF57
:101C600085B7806885BFC3E0D0E001E010E0FE01E9
:101C7000EA59FD4F8081E82FEF70F0E021A18295B5
:101C80008F70A80102C0440F551F8A95E2F7CA0160
:101C9000822B81A38C2F0E94150E219740F78BE099
:101CA00090E061E070E0FC01E65AFD4F2081E22FF8
:101CB000EF70F0E042A122952F70DB0102C0AA0F65
:101CC000BB1F2A95E2F79D01242B22A3019758F709
:101CD000DF91CF911F910F910C945508EF92FF92D5
:101CE0000F931F93CF93DF9308E313E0C3E0EE2439
:101CF000E394F12CD5E08C2F0E94150E8BE090E040
:101D000040E050E0FC01E65AFD4F6081E62FEF70A5
:101D1000F0E020A130E062956F7002C03595279504
:101D20006A95E2F720FD09C09701082E02C0220F34
:101D3000331F0A94E2F7422B532B019718F7F8014F
:101D4000929182918F018417950721F051834083EE
:101D5000D0931D028C2F0E94150EC15060F6809109
:101D60001D0287FD2CC0815080931D028F3F39F0EA
:101D70008FE99FE00197F1F700C0000020C080913B
:101D800036039091370390933F0380933E038091F5
:101D900034039091350390933D0380933C038091ED
:101DA00032039091330390933B0380933A038091E5
:101DB00030039091310390933903809338030E944C
:101DC000570881E0DF91CF911F910F91FF90EF9025
:101DD0000895E82FF0E0EE0FFF1FE85CFC4F8081D4
:101DE0009181089508950F931F93CF9300E413E01A
:101DF000C0E0F801929182918F010E94F127C80FF3
:101E0000F3E008331F07A9F78C2FCF911F910F9193
:101E100008950E943529811102C00E9411290E9453
:101E20005F2980931F043E9A809171008D7F80937B
:101E3000710082E0809390008AE18093910081E0BC
:101E400080934203089580914203811102C00E9451
:101E5000090F1092920310929103809171008D7F6F
:101E600080937100809190008F7380939000109206
:101E700054031092530310928B0310928C03109210
:101E80008D0310928E0310928A0310928903E9E663
:101E9000F3E0A9E5B3E011921192119211921D9213
:101EA0001D9283E0E938F807B1F70895CF92DF92E9
:101EB000EF92FF920F931F93CF93DF9320915303E1
:101EC000222309F484C06B017C01809142038111BB
:101ED00002C00E94090F09E813E0C7E0D0E0A701A3
:101EE0009601F80192918291729162918F010E9404
:101EF000AA2E811131C0FE01EE0FFF1FEE0FFF1F52
:101F0000E759FC4F1082118212821382DE01AA0F60
:101F1000BB1FA75ABC4F11961C921E92C730D10509
:101F2000E9F0219644815581668177814083518310
:101F300062837383148215821682178212968D91A2
:101F40009C91139711969C938E9313961C921E92BC
:101F5000129734961296E2CF219708F6809191035A
:101F600090919203019797FD05C0909392038093FF
:101F7000910304C0109292031092910380919103F7
:101F80009091920320918F03309190032817390785
:101F900024F01092900310928F03892BC1F480914A
:101FA00071008D7F80937100809190008F7380937A
:101FB000900010928B0310928C0310928D0310925C
:101FC0008E0310928A031092890310925303DF91BB
:101FD000CF911F910F91FF90EF90DF90CF900895D8
:101FE0001F920F920FB60F9211244F925F926F9231
:101FF0007F928F929F92AF92BF92CF92DF92EF9299
:10200000FF922F933F934F935F936F937F938F93A1
:102010009F93AF93BF93CF93DF93EF93FF93809101
:102020005303882309F49BC1C0919103D09192037B
:102030001C161D060CF093C14090430350904403BE
:10204000609045037090460320E030E0A901C30191
:10205000B2010E94553018160CF065C0C130D10590
:1020600009F452C080918F0390919003BE010E94A9
:1020700027327C019093900380938F0380905503C7
:1020800090905603A0905703B090580320E030E0A2
:1020900040E85FE3C501B4010E94462E60935503FA
:1020A000709356038093570390935803F701EE0FF4
:1020B000FF1FEE0FFF1FE759FC4FA3019201608144
:1020C0007181828193810E94AE2E20E030E040E059
:1020D0005EE30E9459309B01AC01C501B4010E942E
:1020E000553018168CF4C7010196BE010E942732A4
:1020F0009093900380938F03109255031092560390
:102100001092570310925803E0918F03F0919003BF
:10211000EE0FFF1FEE0FFF1FE759FC4F608171812B
:1021200082819381D0C0C0908B03D0908C03E090CB
:102130008D03F0908E0320E030E0A901C701B601C5
:102140000E94AA2E2197882309F4A2C0FE01EE0F57
:10215000FF1FEE0FFF1FE759FC4F80809180A28088
:10216000B380A5019401C701B6010E94AA2E87FF82
:1021700031C0A501940160E070E08CED93EC0E9409
:10218000AE2E20E030E040E451E40E94AE2E20E08C
:1021900030E040E05FE30E9459309B01AC0160E019
:1021A00070E080E090E40E94BC309B01AC01C5016E
:1021B000B4010E9459309B01AC01C701B6010E94D5
:1021C000AA2E87FF07C0A701960160E070E08CEDA2
:1021D00093E439C0A5019401C701B6010E945530AE
:1021E00018160CF055C0A501940160E070E08CED6C
:1021F00093E40E94AE2E20E030E040E451E40E94DF
:10220000AE2E20E030E040E05FE30E9459309B01B9
:10221000AC0160E070E080E090E40E94BC309B0183
:10222000AC01C501B4010E9459309B01AC01C7014A
:10223000B6010E94553018165CF5A701960160E0C2
:1022400070E08CED93EC0E94AE2E20E030E040E494
:1022500051E40E94AE2E20E030E040E05FE30E94B7
:1022600059309B01AC0160E070E080E090E40E9496
:10227000BC309B01AC01C701B6010E94593060938C
:102280008B0370938C0380938D0390938E0313C004
:10229000FE01EE0FFF1FEE0FFF1FE759FC4F80817D
:1022A0009181A281B38180938B0390938C03A0933F
:1022B0008D03B0938E0360918B0370918C0380919A
:1022C0008D0390918E0320914003309141032F3F65
:1022D0004FEF340731F02F5F3F4F3093410320938E
:1022E00040030E942B146B017C0120E034E244EF98
:1022F00051E40E94AA2E87FF08C086EFC82E88E20C
:10230000D82E84EFE82E81E4F82E20E030E040E083
:1023100051E4C701B6010E9459309B01AC0160E055
:1023200074E284E79BE40E94AE2E6B017C010E9464
:102330001B2F709397006093960020911E0230919E
:102340001F024091200250912102C701B6010E9454
:1023500059300E941B2F70939900609398008091D0
:102360005403882309F433C1C0904F03D090500325
:10237000E0905103F090520320E030E0A901C70142
:10238000B6010E9455301816D4F580914003909103
:1023900041038F3F2FEF920729F00196909341035D
:1023A00080934003C701B6010E942B1420E030E067
:1023B00040E051E40E9459309B01AC0160E074E2BE
:1023C00084E79BE40E94AE2E6B017C010E941B2FD0
:1023D000709397006093960020911E0230911F0227
:1023E0004091200250912102C701B6010E9459304C
:1023F0000E941B2F709399006093980008C0109260
:102400009700109296001092990010929800609197
:10241000490370914A036F5F7F4F70934A03609343
:102420004903209196003091970080E090E0232BA3
:10243000F1F0C0919600D09197000E94472F6B0158
:102440007C01BE0180E090E00E94472F9B01AC011F
:1024500060914B0370914C0380914D0390914E031A
:102460000E94AE2E20E03FEF4FE757E410C00E94DD
:10247000472F6B017C0120E030EE4FEF54E4609178
:102480004B0370914C0380914D0390914E030E9439
:1024900059309B01AC01C701B6010E94553087FD40
:1024A00096C0809147038F5F8093470390E020910F
:1024B0001B0430911C0482179307A0F0809126041E
:1024C000882319F0109247030DC0809171008D7F11
:1024D00080937100809190008F7380939000109290
:1024E00054037DC080914803C0914703811128C0E7
:1024F000C0902004D0902104E0902204F0902304A6
:1025000020E030E0A901C701B6010E94553018163D
:10251000BCF481E08093480310924F031092500363
:102520001092510310925203C0924B03D0924C036D
:10253000E0924D03F0924E03C150C093470343C055
:10254000109248031092410310924003E0911D0441
:10255000F0911E0448E0C49FE00DF11D112480811C
:102560009181A281B38180934F0390935003A093F4
:102570005103B093520320E030E040E85EE3648111
:102580007581868197810E9459306B017C01809111
:102590002202682F70E080E090E00E94472F20E048
:1025A00030E048EC52E40E94AE2E9B01AC01C70122
:1025B000B6010E94593060934B0370934C03809393
:1025C0004D0390934E0310924A0310924903809159
:1025D0001F0480FD04C01092540310925303FF9116
:1025E000EF91DF91CF91BF91AF919F918F917F91AB
:1025F0006F915F914F913F912F91FF90EF90DF90FE
:10260000CF90BF90AF909F908F907F906F905F9092
:102610004F900F900FBE0F901F901895CF92DF92A2
:10262000EF92FF92CF93DF936B017C01EA018091DF
:102630004203811102C00E94090F80911F0480FF94
:1026400046C0809191039091920308970CF03FC08F
:10265000809171008D7F809371008091540381116E
:102660000E94230F81E08093530310924103109244
:10267000400320E030E0A901C701B6010E945530B7
:102680001816DCF48091910390919203FC01EE0FF7
:10269000FF1FEE0FFF1FE759FC4FC082D182E2827D
:1026A000F382FC01EE0FFF1FE75AFC4FD183C0837A
:1026B00001969093920380939103809171008260C0
:1026C0008093710080919000806880939000DF91EA
:1026D000CF91FF90EF90DF90CF9008958F929F92CF
:1026E000AF92BF92CF92DF92EF92FF920F931F9320
:1026F000CF93DF93EC017B01D42E480159018091E7
:102700004203811102C00E94090F80911F0480FFC3
:102710006BC0809171008D7F809371008091530315
:1027200081110E94230F81E080935403D0931E04F3
:10273000C0931D04F0921C04E0921B04D092260466
:102740008092200490922104A0922204B09223044B
:10275000109255031092560310925703109258038B
:102760001092470388819981AA81BB8180934F038E
:1027700090935003A0935103B093520320E030E0B4
:1027800040E85EE36C817D818E819F810E9459309B
:102790006B017C0180912202682F70E080E090E064
:1027A0000E94472F20E030E048EC52E40E94AE2E19
:1027B0009B01AC01C701B6010E94593060934B03E5
:1027C00070934C0380934D0390934E0310924A03F1
:1027D0001092490380917100826080937100809112
:1027E0009000806880939000DF91CF911F910F91AE
:1027F000FF90EF90DF90CF90BF90AF909F908F9021
:10280000089580911F048170089580911F04816054
:1028100080931F040E9463290C94B10880911F04C7
:102820008E7F80931F040C9463298091930390E022
:10283000019666E070E00E9427328093930308952A
:102840008091930390E0019766E070E00E94273248
:102850008093930308958F929F92AF92BF92CF92ED
:10286000DF92EF92FF920F931F93CF93DF936B0151
:102870007C01C0914003D0914103BE0180E090E013
:102880000E94472F4B015C01A701960160E070E0B8
:102890008CE594E40E94AE2E9B01AC01C501B4010D
:1028A0000E9459300E941B2F20919303233009F47A
:1028B00073C028F4222351F02130E9F02CC12430D8
:1028C00009F4A0C0253009F4E0C025C180E090E003
:1028D000A0E0BFE380931E0290931F02A09320020A
:1028E000B0932102109243031092440310924503C7
:1028F0001092460310C110924303109244031092A9
:102900004503109246036431710540F46A30710545
:1029100060F520E030E040E85EE32BC0693C7105E3
:1029200008F0AAC080E090E00E94472F20E030E04D
:1029300040EA51E40E94452E20E030E044E353E4B5
:102940000E94AE2E9B01AC010E94593020E030E085
:1029500040E05EE30E9459309B01AC0160E070E012
:1029600080E09EE30E94452E44C020E030E040E03D
:102970005FE3C701B6010E9459306B017C0180E022
:1029800090E0A0E0BEE380931E0290931F02A0930C
:102990002002B0932102BFC010924303109244035F
:1029A00010924503109246034AE0469F9001479FCC
:1029B000300D1124C90168EB7BE00E941332BC0189
:1029C0006C5D754077FF03C071956195710988272B
:1029D00077FD8095982F0E94492F2EE333EC4EE22D
:1029E00059E30E94593020E030E040EC5EE30E9461
:1029F000462E60931E0270931F02809320029093D4
:102A0000210289C01092430310924403109245039F
:102A100010924603CE0183709927892BE1F0BE0105
:102A20006170772780E090E00E94472F20E030E03F
:102A300040E05EE30E94593020E030E040E45FE394
:102A40000E94462E60931E0270931F028093200204
:102A5000909321020CC080E090E0A0E0BFE380935F
:102A60001E0290931F02A0932002B0932102C77010
:102A7000DD27CD2B09F04FC010921E0210921F02CD
:102A8000109220021092210246C01092430310922D
:102A90004403109245031092460300E010E020E04A
:102AA0003FE300931E0210931F02209320023093F5
:102AB00021026739710578F180E090E00E94472F8C
:102AC00020E030E047E153E40E94452E20E030E072
:102AD0004AE754E40E94AE2E20E030E048E452E49D
:102AE0000E94593020E030E040EA51E40E948B2FF0
:102AF0000E94162F660F771F660F771FFB01E6599E
:102B0000FD4F2081318142815381C701B6010E946E
:102B100059306B017C01C701B601DF91CF911F9144
:102B20000F91FF90EF90DF90CF90BF90AF909F906C
:102B30008F9008958091A4030895CF93DF9300D0E0
:102B40001F92CDB7DEB79C0180912B04843019F51C
:102B500093E099833B832A839093E9008FEF9091D0
:102B6000E800815095FD06C095ED9A95F1F70000BB
:102B70008111F5CF8091E80085FF0DC040E050E065
:102B800063E070E0CE0101960E94FA178091E800A0
:102B90008E778093E8000F900F900F90DF91CF9188
:102BA0000895CF93DF9300D01F92CDB7DEB7209169
:102BB0002B04243021F522E029839B838A8383E040
:102BC0008093E9008FEF9091E800815095FD06C059
:102BD00095ED9A95F1F700008111F5CF8091E8000D
:102BE00085FF0DC040E050E063E070E0CE0101964B
:102BF0000E94FA178091E8008E778093E8000F908A
:102C00000F900F90DF91CF91089520912B042430E5
:102C1000F1F422E02093E9002FEF3091E8002150F9
:102C200035FD06C035ED3A95F1F700002111F5CFDD
:102C30002091E80025FF0BC040E050E065E070E027
:102C40000E94FA178091E8008E778093E80008953B
:102C5000CF93DF93EC0190912B04943009F046C0A0
:102C600080912D028823D9F080912E028823B9F01B
:102C70009093E9008FEF9091E800815095FD06C098
:102C800095E19A95F1F700008111F5CF8091E80068
:102C900085FF2CC040E050E060E170E017C081E0AB
:102CA0008093E9008FEF9091E800815095FD06C078
:102CB00095ED9A95F1F700008111F5CF8091E8002C
:102CC00085FF14C040E050E068E070E0CE010E9453
:102CD000FA178091E8008E778093E80080E1FE018A
:102CE000A4E9B3E001900D928A95E1F7DF91CF91CD
:102CF000089580912A04811109C00E948F190E94B1
:102D0000EC198091E20084608093E20008951092B3
:102D10002A040895089508950C943C2842E061EC3B
:102D200081E00E94091942E061EC82E00E940919E9
:102D300042E061EC83E00E94091942E161EC84E029
:102D40000C94091980912D04833009F455C030F496
:102D5000813071F0823009F48EC008958A3009F410
:102D60007AC08B3009F460C0893009F09CC020C063
:102D700080912C04813A09F096C08091E800877F09
:102D80008093E8008091300490913104892B21F4E4
:102D900060E184E993E003C060E080E090E070E0EF
:102DA0000E9445188091E8008B778093E800089591
:102DB00080912C04813209F076C08091300490918A
:102DC0003104009719F0039709F06DC08091E80075
:102DD000877F8093E8008091E80082FD05C08091A4
:102DE0002B048111F8CF5FC08091F1008093A40380
:102DF0008091E8008B7753C080912C04813A09F0D0
:102E000052C08091300490913104892B09F04BC05D
:102E10008091E800877F8093E8008091E80080FF40
:102E2000FCCF80912D0236C080912C048132D9F5DF
:102E30008091300490913104892BA9F58091E800AC
:102E4000877F8093E8000E943E1980912E04809332
:102E50002D020C947D2180912C04813221F58091EA
:102E6000E800877F8093E8000E943E1980912F043C
:102E70008093A503089580912C04813AA1F4809158
:102E8000E800877F8093E8008091E80080FFFCCF16
:102E90008091A5038093F1008091E8008E77809364
:102EA000E8000C943E19089584B7877F84BF88E1B9
:102EB0000FB6F89480936000109260000FBE80E817
:102EC00080936100109261000E94EA1C0E948F1999
:102ED0000E94EC198091E20084608093E200789473
:102EE0000E947B1C0E94EC1C83E292E00E94961CD4
:102EF00080912B04853069F40E94FD27809129047C
:102F00008823B1F30E942B28882391F30E94E417B1
:102F1000EFCF0E94F41CECCF292F3327233031054B
:102F2000C9F064F42130310581F02230310509F017
:102F300043C08DE690E02CEC39E042C021323105EF
:102F4000F1F02232310541F137C082E190E029E30E
:102F50003AE036C099278130910541F082309105E1
:102F600041F0892B49F5E8ECF9E005C0EAE9F9E020
:102F700002C0E0E7F9E0849190E09F0121C0643055
:102F80007105D0F4660F771FFB01EA53FD4F2081D6
:102F9000318189E090E014C06430710568F4FB0170
:102FA000EE0FFF1FE254FD4F20813181FB01E654FB
:102FB000FD4F808190E004C080E090E020E030E0B0
:102FC000FA0131832083089580E189BD82E189BDC2
:102FD00009B400FEFDCF8091D8008F7D8093D8008A
:102FE0008091E00082608093E0008091E00081FDAC
:102FF000FCCF0895CF92DF92EF92FF920F931F9331
:10300000CF93DF93EC018B016A010E945D1981115E
:1030100033C0C114D10439F0F60180819181081BBD
:10302000190BC80FD91FE12CF12C0115110519F14D
:103030008091E80085FD16C08091E8008E7780932E
:10304000E800C114D10449F0F60180819181E80EB5
:10305000F91EF182E08285E00FC00E945D1988238D
:1030600021F30AC089918093F10001501109FFEF0B
:10307000EF1AFF0ADACF80E0DF91CF911F910F9115
:10308000FF90EF90DF90CF9008952091320430911F
:1030900033042617370748F06115710539F420917C
:1030A000E8002E772093E80001C0B90140E06115E7
:1030B0007105A9F120912B04222309F443C0253086
:1030C00009F442C02091E80023FD40C02091E800AF
:1030D00022FD32C02091E80020FFE9CF4091F300AB
:1030E0002091F20030E0342BFC01CF016115710515
:1030F00059F02830310540F481918093F1006150FE
:1031000071092F5F3F4FF1CF41E02830310509F0C1
:1031100040E02091E8002E772093E800C8CF4111CD
:10312000C9CF0AC080912B04882361F0853061F0FB
:103130008091E80083FD0AC08091E80082FFF2CF11
:1031400080E0089582E0089583E0089581E0089585
:1031500020913204309133042617370748F0611567
:10316000710539F42091E8002E772093E80001C022
:10317000B901FC0120E06115710591F180912B04EA
:10318000882309F440C0853009F43FC08091E800ED
:1031900083FD3DC08091E80082FD2FC08091E80052
:1031A00080FFE9CF2091F3008091F20090E0922B14
:1031B0006115710559F08830910540F424912093F0
:1031C000F1003196615071090196F2CF21E0089724
:1031D00009F020E08091E8008E778093E800CBCF63
:1031E0002111CCCF0AC080912B04882361F0853057
:1031F00061F08091E80083FD0AC08091E80082FFC1
:10320000F2CF80E0089582E0089583E0089581E0A0
:103210000895982F973058F59093E900981739F052
:103220007091EC002091ED005091F00003C0242F2C
:10323000762F50E021FF19C03091EB003E7F309394
:10324000EB003091ED003D7F3093ED003091EB00CD
:1032500031603093EB007093EC002093ED005093BD
:10326000F0002091EE0027FF07C09F5FD3CF8F7043
:103270008093E90081E0089580E0089580912C0416
:1032800087FF11C08091E80082FD05C080912B046A
:103290008111F8CF11C08091E8008B770BC080912D
:1032A0002B04882349F08091E80080FFF8CF8091BB
:1032B000E8008E778093E80008952091E400309133
:1032C000E50095E64091EC00842F817040FF22C01C
:1032D0008091E80080FD1CC080912B04882391F030
:1032E000853091F08091EB0085FD10C04091E400A5
:1032F0005091E5004217530729F39A01915011F7B5
:1033000084E0089582E0089583E0089581E00895BF
:1033100080E008954091E80042FFDECF08950E94CA
:10332000FD190E94051AE0EEF0E080818160808343
:10333000E8EDF0E080818F77808319BCA7EDB0E0E5
:103340008C918E7F8C9380818F7E808310922A0453
:1033500008950F931F93CF93DF930E94FD190E944E
:10336000051AC8EDD0E088818F77888388818068CE
:10337000888388818F7D888319BC10922B041092DA
:103380002704109229041092280400EE10E0F8019E
:1033900080818B7F808388818160888342E060E0C8
:1033A00080E00E940919E1EEF0E080818E7F808349
:1033B000E2EEF0E08081816080838081886080839C
:1033C000F80180818E7F8083888180618883DF918E
:1033D000CF911F910F910895E8EDF0E080818F7EED
:1033E0008083E7EDF0E080818160808384E082BFAC
:1033F00081E080932A040C94A919E8EDF0E0808123
:103400008E7F80831092E20008951092DA0010926D
:10341000E10008951F920F920FB60F9211242F937F
:103420003F934F935F936F937F938F939F93AF934C
:10343000BF93EF93FF938091E10082FF0BC08091D7
:10344000E20082FF07C08091E1008B7F8093E10062
:103450000E947A1C8091DA0080FF1FC08091D80002
:1034600080FF1BC08091DA008E7F8093DA0080910C
:10347000D90080FF0DC080E189BD82E189BD09B41A
:1034800000FEFDCF81E080932B040E94791605C0D9
:1034900019BC10922B040E9487168091E10080FFD6
:1034A00019C08091E20080FF15C08091E2008E7FFC
:1034B0008093E2008091E20080618093E20080913D
:1034C000D80080628093D80019BC85E080932B04DB
:1034D0000E948B168091E10084FF30C08091E20051
:1034E00084FF2CC080E189BD82E189BD09B400FE62
:1034F000FDCF8091D8008F7D8093D8008091E1002E
:103500008F7E8093E1008091E2008F7E8093E200C5
:103510008091E20081608093E200809127048823FB
:1035200011F084E007C08091E30087FD02C081E0D4
:1035300001C083E080932B040E948C168091E100EF
:1035400083FF29C08091E20083FF25C08091E100C4
:10355000877F8093E10082E080932B041092270400
:103560008091E1008E7F8093E1008091E2008E7F68
:103570008093E2008091E20080618093E20042E06B
:1035800060E080E00E9409198091F00088608093DB
:10359000F0000E948A16FF91EF91BF91AF919F9129
:1035A0008F917F916F915F914F913F912F910F90EC
:1035B0000FBE0F901F9018951F920F920FB60F928B
:1035C00011242F933F934F935F936F937F938F9328
:1035D0009F93AF93BF93CF93DF93EF93FF93C091EC
:1035E000E900CF708091EC00D82FD17080FDD0E839
:1035F0001092E9008091F000877F8093F00078942A
:103600000E94201B1092E9008091F0008860809356
:10361000F000CD2BCF70C093E900FF91EF91DF91C7
:10362000CF91BF91AF919F918F917F916F915F915A
:103630004F913F912F910F900FBE0F901F901895B3
:103640001F93CF93DF93CDB7DEB7AA970FB6F89449
:10365000DEBF0FBECDBFECE2F4E088E08E0F9091AC
:10366000F10091938E13FBCF0E94A2168091E80087
:1036700083FF28C180912C0490912D04492F50E0A4
:103680004A30510508F01EC1FA01EC59FF4F0C9465
:103690003B32803821F0823809F014C108C0809193
:1036A000280490912904992389F082600FC08091A9
:1036B00030048F70873008F005C18093E900809155
:1036C000EB0085FB882780F91092E9009091E800D3
:1036D000977F9093E8008093F1001092F100D0C0A2
:1036E000282F2D7F09F0EEC0882319F0823061F079
:1036F000E9C080912E04813009F0E4C0933009F0D4
:1037000080E0809329042EC080912E0481112AC06C
:10371000809130048F702FEF280F263008F0D2C030
:103720008093E9002091EB0020FF1CC0933021F42E
:103730008091EB00806214C09091EB0090619093B7
:10374000EB0021E030E0A90102C0440F551F8A952B
:10375000E2F74093EA001092EA008091EB00886063
:103760008093EB001092E9008091E800877F8093BE
:10377000E8000E943E19A6C08111A4C010912E0439
:103780001F778091E3008078812B8093E300809104
:10379000E800877F8093E8000E943E198091E8004E
:1037A00080FFFCCF8091E30080688093E3001111DB
:1037B00002C082E001C083E080932B0483C0805864
:1037C000823008F07FC080912E0490912F048C3DB0
:1037D00053E0950779F583E08A838AE289834FB7BE
:1037E000F894DE01139620E03EE051E2E32FF0E092
:1037F00050935700E49120FF03C0E295EF703F5FC4
:10380000EF708E2F90E0EA3010F0C79601C0C0969E
:103810008D939D932F5F243149F74FBF8091E8002E
:10382000877F8093E8006AE270E0CE0101960E94F3
:10383000451815C06091300470913104AE014F5F9E
:103840005F4F0E948C17BC010097E1F19091E80056
:10385000977F9093E80089819A810E94A8188091AF
:10386000E8008B778093E8002DC0803859F580916F
:10387000E800877F8093E800809127048093F1001F
:103880008091E8008E7773CF81111CC090912E0437
:103890009230C0F48091E800877F8093E800909395
:1038A00027040E943E1980912704811106C080914F
:1038B000E30087FD02C081E001C084E080932B0417
:1038C0000E948E168091E80083FF0AC08091E80074
:1038D000877F8093E8008091EB0080628093EB000B
:1038E000AA960FB6F894DEBF0FBECDBFDF91CF9181
:1038F0001F9108950895CF9380912B048823A1F000
:10390000C091E900CF709091EC00892F817090FDFB
:1039100080E8C82B1092E9008091E80083FD0E94A6
:10392000201BCF70C093E900CF9108959093AB0313
:103930008093AA030895E091AA03F091AB03309716
:1039400021F00190F081E02D099480E00895E0914C
:10395000AA03F091AB03309721F00280F381E02DB0
:1039600009940895E091AA03F091AB03309721F0F8
:103970000480F581E02D099408952091A8033091E9
:10398000A9038217930771F09093A9038093A8036A
:10399000E091AA03F091AB03309721F00680F78104
:1039A000E02D099408952091A6033091A703821772
:1039B000930771F09093A7038093A603E091AA0365
:1039C000F091AB03309721F00084F185E02D09944C
:1039D000089508950C94E91C0E9470280E94290EF5
:1039E0000E94F6280C94AA2D5F926F927F928F927C
:1039F0009F92AF92BF92CF92DF92EF92FF920F937E
:103A00001F93CF93DF9300D000D01F92CDB7DEB7C6
:103A10000E946E0E95EBC92E93E0D92E03E010E0C4
:103A2000AA24A394B12C502E802F0E94E90E4C01A1
:103A3000F601729062906F01682679266114710414
:103A4000A1F40150110978F78FEF89838A831B82D3
:103A50000E9479288160782F9D838C8349815A81C7
:103A60006B818D810E94A41D38C080910A0481FD64
:103A70000E94F20E2BE030E07501022E02C0EE0C27
:103A8000FF1C0A94E2F7C70186219721892B09F1CF
:103A900029835A828E209F2091E0892809F490E0A2
:103AA0009B830E9479288160782F9D838C83498134
:103AB0005A816B818D810E94A41D000F111FF80196
:103AC000E355FC4F80819181E826F926F182E0825E
:103AD00004C02150310980F6B4CF0E94E22A10912F
:103AE000AC030E949B1C1817D1F00E949B1C809372
:103AF000AC030F900F900F900F900F90DF91CF912C
:103B00001F910F91FF90EF90DF90CF90BF90AF90FB
:103B10009F908F907F906F905F900C94130E0F90FA
:103B20000F900F900F900F90DF91CF911F910F91F9
:103B3000FF90EF90DF90CF90BF90AF909F908F90CD
:103B40007F906F905F900895CF93DF93CDB7DEB7EE
:103B50002B970FB6F894DEBF0FBECDBF4F835887AB
:103B600069877A878B87DE01119686E0FD011192C5
:103B70008A95E9F785E0FE01379601900D928A95C6
:103B8000E1F749815A816B817C818D819E810E9400
:103B90001B242B960FB6F894DEBF0FBECDBFDF916E
:103BA000CF910895CF93882309F4C2C0C82F8238DB
:103BB00059F40E949B1C81FDBBC089E30E94F5263D
:103BC0000E94C22789E30CC0833879F40E949B1CB1
:103BD00080FDAEC083E50E94F5260E94C22783E5E2
:103BE0000E943727CF910C94C227843859F40E9441
:103BF0009B1C82FD9DC087E40E94F5260E94C2277F
:103C000087E4EECF8CEF8C0F813A48F48C2F0E9422
:103C1000122D81118DC08C2F0E94F526E3CF80E2FA
:103C20008C0F883048F4C77081E001C0880FCA95B6
:103C3000EAF70E947B27D6CF8BE58C0F833078F490
:103C4000C53A29F0C63A31F083E890E005C081E832
:103C500090E002C082E890E0CF910C94BD1C88E512
:103C60008C0F833108F064C0C83A39F1C93A41F188
:103C7000CA3A49F1CB3A51F1CC3A59F1CD3A61F116
:103C8000C03B69F1CE3A71F1CF3A79F1C13B81F194
:103C9000C23B89F1C33B91F1C43B99F1C53BA1F112
:103CA000C63BA9F1C73BB1F1C83BB9F1C93BC1F172
:103CB000CA3BC9F180E090E038C082EE90E035C0A8
:103CC00089EE90E032C08AEE90E02FC085EB90E064
:103CD0002CC086EB90E029C087EB90E026C08CECEE
:103CE00090E023C08DEC90E020C083E891E01DC0FF
:103CF0008AE891E01AC082E991E017C084E991E076
:103D000014C081E292E011C083E292E00EC084E22E
:103D100092E00BC085E292E008C086E292E005C026
:103D200087E292E002C08AE292E0CF910C94D31C29
:103D3000CF910895882309F44BC0823859F40E942A
:103D40009B1C81FF45C089E30E94F5260E94C22783
:103D500089E30CC0833871F40E949B1C80FF38C03B
:103D600083E50E94F5260E94C22783E50E9437273B
:103D70000C94C227843859F40E949B1C82FF28C0EF
:103D800087E40E94F5260E94C22787E4EFCF9CEFCC
:103D9000980F913A58F390E2980F983050F487704A
:103DA00091E001C0990F8A95EAF7892F0E94812737
:103DB000DFCF9BE5980F933020F480E090E00C94E7
:103DC000BD1C885A833120F480E090E00C94D31C11
:103DD0000895882321F00E947B270C94C227089520
:103DE000882321F00E9481270C94C22708957F9296
:103DF0008F929F92AF92BF92CF92DF92EF92FF92FB
:103E00000F931F93CF93DF931F92CDB7DEB77C0143
:103E1000C62E772EFC01058102950F7012811111BB
:103E20000E9498270E94EE26882379F0112369F0DA
:103E300080E28C0D883048F082E00E94D7260E94F4
:103E4000EE2691E0D82ED92601C0D12CE72DE2959F
:103E5000EF70F0E0E259FF4F0C943B32872D807FEA
:103E6000072D0F70882311F00295007F112389F030
:103E7000002309F499C180E28C0D883020F4802F52
:103E80000E947B2703C0802F0E948B270E94C2279D
:103E90008BC18C2D0E949A1E002309F4C3C180E2BD
:103EA0008C0D883020F4802F0E94812703C0802F42
:103EB0000E9491270E94C227B5C1872D807F972D30
:103EC0009F70803211F4892F03C0892F8295807FE3
:103ED000CC2021F0F1E0CF16A1F01DC0112339F064
:103EE000002319F1013009F50E94AB279BC1002383
:103EF00019F0013009F496C189830E94AE278981A7
:103F000010C1112321F0063008F08CC10EC005301D
:103F100008F088C106C1112359F0002331F0F701E0
:103F2000958190FF41C19F7095830E94E91E7AC1DF
:103F3000002309F4F6C03EC1872D869586958370CF
:103F400090E0009719F0019761F06CC1112321F006
:103F50008C2D972D937002C080E090E00E94BD1CD4
:103F600061C1112321F08C2D972D937002C080E048
:103F700090E00E94D31C56C18C2D112319F00E9491
:103F8000EA2902C00E94522A0E94D72A4BC1872DDB
:103F9000837009F052C0111145C18C2D8295869510
:103FA0008770880F880F9C2D9F70892E912CA12CD3
:103FB000B12C082E04C0880C991CAA1CBB1C0A94A6
:103FC000D2F7C4FE14C00FE010E020E030E0B901E9
:103FD000A80104C0440F551F661F771F8A95D2F7AA
:103FE000CB01BA01609570958095909503C060E013
:103FF00070E0CB01272D26952695237030E02230E6
:10400000310569F02330310589F0682979298A2939
:104010009B292130310571F00E94632503C1682975
:1040200079298A299B290E947F25FCC00E9463254B
:10403000C501B4010E944725F5C0112319F0872D51
:10404000817001C08695882309F4ECC08C2D82957F
:1040500086958770880F880F9C2D9F70892E912CD4
:10406000A12CB12C082E04C0880C991CAA1CBB1CC6
:104070000A94D2F7C4FE14C00FE010E020E030E054
:10408000B901A80104C0440F551F661F771F8A9508
:10409000D2F7CB01BA01609570958095909503C0D9
:1040A00060E070E0CB01272D269526952370422FE6
:1040B00050E04230510569F04330510589F06829DC
:1040C00079298A299B294130510571F00E943D26AA
:1040D000A9C0682979298A299B290E945926A2C04A
:1040E0000E943D26C501B4010E9421269BC08C2D53
:1040F00090E0FC01E05EF109E531F10508F050C007
:10410000E258FF4F0C943B320C2D0F70872D8F71AE
:10411000112321F00E94BA25802F07CF0E94DB25B2
:10412000802F0E94F01E7EC0112341F0053008F060
:1041300079C0872D8F710E94002674C0063008F068
:1041400071C0F7CF112339F0872D8F710E94BA25E6
:1041500069C01123C9F3872D8F710E94DB2562C0CE
:10416000112329F0872D8F710E94A5255BC00E9425
:104170009B2558C0112351F0172D1F71812F0E94CC
:10418000BA2563E0812F0E94CE264CC081E00E94B8
:10419000D726023008F446C082E00E94D72642C0EB
:1041A000112331F0002381F28C2D0E94D21D3AC0E0
:1041B000002389F28C2D0E949A1E34C0472D4F7027
:1041C0006C2DC7010E94F5060E94BF242BC011115F
:1041D00029C0472D4F7050E042305105B9F04CF4E2
:1041E0004115510581F041305105E1F40E94D22D75
:1041F00019C04330510569F04430510599F48C2DB4
:104200000E94242E0FC00E94BB2D0CC00E94EE2DD8
:1042100009C00E94012E06C0472D4F706C2DC701AA
:104220000E94B40ADD20F9F00E94CA2680FD1BC05E
:10423000F70112820E94C4260E94BA25C7010E947B
:1042400042210E94C4260F90DF91CF911F910F91C0
:10425000FF90EF90DF90CF90BF90AF909F908F90A6
:104260007F900C94DB250F90DF91CF911F910F91E0
:10427000FF90EF90DF90CF90BF90AF909F908F9086
:104280007F9008950F931F93CF93DF93EC01888164
:1042900099812B813C81232BB9F09F3F11F48F3FF3
:1042A00099F0CE010E94B308882371F0688179816A
:1042B0008A810E94C0268C010E9475260E943C259E
:1042C000B801CE010E94F71EDF91CF911F910F918F
:1042D00008950E9498270E94A8270E946D270E9497
:1042E000C2270E94882B0E94D72A80E090E00E947B
:1042F000BD1C80E090E00C94D31C0E9488270C9495
:1043000069210E94B526292F22952F7030E02C308C
:1043100031054CF42A3031056CF422503109223039
:104320003105A8F407C02C30310569F02F30310574
:1043300051F00DC0803F69F018F4803E40F409C090
:10434000843F29F406C093FB882780F9089580E014
:10435000089581E00895CF93DF9300D000D01F929D
:10436000CDB7DEB70F900F900F900F900F90DF91A9
:10437000CF910895CF93DF9300D000D000D0CDB778
:10438000DEB726960FB6F894DEBF0FBECDBFDF9125
:10439000CF9108951F93CF93DF93C091B50316E09B
:1043A0008091B603C81799F0D0E01C9FF0011D9FC3
:1043B000F00D1124E954FC4F4081518162817381D9
:1043C000848195810E94BA212196C770E9CFDF913F
:1043D000CF911F9108954091E7035091E8036091B8
:1043E000E9037091EA038091EB039091EC030C9444
:1043F000BA218091EC0382958F7009F054C08091AE
:10440000E903882309F44FC08091B503A091B60356
:104410006091E7037091E8034091EA035091EB0348
:10442000B6E08A1709F43FC090E041155105C1F18B
:104430007F3F11F46F3FA1F1B89FF001B99FF00DDC
:104440001124E954FC4F218172132AC02081621388
:1044500027C02281211124C02381348124173507EC
:1044600010F421503109241B350B283C3105C0F4D0
:104470002091EC032F7020612093EC0326E0289F0D
:10448000F001299FF00D1124E454FC4F80818F70BE
:104490008061808387EE93E00E9442210C94CA21C0
:1044A00001968770BECF0895CF92DF92EF92FF9270
:1044B0000F931F93CF93DF93CDB7DEB762970FB6FD
:1044C000F894DEBF0FBECDBF8C0185E0F801DE01A0
:1044D0001D9601900D928A95E1F7D8014C911196A5
:1044E0005C91119712966C9112971396CD90DC9077
:1044F00014973091E7037091E8038091EA0390915B
:10450000EB03009709F46BC17F3F19F43F3F09F4B7
:1045100066C1E090E903EE2009F4C0C02091EC03ED
:10452000C816D90628F0F601E81BF90BCF0104C024
:10453000809590958C0D9D1DFF24F394883C9105EA
:1045400078F0F12C207F09F0C6C07C2DD98AC88A6A
:1045500089890E94AB2187EE93E00E944221B1C07D
:10456000822F807F09F046C0751314C0341312C027
:10457000611110C02F7020612093EC030E94EB2189
:1045800087EE93E00E9442218091EC03D8011596BA
:104590008C932EC0CD2819F15F3F11F44F3FF9F0F5
:1045A000F62E61111CC08091B5032091B60336E050
:1045B000821709F45AC090E0389FF001399FF00D3E
:1045C0001124E954FC4F7181571306C070814713C1
:1045D00003C07281711103C001968770E9CFF62E76
:1045E000662309F418C18091EC0381608093EC0389
:1045F000F12C11C1751308C0341306C0611104C039
:104600008091EC03D801C3C04D875E878D859E8560
:104610006A8B0E9481216A898823E1F16623D1F1A6
:104620002091EC03822F82958F7090E0029774F0B6
:104630008091E7039091E80398878F831986DB8642
:10464000CA862C87CE0107960E94422186E0F80197
:10465000A7EEB3E001900D928A95E1F70E94F9214F
:104660000E94EB21FF24F394D6C04D875E878D8591
:104670009E850E94B526292F22952F7030E022308A
:1046800031050CF0BCC09F7009F0B6C0805E883068
:1046900008F4C1C0C8010E944221E4CFC816D9065F
:1046A00008F453C0F601E81BF90BCF01883C9105D3
:1046B00008F450C0F12C7C2DD98AC88A89890E94BF
:1046C000AB21E7EEF3E086E0DF011D928A95E9F782
:1046D0000E94EB21A0C0751314C0341312C06111E5
:1046E00010C08091EC03F8018583C8010E9442212B
:1046F00086E0E7EEF3E0DF011D928A95E9F7FE2CF4
:104700008AC04D875E878D859E856A8B0E94812138
:104710006A89882309F4BECF662309F4BBCF2091B0
:10472000EC03822F82958F7090E002970CF48ECF6D
:104730008091E7039091E8039A8389831B82DD824D
:10474000CC822E83CE0101967FCF809590958C0DE3
:104750009D1DACCFF62E662309F49CCF75132EC099
:1047600034132CC02091EC0320FD1FC0822F8295B2
:104770008F70D9F0D80115962C9315978F3049F08A
:104780008F5F982F9295907F822F8F70892B15962F
:104790008C93C8010E94422186E0F801A7EEB3E0A5
:1047A00001900D928A95E1F793CF86E0F801A7EE8C
:1047B000B3E001900D928A95E1F72DC04D875E8799
:1047C0008D859E850E948121811140CF8091EC03CF
:1047D00081608093EC03C8010E9442211CC06623C3
:1047E00009F458CF4D875E878D859E850E94812173
:1047F000882309F44FCF2ACF811148CF0CC0243031
:1048000031050CF047CF9F7009F440CFF801958136
:10481000907F09F03BCF8F2D62960FB6F894DEBFE4
:104820000FBECDBFDF91CF911F910F91FF90EF9001
:10483000DF90CF9008951F93CF93DF93CDB7DEB76E
:104840002C970FB6F894DEBF0FBECDBF4F835887AD
:1048500069877A878B879C87CE0107960E945422AE
:10486000882369F08F8198852A853B85232BF1F178
:104870009F3F09F063C08F3F09F060C037C086E0FA
:10488000FE013796DE01119601900D928A95E1F7AF
:104890006F817885EA85FB85309741F17F3F11F480
:1048A0006F3F21F12091B60330E0C9010196877076
:1048B00099274091B50350E08417950709F447C044
:1048C00069837A83FD83EC8396E0929FD001939F66
:1048D000B00D1124A954BC4FFE01319601900D92E8
:1048E0009A95E1F78093B6030E94CA2116E0809161
:1048F000B5039091B6038917C1F1189FC001112427
:1049000089549C4F0E945422882379F1E091B50389
:104910001E9FF0011124E954FC4F408151816281B6
:104920007381848195810E94BA218091B50390E0C2
:104930000196877099278093B503D9CF4F81588509
:1049400069857A858B859C850E94BA21CFCF0E948C
:104950007D211092B6031092B503E7EEF3E086E0F6
:10496000DF011D928A95E9F7C1CF2C960FB6F89416
:10497000DEBF0FBECDBFDF91CF911F910895EF92A3
:10498000FF920F931F93CF93DF938C01009709F44D
:104990006CC0F12CEE24E394E8012196F801849197
:1049A000843740F4843008F051C0813081F0823087
:1049B00019F15BC0853709F444C0A8F19CE7980F52
:1049C000903708F052C08F770E949A1E41C00E5F48
:1049D0001F4FFE01C49180E28C0F883048F4C770ED
:1049E0008E2D01C0880FCA95EAF70E949B2714C03C
:1049F0008C2F0E94D21D2DC00E5F1F4FFE01C4914F
:104A000080E28C0F883058F4C7708E2D01C0880F5B
:104A1000CA95EAF70E94A1270E94C2271AC08C2FCC
:104A20000E949A1E16C00E5F1F4FFE01C491CC2338
:104A300081F08FE99FE00197F1F700C00000C150BD
:104A4000F6CF0E5F1F4FFE01F49003C00E94D21DEF
:104A50008E018F2D882309F49FCFEFE9FFE0319776
:104A6000F1F700C000008150F5CFDF91CF911F9189
:104A70000F91FF90EF90089508956093F103709364
:104A8000F2038093F3039093F4030C9469210F9342
:104A90001F930091F1031091F2032091F3033091E1
:104AA000F403DC01CB01802B912BA22BB32B809341
:104AB000F1039093F203A093F303B093F4031F91D7
:104AC0000F910C9469210F931F930091F1031091A2
:104AD000F2032091F3033091F403DC01CB01802336
:104AE0009123A223B3238093F1039093F203A09325
:104AF000F303B093F4031F910F910C9469210F936A
:104B00001F930091F1031091F2032091F303309170
:104B1000F403DC01CB0180279127A227B3278093E0
:104B2000F1039093F203A093F303B093F4031F9166
:104B30000F910C9469211092ED031092EE031092E4
:104B4000EF031092F0030C94692141E050E060E023
:104B500070E004C0440F551F661F771F8A95D2F777
:104B60004093ED035093EE036093EF037093F003D3
:104B70000C94692141E050E060E070E004C0440F13
:104B8000551F661F771F8A95D2F78091ED0390918C
:104B9000EE03A091EF03B091F003482B592B6A2B41
:104BA0007B2B4093ED035093EE036093EF037093E0
:104BB000F0030C94692141E050E060E070E004C033
:104BC000440F551F661F771F8A95D2F74095509561
:104BD000609570958091ED039091EE03A091EF03A5
:104BE000B091F003482359236A237B234093ED03BC
:104BF0005093EE036093EF037093F0030C946921DC
:104C000041E050E060E070E004C0440F551F661FB3
:104C1000771F8A95D2F78091ED039091EE03A091D2
:104C2000EF03B091F003482759276A277B27409369
:104C3000ED035093EE036093EF037093F0030C9435
:104C400069210F931F930091ED031091EE032091C2
:104C5000EF033091F003DC01CB01802B912BA22BD1
:104C6000B32B8093ED039093EE03A093EF03B093E7
:104C7000F0031F910F910C9469210F931F930091E2
:104C8000ED031091EE032091EF033091F003DC016E
:104C9000CB0180239123A223B3238093ED03909330
:104CA000EE03A093EF03B093F0031F910F910C94C8
:104CB00069210F931F930091ED031091EE03209152
:104CC000EF033091F003DC01CB0180279127A2276D
:104CD000B3278093ED039093EE03A093EF03B0937B
:104CE000F0031F910F910C9469210895CF92DF92E8
:104CF000EF92FF920F931F93CF93DF938C01C0909D
:104D0000F103D090F203E090F303F090F40380916C
:104D1000ED039091EE03A091EF03B091F003C82A48
:104D2000D92AEA2AFB2ACFE1D0E0D701C6010C2E0E
:104D300004C0B695A795979587950A94D2F780FFFA
:104D400006C0B8018C2F0E94390D019721F42197DC
:104D500060F780E001C08C2FDF91CF911F910F9100
:104D6000FF90EF90DF90CF900895CF93DF93EC0109
:104D70000E947626BE010E94390DDF91CF910895E1
:104D8000CB010E94B52608958091F5038595859500
:104D9000859508958091F5038770089598E0899F1F
:104DA00090011124262B2093F5030C94BA25209111
:104DB000F503809582238093F503982F977069F40B
:104DC00030E0482F552747FD50952417350729F027
:104DD0008595859585950C94DB2508959091F5032F
:104DE000977081E009F480E0089590912D02992355
:104DF00021F090912E02911109C020912F02309143
:104E00003002F90132969FEF40E01FC0982F96952F
:104E1000969596959F3050F5E0912F02F0913002D3
:104E2000E90FF11D877021E030E0A90102C0440FB5
:104E3000551F8A95E2F7CA019181892B81830895D4
:104E40009F3F39F04F5F4E3041F051915813F8CFEA
:104E50000DC05111F7CF942FF5CF9F3F39F0F901D5
:104E6000E90FF11D97FDFA958283089508959091B9
:104E70002D02992321F090912E02911109C02091C9
:104E80002F0230913002F9013296205F3F4F1FC050
:104E9000982F9695969596959F30F0F4E0912F0275
:104EA000F0913002E90FF11D877021E030E0A90197
:104EB00002C0440F551F8A95E2F7CA01809591817F
:104EC0008923818308953196E217F30729F09081B1
:104ED0009813F9CF1082F7CF089581E090E0E09128
:104EE0002F02F0913002E80FF91F108201968031F5
:104EF0009105A9F7089590910904892B80930904DD
:104F00000895809590910904892380930904089558
:104F100010920904089590910804892B8093080445
:104F2000089580959091080489238093080408953A
:104F300010920804089590910704892B8093070428
:104F4000089580959091070489238093070408951C
:104F50001092070408958093F60308951092F603C3
:104F6000089580912F0290913002FC0131969C01AE
:104F7000205F3F4F80E0919191118F5FE217F3071F
:104F8000D1F70895E0912F02F09130028091090449
:104F90008083E0912F02F09130029081809108048B
:104FA000892B8083E0912F02F091300290818091D3
:104FB0000704892B80838091F603882361F0E091B8
:104FC0002F02F09130029081892B80830E94B127BB
:104FD00081111092F60380912F02909130020C946F
:104FE000A71C20E0009739F0AC01415051098423FF
:104FF00095232F5FF7CF822F089580912B04843063
:1050000039F110920B0420E488E190E00FB6F89497
:10501000A895809360000FBE2093600080E00E94FE
:10502000230680E00E94130E83B7817F846083BFD4
:1050300083B7816083BF7894889583B78E7F83BF61
:1050400088E10FB6F89480936000109260000FBE64
:1050500008950895089580E00E9423060E9429285B
:105060000E946E0E0E942A280E94F30E91E0811188
:1050700001C090E0892F08950E947D2180E00E9468
:1050800023060E94AA2D0E949B1C0C94130E1F92B3
:105090000F920FB60F9211248F939F93AF93BF93EC
:1050A00080910B04811113C080910C0490910D0428
:1050B000A0910E04B0910F044196A11DB11D8093E3
:1050C0000C0490930D04A0930E04B0930F04BF91B1
:1050D000AF919F918F910F900FBE0F901F901895D9
:1050E00082E084BD93E095BD9AEF97BD80936E00FA
:1050F00008952FB7F89480910C0490910D04A0911D
:105100000E04B0910F042FBF0895CF92DF92EF925B
:10511000FF920F931F932FB7F89440910C04509176
:105120000D0460910E0470910F042FBF6A017B0182
:10513000EE24FF248C0120E030E0C016D106E20608
:10514000F30610F4415051099A01281B390BC9018B
:105150001F910F91FF90EF90DF90CF9008951F92D5
:105160000F920FB60F9211248F939F93AF93BF931B
:1051700080910C0490910D04A0910E04B0910F0445
:105180000196A11DB11D80930C0490930D04A09372
:105190000E04B0930F04BF91AF919F918F910F9028
:1051A0000FBE0F901F9018950E948F19F8942FEF43
:1051B00087EA91E6215080409040E1F700C000006E
:1051C00087E090EBDC018093360490933704A09342
:1051D0003804B09339049CE088E10FB6F894A895A0
:1051E000809360000FBE90936000FFCF0E9435292E
:1051F000811102C00E9411290E94402980930A0453
:105200000E944D298093340487FB882780F980937E
:105210002E020E944429682F70E080E090E00C94F8
:105220003D256DEE7EEF80E090E00E94613260E00F
:1052300082E090E00E944F3260E083E090E00E94C4
:105240004F3260E084E090E00E944F3260E085E001
:1052500090E00E944F3260E086E090E00E944F3282
:105260006FEF87E090E00C944F3280E090E00E9476
:10527000493221E08D3E9E4F09F020E0822F0895B3
:1052800082E090E00C94413283E090E00C94413253
:10529000682F83E090E00C944F3284E090E00C940F
:1052A0004132682F84E090E00C944F3286E090E029
:1052B0000C944132682F86E090E00C944F3287E0E6
:1052C00090E00C944132682F87E090E00C944F32CC
:1052D0008091120480FF0BC06091340285E0689FCA
:1052E000B001112475956795759567952BC081FF61
:1052F00009C06091340285E0689FB0011124759562
:10530000679520C082FF07C06091340285E0689FE6
:10531000B001112417C0909113049923D1F060912A
:105320003302961788F72091340285E0289F900178
:105330001124929FA001939F500D112470E0CA0187
:105340000E9427326038710540F46115710539F00B
:1053500002C065E070E0862F08958FE7089581E030
:1053600008958091120480FF08C06091320270E0BD
:10537000759567957595679521C081FF06C0609109
:10538000320270E07595679519C082FF04C0609184
:10539000320270E010C0909113049923C1F0609123
:1053A00031029617A0F780913202899FC001112423
:1053B00070E00E9427326038710528F4611571058C
:1053C00021F0862F08958FE7089581E0089561E028
:1053D00070E0F4CF803F21F40E946829819504C0D9
:1053E000813F29F40E946829809316040895823F22
:1053F00021F40E946829819504C0833F29F40E940A
:105400006829809315040895893F19F40E94B129F1
:1054100005C08A3F31F40E94B12981958093170419
:1054200008958B3F21F40E94B129819504C08C3FDF
:1054300029F40E94B129809318040895843F21F42F
:1054400080911404816017C0853F21F48091140479
:10545000826011C0863F21F48091140484600BC0E7
:10546000873F21F480911404886005C0883F31F49F
:105470008091140480618093140408958D3F21F479
:105480008091120481600BC08E3F21F48091120440
:10549000826005C08F3F29F480911204846080935C
:1054A00012040895803F39F48091160487FF6CC080
:1054B0001092160469C0813F29F4809116041816D1
:1054C000BCF362C090911504823F29F497FF5CC041
:1054D0001092150459C0833F19F41916CCF354C027
:1054E000893F41F48091170418160CF04DC01092BA
:1054F00017044AC08A3F29F48091170487FF44C0EB
:10550000F6CF8B3F39F48091180487FF3DC010928D
:1055100018043AC08C3F29F4809118041816BCF383
:1055200033C0843F21F4809114048E7F17C0853FDF
:1055300021F4809114048D7F11C0863F21F4809165
:1055400014048B7F0BC0873F21F480911404877F64
:1055500005C0883F31F4809114048F7E8093140439
:1055600013C08D3F21F4809112048E7F0BC08E3FBB
:1055700021F4809112048D7F05C08F3F29F4809122
:1055800012048B7F809312048091150481110EC048
:105590008091160481110AC080911704811106C000
:1055A00080911804811102C010921304089584E1BF
:1055B00094E00E94B21C0E94792890931104809379
:1055C000100408951F93CF93DF938091100490915E
:1055D00011040E948528AC0190911304992321F0B5
:1055E0002091350230E006C0209136028AE0289FE3
:1055F000900111244217530708F486C080911504C6
:10560000C0911604D091170410911804811107C09D
:10561000C11176C0D11174C0111172C075C09F3F05
:1056200019F09F5F90931304181624F40E946829C0
:10563000809315048091150487FF05C00E94682996
:105640008195809315041C1624F40E946829809388
:1056500016048091160487FF05C00E946829819571
:105660008093160460911504662339F1C0911604E5
:10567000CC2319F1772767FD7095872F972F0E940C
:10568000492F23E333E343E35FE30E9459300E9451
:10569000162F609315046C2F772767FD7095872F61
:1056A000972F0E94492F23E333E343E35FE30E94F4
:1056B00059300E94162F609316041D1624F40E9480
:1056C000B129809317048091170487FF05C00E94B9
:1056D000B129819580931704111624F40E94B129F1
:1056E000809318048091180487FF05C00E94B12997
:1056F000819580931804DF91CF911F910C94D72A44
:105700009F3F09F08ECF96CFDF91CF911F910895E3
:10571000E4E1F4E085E0DF011D928A95E9F710925B
:105720001304109212040895833081F128F481301B
:1057300059F08230D1F00895853009F449C0B8F1AC
:10574000863009F456C0089580913602262F30E045
:10575000280F311D2F3F310524F4680F6093360266
:1057600008958FEF80933602089580913502262F99
:1057700030E0280F311D2F3F310524F4680F60936E
:10578000350208958FEF8093350208958091340299
:10579000262F30E0280F311D2F3F310524F4680FEC
:1057A0006093340208958FEF8093340208958091BE
:1057B0003302262F30E0280F311D2F3F310524F40E
:1057C000680F6093330208958FEF8093330208953A
:1057D00080913202262F30E0280F311D2F3F3105F6
:1057E00024F4680F6093320208958FEF80933202A1
:1057F000089580913102262F30E0280F311D2F3F70
:10580000310524F4680F6093310208958FEF80937F
:1058100031020895833011F128F4813049F082304B
:1058200091F00895853081F120F18630C1F108951D
:1058300080913602681720F4861B80933602089503
:1058400010923602089580913502681720F4861B65
:1058500080933502089510923502089580913402A4
:10586000681720F4861B8093340208951092340246
:10587000089580913302681720F4861B80933302C9
:10588000089510923302089580913202681720F42F
:10589000861B8093320208951092320208958091FF
:1058A0003102681720F4861B80933102089510920C
:1058B000310208950F931F93873208F048C08E314C
:1058C00008F08DC0803109F477C008F5873009F4FD
:1058D00061C068F4863009F09DC080910A04817F20
:1058E0008E7F80930A0481E080931A0494C08B30E9
:1058F00009F489C08E3009F08DC080910A0482FBC2
:10590000222720F991E0922790FB82F95EC0863130
:1059100009F479C060F4813109F07CC00E947D21D6
:1059200090912E0281E0892780932E026CC08931EC
:1059300009F469C08B3109F06DC080910A0481FBC4
:10594000222720F991E0922790FB81F93EC088330D
:1059500009F459C050F4893209F457C0853309F469
:1059600054C0873209F451C055C0833409F44DC086
:1059700028F48A3308F44EC0895332C0883409F0C1
:1059800049C00E947D210E94230F0E94AA080E9404
:10599000D42839C090910A04892F8095817080FBAA
:1059A00090F929F09660986090930A0434C0997F2A
:1059B000977F90930A0427C080910A0483FB2227D3
:1059C00020F991E0922790FB83F980930A049923B0
:1059D000D1F080910A04816080930A0414C08D5133
:1059E00041E050E060E070E08A019B0104C0000FDC
:1059F000111F221F331F8A95D2F7C901B8010E94D7
:105A00003D250E947D2181E006C061E070E080E0DC
:105A100090E0F5CF80E01F910F91089580E0089508
:105A200080E00895CF93C82F80911A04813069F0E7
:105A300018F08230C9F184C0E0912F02F091300259
:105A40008081823209F07EC007C0E0912F02F09180
:105A500030028081823261F48C2F0E940E2D8111E0
:105A600004C08C2F0E945A2C1DC081E090E01AC007
:105A70008C2F0E94102D811114C0C43179F048F48C
:105A8000CB3079F0C03109F061C082E080931A0414
:105A900008C0C93219F0C83321F058C010921A0456
:105AA00055C081E0817054C0C93291F120F5C431F4
:105AB00079F1B0F4C73009F047C08EE18093360227
:105AC00082E3809335028AE08093340284E18093FC
:105AD000330288E08093320288E28093310234C03E
:105AE000CE51C63088F5EC2FF0E0E253FD4F8081B7
:105AF0008093190429C0CE34E9F020F4CB3421F589
:105B00006AE013C0C13579F0C235F1F461E00DC02F
:105B100080911904882319F01092190415C081E0AE
:105B200080931A0415C061E006C0809119040E9498
:105B3000942B0AC06AE0809119040E940A2C04C0C8
:105B400010921A0480E004C081E002C080E0AACF75
:105B5000CF9108950E943529811102C00E94112918
:105B60000E9456298093350480FF02C0869501C0AB
:105B700080E00C94230680913504982F9695292F68
:105B800030E0233031054CF49F5F990F8170892BF1
:105B90008160809335040E945A298091350486954E
:105BA0000C94230680913504982F969591F0915886
:105BB000990F8170892B809335048E7F91E009F4D1
:105BC00090E08091350490FB80F9809335040E9429
:105BD0005A298091350486950C94230680913504CA
:105BE000982F909590FB80F9809335040E945A2954
:105BF0008091350480FF02C0869501C080E00C943E
:105C0000230690913504892F86958F5F8F77917049
:105C1000843028F4880F892B8093350402C0909338
:105C20003504809135048E7F91E009F490E08091F5
:105C3000350490FB80F9809335040E945A298091A5
:105C4000350486950C94230620913504922F969561
:105C50008927982F990F822F8170892B8093350483
:105C60008E7F91E009F490E08091350490FB80F9FB
:105C7000809335040E945A298091350486950C94AE
:105C8000230680913504869508955058BB27AA278E
:105C90000ED0D1C1C2D130F0C7D120F031F49F3F36
:105CA00011F41EF4B7C10EF4E095E7FB9FC1E92F94
:105CB000D3D180F3BA17620773078407950718F0EA
:105CC00071F49EF5EBC10EF4E0950B2EBA2FA02DCA
:105CD0000B01B90190010C01CA01A0011124FF2799
:105CE000591B99F0593F50F4503E68F11A16F04094
:105CF000A22F232F342F4427585FF3CF4695379593
:105D00002795A795F0405395C9F77EF41F16BA0B57
:105D1000620B730B840BBAF09150A1F0FF0FBB1F05
:105D2000661F771F881FC2F70EC0BA0F621F731F4E
:105D3000841F48F4879577956795B795F7959E3FAB
:105D400008F0B3CF9395880F08F09927EE0F979539
:105D50008795089527D108F481E008950CD06BC190
:105D600063D140F05AD130F021F45F3F19F03EC1C9
:105D7000511195C14FC170D198F39923C9F355239F
:105D8000B1F3951B550BBB27AA276217730784072E
:105D900038F09F5F5F4F220F331F441FAA1FA9F3E4
:105DA00033D00E2E3AF0E0E830D091505040E695D6
:105DB000001CCAF729D0FE2F27D0660F771F881F37
:105DC000BB1F261737074807AB07B0E809F0BB0B26
:105DD000802DBF01FF2793585F4F2AF09E3F51054A
:105DE00068F004C15CC15F3FECF3983EDCF386953C
:105DF00077956795B795F7959F5FC9F7880F911DC0
:105E00009695879597F90895E1E0660F771F881FAB
:105E1000BB1F621773078407BA0720F0621B730B5E
:105E2000840BBA0BEE1F88F7E095089504D06894B0
:105E3000B11135C1089518D188F09F5790F0B92F4E
:105E40009927B751A0F0D1F0660F771F881F991FCF
:105E50001AF0BA95C9F712C0B13081F01FD1B1E084
